{
  "contractName": "ERC721Drop",
  "abi": [
    {
      "inputs": [
        {
          "internalType": "string",
          "name": "_name",
          "type": "string"
        },
        {
          "internalType": "string",
          "name": "_symbol",
          "type": "string"
        },
        {
          "internalType": "address",
          "name": "_royaltyRecipient",
          "type": "address"
        },
        {
          "internalType": "uint128",
          "name": "_royaltyBps",
          "type": "uint128"
        },
        {
          "internalType": "address",
          "name": "_primarySaleRecipient",
          "type": "address"
        }
      ],
      "stateMutability": "nonpayable",
      "type": "constructor"
    },
    {
      "inputs": [],
      "name": "ApprovalCallerNotOwnerNorApproved",
      "type": "error"
    },
    {
      "inputs": [],
      "name": "ApprovalQueryForNonexistentToken",
      "type": "error"
    },
    {
      "inputs": [],
      "name": "ApprovalToCurrentOwner",
      "type": "error"
    },
    {
      "inputs": [],
      "name": "ApproveToCaller",
      "type": "error"
    },
    {
      "inputs": [],
      "name": "BalanceQueryForZeroAddress",
      "type": "error"
    },
    {
      "inputs": [],
      "name": "MintToZeroAddress",
      "type": "error"
    },
    {
      "inputs": [],
      "name": "MintZeroQuantity",
      "type": "error"
    },
    {
      "inputs": [],
      "name": "OwnerQueryForNonexistentToken",
      "type": "error"
    },
    {
      "inputs": [],
      "name": "TransferCallerNotOwnerNorApproved",
      "type": "error"
    },
    {
      "inputs": [],
      "name": "TransferFromIncorrectOwner",
      "type": "error"
    },
    {
      "inputs": [],
      "name": "TransferToNonERC721ReceiverImplementer",
      "type": "error"
    },
    {
      "inputs": [],
      "name": "TransferToZeroAddress",
      "type": "error"
    },
    {
      "inputs": [],
      "name": "URIQueryForNonexistentToken",
      "type": "error"
    },
    {
      "anonymous": false,
      "inputs": [
        {
          "indexed": true,
          "internalType": "address",
          "name": "owner",
          "type": "address"
        },
        {
          "indexed": true,
          "internalType": "address",
          "name": "approved",
          "type": "address"
        },
        {
          "indexed": true,
          "internalType": "uint256",
          "name": "tokenId",
          "type": "uint256"
        }
      ],
      "name": "Approval",
      "type": "event"
    },
    {
      "anonymous": false,
      "inputs": [
        {
          "indexed": true,
          "internalType": "address",
          "name": "owner",
          "type": "address"
        },
        {
          "indexed": true,
          "internalType": "address",
          "name": "operator",
          "type": "address"
        },
        {
          "indexed": false,
          "internalType": "bool",
          "name": "approved",
          "type": "bool"
        }
      ],
      "name": "ApprovalForAll",
      "type": "event"
    },
    {
      "anonymous": false,
      "inputs": [
        {
          "components": [
            {
              "internalType": "uint256",
              "name": "startTimestamp",
              "type": "uint256"
            },
            {
              "internalType": "uint256",
              "name": "maxClaimableSupply",
              "type": "uint256"
            },
            {
              "internalType": "uint256",
              "name": "supplyClaimed",
              "type": "uint256"
            },
            {
              "internalType": "uint256",
              "name": "quantityLimitPerWallet",
              "type": "uint256"
            },
            {
              "internalType": "bytes32",
              "name": "merkleRoot",
              "type": "bytes32"
            },
            {
              "internalType": "uint256",
              "name": "pricePerToken",
              "type": "uint256"
            },
            {
              "internalType": "address",
              "name": "currency",
              "type": "address"
            },
            {
              "internalType": "string",
              "name": "metadata",
              "type": "string"
            }
          ],
          "indexed": false,
          "internalType": "struct IClaimCondition.ClaimCondition",
          "name": "condition",
          "type": "tuple"
        },
        {
          "indexed": false,
          "internalType": "bool",
          "name": "resetEligibility",
          "type": "bool"
        }
      ],
      "name": "ClaimConditionUpdated",
      "type": "event"
    },
    {
      "anonymous": false,
      "inputs": [
        {
          "indexed": false,
          "internalType": "string",
          "name": "prevURI",
          "type": "string"
        },
        {
          "indexed": false,
          "internalType": "string",
          "name": "newURI",
          "type": "string"
        }
      ],
      "name": "ContractURIUpdated",
      "type": "event"
    },
    {
      "anonymous": false,
      "inputs": [
        {
          "indexed": true,
          "internalType": "address",
          "name": "newRoyaltyRecipient",
          "type": "address"
        },
        {
          "indexed": false,
          "internalType": "uint256",
          "name": "newRoyaltyBps",
          "type": "uint256"
        }
      ],
      "name": "DefaultRoyalty",
      "type": "event"
    },
    {
      "anonymous": false,
      "inputs": [
        {
          "indexed": true,
          "internalType": "address",
          "name": "prevOwner",
          "type": "address"
        },
        {
          "indexed": true,
          "internalType": "address",
          "name": "newOwner",
          "type": "address"
        }
      ],
      "name": "OwnerUpdated",
      "type": "event"
    },
    {
      "anonymous": false,
      "inputs": [
        {
          "indexed": true,
          "internalType": "address",
          "name": "recipient",
          "type": "address"
        }
      ],
      "name": "PrimarySaleRecipientUpdated",
      "type": "event"
    },
    {
      "anonymous": false,
      "inputs": [
        {
          "indexed": true,
          "internalType": "uint256",
          "name": "tokenId",
          "type": "uint256"
        },
        {
          "indexed": true,
          "internalType": "address",
          "name": "royaltyRecipient",
          "type": "address"
        },
        {
          "indexed": false,
          "internalType": "uint256",
          "name": "royaltyBps",
          "type": "uint256"
        }
      ],
      "name": "RoyaltyForToken",
      "type": "event"
    },
    {
      "anonymous": false,
      "inputs": [
        {
          "indexed": true,
          "internalType": "uint256",
          "name": "index",
          "type": "uint256"
        },
        {
          "indexed": false,
          "internalType": "string",
          "name": "revealedURI",
          "type": "string"
        }
      ],
      "name": "TokenURIRevealed",
      "type": "event"
    },
    {
      "anonymous": false,
      "inputs": [
        {
          "indexed": true,
          "internalType": "address",
          "name": "claimer",
          "type": "address"
        },
        {
          "indexed": true,
          "internalType": "address",
          "name": "receiver",
          "type": "address"
        },
        {
          "indexed": true,
          "internalType": "uint256",
          "name": "startTokenId",
          "type": "uint256"
        },
        {
          "indexed": false,
          "internalType": "uint256",
          "name": "quantityClaimed",
          "type": "uint256"
        }
      ],
      "name": "TokensClaimed",
      "type": "event"
    },
    {
      "anonymous": false,
      "inputs": [
        {
          "indexed": true,
          "internalType": "uint256",
          "name": "startTokenId",
          "type": "uint256"
        },
        {
          "indexed": false,
          "internalType": "uint256",
          "name": "endTokenId",
          "type": "uint256"
        },
        {
          "indexed": false,
          "internalType": "string",
          "name": "baseURI",
          "type": "string"
        },
        {
          "indexed": false,
          "internalType": "bytes",
          "name": "encryptedBaseURI",
          "type": "bytes"
        }
      ],
      "name": "TokensLazyMinted",
      "type": "event"
    },
    {
      "anonymous": false,
      "inputs": [
        {
          "indexed": true,
          "internalType": "address",
          "name": "from",
          "type": "address"
        },
        {
          "indexed": true,
          "internalType": "address",
          "name": "to",
          "type": "address"
        },
        {
          "indexed": true,
          "internalType": "uint256",
          "name": "tokenId",
          "type": "uint256"
        }
      ],
      "name": "Transfer",
      "type": "event"
    },
    {
      "inputs": [
        {
          "internalType": "address",
          "name": "to",
          "type": "address"
        },
        {
          "internalType": "uint256",
          "name": "tokenId",
          "type": "uint256"
        }
      ],
      "name": "approve",
      "outputs": [],
      "stateMutability": "nonpayable",
      "type": "function"
    },
    {
      "inputs": [
        {
          "internalType": "address",
          "name": "owner",
          "type": "address"
        }
      ],
      "name": "balanceOf",
      "outputs": [
        {
          "internalType": "uint256",
          "name": "",
          "type": "uint256"
        }
      ],
      "stateMutability": "view",
      "type": "function"
    },
    {
      "inputs": [
        {
          "internalType": "address",
          "name": "_receiver",
          "type": "address"
        },
        {
          "internalType": "uint256",
          "name": "_quantity",
          "type": "uint256"
        },
        {
          "internalType": "address",
          "name": "_currency",
          "type": "address"
        },
        {
          "internalType": "uint256",
          "name": "_pricePerToken",
          "type": "uint256"
        },
        {
          "components": [
            {
              "internalType": "bytes32[]",
              "name": "proof",
              "type": "bytes32[]"
            },
            {
              "internalType": "uint256",
              "name": "quantityLimitPerWallet",
              "type": "uint256"
            },
            {
              "internalType": "uint256",
              "name": "pricePerToken",
              "type": "uint256"
            },
            {
              "internalType": "address",
              "name": "currency",
              "type": "address"
            }
          ],
          "internalType": "struct IDropSinglePhase.AllowlistProof",
          "name": "_allowlistProof",
          "type": "tuple"
        },
        {
          "internalType": "bytes",
          "name": "_data",
          "type": "bytes"
        }
      ],
      "name": "claim",
      "outputs": [],
      "stateMutability": "payable",
      "type": "function"
    },
    {
      "inputs": [],
      "name": "claimCondition",
      "outputs": [
        {
          "internalType": "uint256",
          "name": "startTimestamp",
          "type": "uint256"
        },
        {
          "internalType": "uint256",
          "name": "maxClaimableSupply",
          "type": "uint256"
        },
        {
          "internalType": "uint256",
          "name": "supplyClaimed",
          "type": "uint256"
        },
        {
          "internalType": "uint256",
          "name": "quantityLimitPerWallet",
          "type": "uint256"
        },
        {
          "internalType": "bytes32",
          "name": "merkleRoot",
          "type": "bytes32"
        },
        {
          "internalType": "uint256",
          "name": "pricePerToken",
          "type": "uint256"
        },
        {
          "internalType": "address",
          "name": "currency",
          "type": "address"
        },
        {
          "internalType": "string",
          "name": "metadata",
          "type": "string"
        }
      ],
      "stateMutability": "view",
      "type": "function"
    },
    {
      "inputs": [],
      "name": "contractURI",
      "outputs": [
        {
          "internalType": "string",
          "name": "",
          "type": "string"
        }
      ],
      "stateMutability": "view",
      "type": "function"
    },
    {
      "inputs": [
        {
          "internalType": "bytes",
          "name": "data",
          "type": "bytes"
        },
        {
          "internalType": "bytes",
          "name": "key",
          "type": "bytes"
        }
      ],
      "name": "encryptDecrypt",
      "outputs": [
        {
          "internalType": "bytes",
          "name": "result",
          "type": "bytes"
        }
      ],
      "stateMutability": "pure",
      "type": "function"
    },
    {
      "inputs": [
        {
          "internalType": "uint256",
          "name": "",
          "type": "uint256"
        }
      ],
      "name": "encryptedData",
      "outputs": [
        {
          "internalType": "bytes",
          "name": "",
          "type": "bytes"
        }
      ],
      "stateMutability": "view",
      "type": "function"
    },
    {
      "inputs": [
        {
          "internalType": "uint256",
          "name": "tokenId",
          "type": "uint256"
        }
      ],
      "name": "getApproved",
      "outputs": [
        {
          "internalType": "address",
          "name": "",
          "type": "address"
        }
      ],
      "stateMutability": "view",
      "type": "function"
    },
    {
      "inputs": [],
      "name": "getBaseURICount",
      "outputs": [
        {
          "internalType": "uint256",
          "name": "",
          "type": "uint256"
        }
      ],
      "stateMutability": "view",
      "type": "function"
    },
    {
      "inputs": [
        {
          "internalType": "uint256",
          "name": "_index",
          "type": "uint256"
        }
      ],
      "name": "getBatchIdAtIndex",
      "outputs": [
        {
          "internalType": "uint256",
          "name": "",
          "type": "uint256"
        }
      ],
      "stateMutability": "view",
      "type": "function"
    },
    {
      "inputs": [],
      "name": "getDefaultRoyaltyInfo",
      "outputs": [
        {
          "internalType": "address",
          "name": "",
          "type": "address"
        },
        {
          "internalType": "uint16",
          "name": "",
          "type": "uint16"
        }
      ],
      "stateMutability": "view",
      "type": "function"
    },
    {
      "inputs": [
        {
          "internalType": "uint256",
          "name": "_batchId",
          "type": "uint256"
        },
        {
          "internalType": "bytes",
          "name": "_key",
          "type": "bytes"
        }
      ],
      "name": "getRevealURI",
      "outputs": [
        {
          "internalType": "string",
          "name": "revealedURI",
          "type": "string"
        }
      ],
      "stateMutability": "view",
      "type": "function"
    },
    {
      "inputs": [
        {
          "internalType": "uint256",
          "name": "_tokenId",
          "type": "uint256"
        }
      ],
      "name": "getRoyaltyInfoForToken",
      "outputs": [
        {
          "internalType": "address",
          "name": "",
          "type": "address"
        },
        {
          "internalType": "uint16",
          "name": "",
          "type": "uint16"
        }
      ],
      "stateMutability": "view",
      "type": "function"
    },
    {
      "inputs": [
        {
          "internalType": "address",
          "name": "_claimer",
          "type": "address"
        }
      ],
      "name": "getSupplyClaimedByWallet",
      "outputs": [
        {
          "internalType": "uint256",
          "name": "",
          "type": "uint256"
        }
      ],
      "stateMutability": "view",
      "type": "function"
    },
    {
      "inputs": [
        {
          "internalType": "address",
          "name": "owner",
          "type": "address"
        },
        {
          "internalType": "address",
          "name": "operator",
          "type": "address"
        }
      ],
      "name": "isApprovedForAll",
      "outputs": [
        {
          "internalType": "bool",
          "name": "",
          "type": "bool"
        }
      ],
      "stateMutability": "view",
      "type": "function"
    },
    {
      "inputs": [
        {
          "internalType": "uint256",
          "name": "_batchId",
          "type": "uint256"
        }
      ],
      "name": "isEncryptedBatch",
      "outputs": [
        {
          "internalType": "bool",
          "name": "",
          "type": "bool"
        }
      ],
      "stateMutability": "view",
      "type": "function"
    },
    {
      "inputs": [
        {
          "internalType": "bytes[]",
          "name": "data",
          "type": "bytes[]"
        }
      ],
      "name": "multicall",
      "outputs": [
        {
          "internalType": "bytes[]",
          "name": "results",
          "type": "bytes[]"
        }
      ],
      "stateMutability": "nonpayable",
      "type": "function"
    },
    {
      "inputs": [],
      "name": "name",
      "outputs": [
        {
          "internalType": "string",
          "name": "",
          "type": "string"
        }
      ],
      "stateMutability": "view",
      "type": "function"
    },
    {
      "inputs": [],
      "name": "owner",
      "outputs": [
        {
          "internalType": "address",
          "name": "",
          "type": "address"
        }
      ],
      "stateMutability": "view",
      "type": "function"
    },
    {
      "inputs": [
        {
          "internalType": "uint256",
          "name": "tokenId",
          "type": "uint256"
        }
      ],
      "name": "ownerOf",
      "outputs": [
        {
          "internalType": "address",
          "name": "",
          "type": "address"
        }
      ],
      "stateMutability": "view",
      "type": "function"
    },
    {
      "inputs": [],
      "name": "primarySaleRecipient",
      "outputs": [
        {
          "internalType": "address",
          "name": "",
          "type": "address"
        }
      ],
      "stateMutability": "view",
      "type": "function"
    },
    {
      "inputs": [
        {
          "internalType": "uint256",
          "name": "tokenId",
          "type": "uint256"
        },
        {
          "internalType": "uint256",
          "name": "salePrice",
          "type": "uint256"
        }
      ],
      "name": "royaltyInfo",
      "outputs": [
        {
          "internalType": "address",
          "name": "receiver",
          "type": "address"
        },
        {
          "internalType": "uint256",
          "name": "royaltyAmount",
          "type": "uint256"
        }
      ],
      "stateMutability": "view",
      "type": "function"
    },
    {
      "inputs": [
        {
          "internalType": "address",
          "name": "from",
          "type": "address"
        },
        {
          "internalType": "address",
          "name": "to",
          "type": "address"
        },
        {
          "internalType": "uint256",
          "name": "tokenId",
          "type": "uint256"
        }
      ],
      "name": "safeTransferFrom",
      "outputs": [],
      "stateMutability": "nonpayable",
      "type": "function"
    },
    {
      "inputs": [
        {
          "internalType": "address",
          "name": "from",
          "type": "address"
        },
        {
          "internalType": "address",
          "name": "to",
          "type": "address"
        },
        {
          "internalType": "uint256",
          "name": "tokenId",
          "type": "uint256"
        },
        {
          "internalType": "bytes",
          "name": "_data",
          "type": "bytes"
        }
      ],
      "name": "safeTransferFrom",
      "outputs": [],
      "stateMutability": "nonpayable",
      "type": "function"
    },
    {
      "inputs": [
        {
          "internalType": "address",
          "name": "operator",
          "type": "address"
        },
        {
          "internalType": "bool",
          "name": "approved",
          "type": "bool"
        }
      ],
      "name": "setApprovalForAll",
      "outputs": [],
      "stateMutability": "nonpayable",
      "type": "function"
    },
    {
      "inputs": [
        {
          "components": [
            {
              "internalType": "uint256",
              "name": "startTimestamp",
              "type": "uint256"
            },
            {
              "internalType": "uint256",
              "name": "maxClaimableSupply",
              "type": "uint256"
            },
            {
              "internalType": "uint256",
              "name": "supplyClaimed",
              "type": "uint256"
            },
            {
              "internalType": "uint256",
              "name": "quantityLimitPerWallet",
              "type": "uint256"
            },
            {
              "internalType": "bytes32",
              "name": "merkleRoot",
              "type": "bytes32"
            },
            {
              "internalType": "uint256",
              "name": "pricePerToken",
              "type": "uint256"
            },
            {
              "internalType": "address",
              "name": "currency",
              "type": "address"
            },
            {
              "internalType": "string",
              "name": "metadata",
              "type": "string"
            }
          ],
          "internalType": "struct IClaimCondition.ClaimCondition",
          "name": "_condition",
          "type": "tuple"
        },
        {
          "internalType": "bool",
          "name": "_resetClaimEligibility",
          "type": "bool"
        }
      ],
      "name": "setClaimConditions",
      "outputs": [],
      "stateMutability": "nonpayable",
      "type": "function"
    },
    {
      "inputs": [
        {
          "internalType": "string",
          "name": "_uri",
          "type": "string"
        }
      ],
      "name": "setContractURI",
      "outputs": [],
      "stateMutability": "nonpayable",
      "type": "function"
    },
    {
      "inputs": [
        {
          "internalType": "address",
          "name": "_royaltyRecipient",
          "type": "address"
        },
        {
          "internalType": "uint256",
          "name": "_royaltyBps",
          "type": "uint256"
        }
      ],
      "name": "setDefaultRoyaltyInfo",
      "outputs": [],
      "stateMutability": "nonpayable",
      "type": "function"
    },
    {
      "inputs": [
        {
          "internalType": "address",
          "name": "_newOwner",
          "type": "address"
        }
      ],
      "name": "setOwner",
      "outputs": [],
      "stateMutability": "nonpayable",
      "type": "function"
    },
    {
      "inputs": [
        {
          "internalType": "address",
          "name": "_saleRecipient",
          "type": "address"
        }
      ],
      "name": "setPrimarySaleRecipient",
      "outputs": [],
      "stateMutability": "nonpayable",
      "type": "function"
    },
    {
      "inputs": [
        {
          "internalType": "uint256",
          "name": "_tokenId",
          "type": "uint256"
        },
        {
          "internalType": "address",
          "name": "_recipient",
          "type": "address"
        },
        {
          "internalType": "uint256",
          "name": "_bps",
          "type": "uint256"
        }
      ],
      "name": "setRoyaltyInfoForToken",
      "outputs": [],
      "stateMutability": "nonpayable",
      "type": "function"
    },
    {
      "inputs": [],
      "name": "symbol",
      "outputs": [
        {
          "internalType": "string",
          "name": "",
          "type": "string"
        }
      ],
      "stateMutability": "view",
      "type": "function"
    },
    {
      "inputs": [],
      "name": "totalSupply",
      "outputs": [
        {
          "internalType": "uint256",
          "name": "",
          "type": "uint256"
        }
      ],
      "stateMutability": "view",
      "type": "function"
    },
    {
      "inputs": [
        {
          "internalType": "address",
          "name": "from",
          "type": "address"
        },
        {
          "internalType": "address",
          "name": "to",
          "type": "address"
        },
        {
          "internalType": "uint256",
          "name": "tokenId",
          "type": "uint256"
        }
      ],
      "name": "transferFrom",
      "outputs": [],
      "stateMutability": "nonpayable",
      "type": "function"
    },
    {
      "inputs": [
        {
          "internalType": "address",
          "name": "_claimer",
          "type": "address"
        },
        {
          "internalType": "uint256",
          "name": "_quantity",
          "type": "uint256"
        },
        {
          "internalType": "address",
          "name": "_currency",
          "type": "address"
        },
        {
          "internalType": "uint256",
          "name": "_pricePerToken",
          "type": "uint256"
        },
        {
          "components": [
            {
              "internalType": "bytes32[]",
              "name": "proof",
              "type": "bytes32[]"
            },
            {
              "internalType": "uint256",
              "name": "quantityLimitPerWallet",
              "type": "uint256"
            },
            {
              "internalType": "uint256",
              "name": "pricePerToken",
              "type": "uint256"
            },
            {
              "internalType": "address",
              "name": "currency",
              "type": "address"
            }
          ],
          "internalType": "struct IDropSinglePhase.AllowlistProof",
          "name": "_allowlistProof",
          "type": "tuple"
        }
      ],
      "name": "verifyClaim",
      "outputs": [
        {
          "internalType": "bool",
          "name": "isOverride",
          "type": "bool"
        }
      ],
      "stateMutability": "view",
      "type": "function"
    },
    {
      "inputs": [
        {
          "internalType": "bytes4",
          "name": "interfaceId",
          "type": "bytes4"
        }
      ],
      "name": "supportsInterface",
      "outputs": [
        {
          "internalType": "bool",
          "name": "",
          "type": "bool"
        }
      ],
      "stateMutability": "view",
      "type": "function"
    },
    {
      "inputs": [
        {
          "internalType": "uint256",
          "name": "_tokenId",
          "type": "uint256"
        }
      ],
      "name": "tokenURI",
      "outputs": [
        {
          "internalType": "string",
          "name": "",
          "type": "string"
        }
      ],
      "stateMutability": "view",
      "type": "function"
    },
    {
      "inputs": [
        {
          "internalType": "uint256",
          "name": "_amount",
          "type": "uint256"
        },
        {
          "internalType": "string",
          "name": "_baseURIForTokens",
          "type": "string"
        },
        {
          "internalType": "bytes",
          "name": "_data",
          "type": "bytes"
        }
      ],
      "name": "lazyMint",
      "outputs": [
        {
          "internalType": "uint256",
          "name": "batchId",
          "type": "uint256"
        }
      ],
      "stateMutability": "nonpayable",
      "type": "function"
    },
    {
      "inputs": [],
      "name": "nextTokenIdToMint",
      "outputs": [
        {
          "internalType": "uint256",
          "name": "",
          "type": "uint256"
        }
      ],
      "stateMutability": "view",
      "type": "function"
    },
    {
      "inputs": [],
      "name": "nextTokenIdToClaim",
      "outputs": [
        {
          "internalType": "uint256",
          "name": "",
          "type": "uint256"
        }
      ],
      "stateMutability": "view",
      "type": "function"
    },
    {
      "inputs": [
        {
          "internalType": "uint256",
          "name": "_index",
          "type": "uint256"
        },
        {
          "internalType": "bytes",
          "name": "_key",
          "type": "bytes"
        }
      ],
      "name": "reveal",
      "outputs": [
        {
          "internalType": "string",
          "name": "revealedURI",
          "type": "string"
        }
      ],
      "stateMutability": "nonpayable",
      "type": "function"
    },
    {
      "inputs": [
        {
          "internalType": "uint256",
          "name": "_tokenId",
          "type": "uint256"
        }
      ],
      "name": "burn",
      "outputs": [],
      "stateMutability": "nonpayable",
      "type": "function"
    }
  ],
  "bytecode": "0x60806040523480156200001157600080fd5b5060405162007a1e38038062007a1e83398181016040528101906200003791906200061f565b848481600290805190602001906200005192919062000320565b5080600390805190602001906200006a92919062000320565b506200007b620000d460201b60201c565b60008190555050506200009433620000d960201b60201c565b620000b883836fffffffffffffffffffffffffffffffff166200019f60201b60201c565b620000c9816200029960201b60201c565b505050505062000804565b600090565b6000600960009054906101000a900473ffffffffffffffffffffffffffffffffffffffff16905081600960006101000a81548173ffffffffffffffffffffffffffffffffffffffff021916908373ffffffffffffffffffffffffffffffffffffffff1602179055508173ffffffffffffffffffffffffffffffffffffffff168173ffffffffffffffffffffffffffffffffffffffff167f8292fce18fa69edf4db7b94ea2e58241df0ae57f97e0a6c9b29067028bf92d7660405160405180910390a35050565b612710811115620001e7576040517f08c379a0000000000000000000000000000000000000000000000000000000008152600401620001de9062000746565b60405180910390fd5b81600a60006101000a81548173ffffffffffffffffffffffffffffffffffffffff021916908373ffffffffffffffffffffffffffffffffffffffff16021790555080600a60146101000a81548161ffff021916908361ffff1602179055508173ffffffffffffffffffffffffffffffffffffffff167f90d7ec04bcb8978719414f82e52e4cb651db41d0e6f8cea6118c2191e6183adb826040516200028d919062000783565b60405180910390a25050565b80600e60006101000a81548173ffffffffffffffffffffffffffffffffffffffff021916908373ffffffffffffffffffffffffffffffffffffffff1602179055508073ffffffffffffffffffffffffffffffffffffffff167f299d17e95023f496e0ffc4909cff1a61f74bb5eb18de6f900f4155bfa1b3b33360405160405180910390a250565b8280546200032e90620007cf565b90600052602060002090601f0160209004810192826200035257600085556200039e565b82601f106200036d57805160ff19168380011785556200039e565b828001600101855582156200039e579182015b828111156200039d57825182559160200191906001019062000380565b5b509050620003ad9190620003b1565b5090565b5b80821115620003cc576000816000905550600101620003b2565b5090565b6000604051905090565b600080fd5b600080fd5b600080fd5b600080fd5b6000601f19601f8301169050919050565b7f4e487b7100000000000000000000000000000000000000000000000000000000600052604160045260246000fd5b6200043982620003ee565b810181811067ffffffffffffffff821117156200045b576200045a620003ff565b5b80604052505050565b600062000470620003d0565b90506200047e82826200042e565b919050565b600067ffffffffffffffff821115620004a157620004a0620003ff565b5b620004ac82620003ee565b9050602081019050919050565b60005b83811015620004d9578082015181840152602081019050620004bc565b83811115620004e9576000848401525b50505050565b600062000506620005008462000483565b62000464565b905082815260208101848484011115620005255762000524620003e9565b5b62000532848285620004b9565b509392505050565b600082601f830112620005525762000551620003e4565b5b815162000564848260208601620004ef565b91505092915050565b600073ffffffffffffffffffffffffffffffffffffffff82169050919050565b60006200059a826200056d565b9050919050565b620005ac816200058d565b8114620005b857600080fd5b50565b600081519050620005cc81620005a1565b92915050565b60006fffffffffffffffffffffffffffffffff82169050919050565b620005f981620005d2565b81146200060557600080fd5b50565b6000815190506200061981620005ee565b92915050565b600080600080600060a086880312156200063e576200063d620003da565b5b600086015167ffffffffffffffff8111156200065f576200065e620003df565b5b6200066d888289016200053a565b955050602086015167ffffffffffffffff811115620006915762000690620003df565b5b6200069f888289016200053a565b9450506040620006b288828901620005bb565b9350506060620006c58882890162000608565b9250506080620006d888828901620005bb565b9150509295509295909350565b600082825260208201905092915050565b7f45786365656473206d6178206270730000000000000000000000000000000000600082015250565b60006200072e600f83620006e5565b91506200073b82620006f6565b602082019050919050565b6000602082019050818103600083015262000761816200071f565b9050919050565b6000819050919050565b6200077d8162000768565b82525050565b60006020820190506200079a600083018462000772565b92915050565b7f4e487b7100000000000000000000000000000000000000000000000000000000600052602260045260246000fd5b60006002820490506001821680620007e857607f821691505b602082108103620007fe57620007fd620007a0565b5b50919050565b61720a80620008146000396000f3fe6080604052600436106102515760003560e01c806370a0823111610139578063acd083f8116100b6578063d37c353b1161007a578063d37c353b1461093a578063d637ed5914610977578063e7150322146109a9578063e8a3d485146109e6578063e985e9c514610a11578063eec8897c14610a4e57610251565b8063acd083f814610840578063b24f2d391461086b578063b88d4fde14610897578063c87b56dd146108c0578063ce805642146108fd57610251565b80639bcf7a15116100fd5780639bcf7a15146107375780639fc4d68f14610760578063a05112fc1461079d578063a22cb465146107da578063ac9650d81461080357610251565b806370a082311461065f57806384bb1e421461069c5780638da5cb5b146106b8578063938e3d7b146106e357806395d89b411461070c57610251565b806335b65e1f116101d2578063492e224b11610196578063492e224b1461052a5780634cc157df14610567578063600dd5ea146105a55780636352211e146105ce57806363b45e2d1461060b5780636f4f28371461063657610251565b806335b65e1f146104475780633b1475a714610484578063426cfaf3146104af57806342842e0e146104d857806342966c681461050157610251565b806313af40351161021957806313af40351461034f57806318160ddd1461037857806323b872dd146103a35780632419f51b146103cc5780632a55205a1461040957610251565b806301ffc9a71461025657806306fdde0314610293578063079fe40e146102be578063081812fc146102e9578063095ea7b314610326575b600080fd5b34801561026257600080fd5b5061027d60048036038101906102789190614e98565b610a8b565b60405161028a9190614ee0565b60405180910390f35b34801561029f57600080fd5b506102a8610b85565b6040516102b59190614f94565b60405180910390f35b3480156102ca57600080fd5b506102d3610c17565b6040516102e09190614ff7565b60405180910390f35b3480156102f557600080fd5b50610310600480360381019061030b9190615048565b610c41565b60405161031d9190614ff7565b60405180910390f35b34801561033257600080fd5b5061034d600480360381019061034891906150a1565b610cbd565b005b34801561035b57600080fd5b50610376600480360381019061037191906150e1565b610dc1565b005b34801561038457600080fd5b5061038d610e14565b60405161039a919061511d565b60405180910390f35b3480156103af57600080fd5b506103ca60048036038101906103c59190615138565b610e2b565b005b3480156103d857600080fd5b506103f360048036038101906103ee9190615048565b610e3b565b604051610400919061511d565b60405180910390f35b34801561041557600080fd5b50610430600480360381019061042b919061518b565b610eac565b60405161043e9291906151cb565b60405180910390f35b34801561045357600080fd5b5061046e600480360381019061046991906150e1565b610eea565b60405161047b919061511d565b60405180910390f35b34801561049057600080fd5b50610499610f46565b6040516104a6919061511d565b60405180910390f35b3480156104bb57600080fd5b506104d660048036038101906104d19190615245565b610f50565b005b3480156104e457600080fd5b506104ff60048036038101906104fa9190615138565b6111df565b005b34801561050d57600080fd5b5061052860048036038101906105239190615048565b6111ff565b005b34801561053657600080fd5b50610551600480360381019061054c9190615048565b61120d565b60405161055e9190614ee0565b60405180910390f35b34801561057357600080fd5b5061058e60048036038101906105899190615048565b611238565b60405161059c9291906152be565b60405180910390f35b3480156105b157600080fd5b506105cc60048036038101906105c791906150a1565b611343565b005b3480156105da57600080fd5b506105f560048036038101906105f09190615048565b611398565b6040516106029190614ff7565b60405180910390f35b34801561061757600080fd5b506106206113ae565b60405161062d919061511d565b60405180910390f35b34801561064257600080fd5b5061065d600480360381019061065891906150e1565b6113bb565b005b34801561066b57600080fd5b50610686600480360381019061068191906150e1565b61140e565b604051610693919061511d565b60405180910390f35b6106b660048036038101906106b1919061543b565b6114dd565b005b3480156106c457600080fd5b506106cd611631565b6040516106da9190614ff7565b60405180910390f35b3480156106ef57600080fd5b5061070a600480360381019061070591906155a1565b61165b565b005b34801561071857600080fd5b506107216116ae565b60405161072e9190614f94565b60405180910390f35b34801561074357600080fd5b5061075e600480360381019061075991906155ea565b611740565b005b34801561076c57600080fd5b506107876004803603810190610782919061569d565b611797565b6040516107949190614f94565b60405180910390f35b3480156107a957600080fd5b506107c460048036038101906107bf9190615048565b61191d565b6040516107d19190615752565b60405180910390f35b3480156107e657600080fd5b5061080160048036038101906107fc9190615774565b6119bd565b005b34801561080f57600080fd5b5061082a6004803603810190610825919061580a565b611b34565b6040516108379190615963565b60405180910390f35b34801561084c57600080fd5b50610855611c40565b604051610862919061511d565b60405180910390f35b34801561087757600080fd5b50610880611c49565b60405161088e9291906152be565b60405180910390f35b3480156108a357600080fd5b506108be60048036038101906108b99190615985565b611c88565b005b3480156108cc57600080fd5b506108e760048036038101906108e29190615048565b611d00565b6040516108f49190614f94565b60405180910390f35b34801561090957600080fd5b50610924600480360381019061091f919061569d565b611d88565b6040516109319190614f94565b60405180910390f35b34801561094657600080fd5b50610961600480360381019061095c9190615a5e565b611e4e565b60405161096e919061511d565b60405180910390f35b34801561098357600080fd5b5061098c611f00565b6040516109a0989796959493929190615b0c565b60405180910390f35b3480156109b557600080fd5b506109d060048036038101906109cb9190615b91565b611fde565b6040516109dd9190615752565b60405180910390f35b3480156109f257600080fd5b506109fb612068565b604051610a089190614f94565b60405180910390f35b348015610a1d57600080fd5b50610a386004803603810190610a339190615c0d565b6120f6565b604051610a459190614ee0565b60405180910390f35b348015610a5a57600080fd5b50610a756004803603810190610a709190615c4d565b61218a565b604051610a829190614ee0565b60405180910390f35b60006301ffc9a760e01b827bffffffffffffffffffffffffffffffffffffffffffffffffffffffff19161480610ae657506380ac58cd60e01b827bffffffffffffffffffffffffffffffffffffffffffffffffffffffff1916145b80610b165750635b5e139f60e01b827bffffffffffffffffffffffffffffffffffffffffffffffffffffffff1916145b80610b7e57507f2a55205a000000000000000000000000000000000000000000000000000000007bffffffffffffffffffffffffffffffffffffffffffffffffffffffff1916827bffffffffffffffffffffffffffffffffffffffffffffffffffffffff1916145b9050919050565b606060028054610b9490615d13565b80601f0160208091040260200160405190810160405280929190818152602001828054610bc090615d13565b8015610c0d5780601f10610be257610100808354040283529160200191610c0d565b820191906000526020600020905b815481529060010190602001808311610bf057829003601f168201915b5050505050905090565b6000600e60009054906101000a900473ffffffffffffffffffffffffffffffffffffffff16905090565b6000610c4c82612657565b610c82576040517fcf4700e400000000000000000000000000000000000000000000000000000000815260040160405180910390fd5b6006600083815260200190815260200160002060009054906101000a900473ffffffffffffffffffffffffffffffffffffffff169050919050565b6000610cc882611398565b90508073ffffffffffffffffffffffffffffffffffffffff168373ffffffffffffffffffffffffffffffffffffffff1603610d2f576040517f943f7b8c00000000000000000000000000000000000000000000000000000000815260040160405180910390fd5b8073ffffffffffffffffffffffffffffffffffffffff16610d4e6126a5565b73ffffffffffffffffffffffffffffffffffffffff1614610db157610d7a81610d756126a5565b6120f6565b610db0576040517fcfb3b94200000000000000000000000000000000000000000000000000000000815260040160405180910390fd5b5b610dbc8383836126ad565b505050565b610dc961275f565b610e08576040517f08c379a0000000000000000000000000000000000000000000000000000000008152600401610dff90615d90565b60405180910390fd5b610e118161279c565b50565b6000610e1e612862565b6001546000540303905090565b610e36838383612867565b505050565b6000610e456113ae565b8210610e86576040517f08c379a0000000000000000000000000000000000000000000000000000000008152600401610e7d90615dfc565b60405180910390fd5b600c8281548110610e9a57610e99615e1c565b5b90600052602060002001549050919050565b600080600080610ebb86611238565b61ffff16915091508193506127108186610ed59190615e7a565b610edf9190615f03565b925050509250929050565b6000601a6000601954815260200190815260200160002060008373ffffffffffffffffffffffffffffffffffffffff1673ffffffffffffffffffffffffffffffffffffffff168152602001908152602001600020549050919050565b6000600f54905090565b610f58612d1b565b610f97576040517f08c379a0000000000000000000000000000000000000000000000000000000008152600401610f8e90615d90565b60405180910390fd5b60006019549050600060116002015490508215610fe55760009050610fba612d58565b43604051602001610fcc929190615f9d565b6040516020818303038152906040528051906020012091505b836020013581111561102c576040517f08c379a000000000000000000000000000000000000000000000000000000000815260040161102390616015565b60405180910390fd5b604051806101000160405280856000013581526020018560200135815260200182815260200185606001358152602001856080013581526020018560a0013581526020018560c001602081019061108391906150e1565b73ffffffffffffffffffffffffffffffffffffffff168152602001858060e001906110ae9190616044565b8080601f016020809104026020016040519081016040528093929190818152602001838380828437600081840152601f19601f820116905080830192505050505050508152506011600082015181600001556020820151816001015560408201518160020155606082015181600301556080820151816004015560a0820151816005015560c08201518160060160006101000a81548173ffffffffffffffffffffffffffffffffffffffff021916908373ffffffffffffffffffffffffffffffffffffffff16021790555060e0820151816007019080519060200190611195929190614cc0565b50905050816019819055507f6dab9d7d05d468100139089b2516cb8ff286c3972ff070d3b509e371f0d0d4b884846040516111d19291906162e7565b60405180910390a150505050565b6111fa83838360405180602001604052806000815250611c88565b505050565b61120a816001612d60565b50565b60008060106000848152602001908152602001600020805461122e90615d13565b9050119050919050565b6000806000600b60008581526020019081526020016000206040518060400160405290816000820160009054906101000a900473ffffffffffffffffffffffffffffffffffffffff1673ffffffffffffffffffffffffffffffffffffffff1673ffffffffffffffffffffffffffffffffffffffff1681526020016001820154815250509050600073ffffffffffffffffffffffffffffffffffffffff16816000015173ffffffffffffffffffffffffffffffffffffffff16146113045780600001518160200151611339565b600a60009054906101000a900473ffffffffffffffffffffffffffffffffffffffff16600a60149054906101000a900461ffff165b9250925050915091565b61134b61314f565b61138a576040517f08c379a000000000000000000000000000000000000000000000000000000000815260040161138190615d90565b60405180910390fd5b611394828261318c565b5050565b60006113a382613281565b600001519050919050565b6000600c80549050905090565b6113c361350c565b611402576040517f08c379a00000000000000000000000000000000000000000000000000000000081526004016113f990615d90565b60405180910390fd5b61140b81613549565b50565b60008073ffffffffffffffffffffffffffffffffffffffff168273ffffffffffffffffffffffffffffffffffffffff1603611475576040517f8f4eb60400000000000000000000000000000000000000000000000000000000815260040160405180910390fd5b600560008373ffffffffffffffffffffffffffffffffffffffff1673ffffffffffffffffffffffffffffffffffffffff16815260200190815260200160002060000160009054906101000a900467ffffffffffffffff1667ffffffffffffffff169050919050565b6114eb8686868686866135d0565b600060195490506115066114fd612d58565b8787878761218a565b50856011600201600082825461151c9190616317565b9250508190555085601a60008381526020019081526020016000206000611541612d58565b73ffffffffffffffffffffffffffffffffffffffff1673ffffffffffffffffffffffffffffffffffffffff168152602001908152602001600020600082825461158a9190616317565b9250508190555061159e600087878761362a565b60006115aa8888613728565b9050808873ffffffffffffffffffffffffffffffffffffffff166115cc612d58565b73ffffffffffffffffffffffffffffffffffffffff167fff097c7d8b1957a4ff09ef1361b5fb54dcede3941ba836d0beb9d10bec725de68a604051611611919061511d565b60405180910390a461162788888888888861373e565b5050505050505050565b6000600960009054906101000a900473ffffffffffffffffffffffffffffffffffffffff16905090565b611663613746565b6116a2576040517f08c379a000000000000000000000000000000000000000000000000000000000815260040161169990615d90565b60405180910390fd5b6116ab81613783565b50565b6060600380546116bd90615d13565b80601f01602080910402602001604051908101604052809291908181526020018280546116e990615d13565b80156117365780601f1061170b57610100808354040283529160200191611736565b820191906000526020600020905b81548152906001019060200180831161171957829003601f168201915b5050505050905090565b61174861314f565b611787576040517f08c379a000000000000000000000000000000000000000000000000000000000815260040161177e90615d90565b60405180910390fd5b611792838383613866565b505050565b606060006010600086815260200190815260200160002080546117b990615d13565b80601f01602080910402602001604051908101604052809291908181526020018280546117e590615d13565b80156118325780601f1061180757610100808354040283529160200191611832565b820191906000526020600020905b81548152906001019060200180831161181557829003601f168201915b50505050509050600081510361187d576040517f08c379a0000000000000000000000000000000000000000000000000000000008152600401611874906163b9565b60405180910390fd5b60008082806020019051810190611894919061645e565b915091506118a3828787611fde565b935080848787466040516020016118bd9493929190616526565b6040516020818303038152906040528051906020012014611913576040517f08c379a000000000000000000000000000000000000000000000000000000000815260040161190a906165a9565b60405180910390fd5b5050509392505050565b6010602052806000526040600020600091509050805461193c90615d13565b80601f016020809104026020016040519081016040528092919081815260200182805461196890615d13565b80156119b55780601f1061198a576101008083540402835291602001916119b5565b820191906000526020600020905b81548152906001019060200180831161199857829003601f168201915b505050505081565b6119c56126a5565b73ffffffffffffffffffffffffffffffffffffffff168273ffffffffffffffffffffffffffffffffffffffff1603611a29576040517fb06307db00000000000000000000000000000000000000000000000000000000815260040160405180910390fd5b8060076000611a366126a5565b73ffffffffffffffffffffffffffffffffffffffff1673ffffffffffffffffffffffffffffffffffffffff16815260200190815260200160002060008473ffffffffffffffffffffffffffffffffffffffff1673ffffffffffffffffffffffffffffffffffffffff16815260200190815260200160002060006101000a81548160ff0219169083151502179055508173ffffffffffffffffffffffffffffffffffffffff16611ae36126a5565b73ffffffffffffffffffffffffffffffffffffffff167f17307eab39ab6107e8899845ad3d59bd9653f200f220920489ca2b5937696c3183604051611b289190614ee0565b60405180910390a35050565b60608282905067ffffffffffffffff811115611b5357611b52615310565b5b604051908082528060200260200182016040528015611b8657816020015b6060815260200190600190039081611b715790505b50905060005b83839050811015611c3957611c0830858584818110611bae57611bad615e1c565b5b9050602002810190611bc091906165c9565b8080601f016020809104026020016040519081016040528093929190818152602001838380828437600081840152601f19601f82011690508083019250505050505050613991565b828281518110611c1b57611c1a615e1c565b5b60200260200101819052508080611c319061662c565b915050611b8c565b5092915050565b60008054905090565b600080600a60009054906101000a900473ffffffffffffffffffffffffffffffffffffffff16600a60149054906101000a900461ffff16915091509091565b611c93848484612867565b611cb28373ffffffffffffffffffffffffffffffffffffffff166139be565b15611cfa57611cc3848484846139e1565b611cf9576040517fd1a57ed600000000000000000000000000000000000000000000000000000000815260040160405180910390fd5b5b50505050565b60606000611d0d83613b31565b5090506000611d1b84613c3f565b9050611d268261120d565b15611d545780604051602001611d3c91906166c0565b60405160208183030381529060405292505050611d83565b80611d5e85613de4565b604051602001611d6f9291906166e2565b604051602081830303815290604052925050505b919050565b6060611d92613f44565b611dd1576040517f08c379a0000000000000000000000000000000000000000000000000000000008152600401611dc890615d90565b60405180910390fd5b6000611ddc85610e3b565b9050611de9818585611797565b9150611e048160405180602001604052806000815250613f81565b611e0e8183613fad565b847f6df1d8db2a036436ffe0b2d1833f2c5f1e624818dfce2578c0faa4b83ef9998d83604051611e3e9190614f94565b60405180910390a2509392505050565b600080838390501115611ee8576000808484810190611e6d9190616706565b915091506000825114158015611e84575060008114155b15611ee557611ee488600f54611e9a9190616317565b86868080601f016020809104026020016040519081016040528093929190818152602001838380828437600081840152601f19601f82011690508083019250505050505050613f81565b5b50505b611ef58686868686613fd9565b905095945050505050565b60118060000154908060010154908060020154908060030154908060040154908060050154908060060160009054906101000a900473ffffffffffffffffffffffffffffffffffffffff1690806007018054611f5b90615d13565b80601f0160208091040260200160405190810160405280929190818152602001828054611f8790615d13565b8015611fd45780601f10611fa957610100808354040283529160200191611fd4565b820191906000526020600020905b815481529060010190602001808311611fb757829003601f168201915b5050505050905088565b6060600084519050604051915060208183010160405280825260005b8181101561205f57600085858360405160200161201993929190616762565b60405160208183030381529060405280519060200120905060006020830188015190508181189050806020840186015250506020816120589190616317565b9050611ffa565b50509392505050565b6008805461207590615d13565b80601f01602080910402602001604051908101604052809291908181526020018280546120a190615d13565b80156120ee5780601f106120c3576101008083540402835291602001916120ee565b820191906000526020600020905b8154815290600101906020018083116120d157829003601f168201915b505050505081565b6000600760008473ffffffffffffffffffffffffffffffffffffffff1673ffffffffffffffffffffffffffffffffffffffff16815260200190815260200160002060008373ffffffffffffffffffffffffffffffffffffffff1673ffffffffffffffffffffffffffffffffffffffff16815260200190815260200160002060009054906101000a900460ff16905092915050565b6000806011604051806101000160405290816000820154815260200160018201548152602001600282015481526020016003820154815260200160048201548152602001600582015481526020016006820160009054906101000a900473ffffffffffffffffffffffffffffffffffffffff1673ffffffffffffffffffffffffffffffffffffffff1673ffffffffffffffffffffffffffffffffffffffff16815260200160078201805461223d90615d13565b80601f016020809104026020016040519081016040528092919081815260200182805461226990615d13565b80156122b65780601f1061228b576101008083540402835291602001916122b6565b820191906000526020600020905b81548152906001019060200180831161229957829003601f168201915b505050505081525050905060008160600151905060008260a00151905060008360c0015190506000801b8460800151146123945761238e8680600001906122fd919061678c565b80806020026020016040519081016040528093929190818152602001838360200280828437600081840152601f19601f8201169050808301925050505050505085608001518c89602001358a604001358b606001602081019061236091906150e1565b60405160200161237394939291906167ef565b6040516020818303038152906040528051906020012061412a565b50809550505b84156124815760008660200135036123ac57826123b2565b85602001355b92507fffffffffffffffffffffffffffffffffffffffffffffffffffffffffffffffff8660400135036123e557816123eb565b85604001355b91507fffffffffffffffffffffffffffffffffffffffffffffffffffffffffffffffff8660400135141580156124605750600073ffffffffffffffffffffffffffffffffffffffff1686606001602081019061244791906150e1565b73ffffffffffffffffffffffffffffffffffffffff1614155b61246a578061247e565b85606001602081019061247d91906150e1565b5b90505b6000601a6000601954815260200190815260200160002060008c73ffffffffffffffffffffffffffffffffffffffff1673ffffffffffffffffffffffffffffffffffffffff1681526020019081526020016000205490508173ffffffffffffffffffffffffffffffffffffffff168973ffffffffffffffffffffffffffffffffffffffff161415806125135750828814155b15612553576040517f08c379a000000000000000000000000000000000000000000000000000000000815260040161254a90616889565b60405180910390fd5b60008a148061256c575083818b61256a9190616317565b115b156125ac576040517f08c379a00000000000000000000000000000000000000000000000000000000081526004016125a3906168f5565b60405180910390fd5b84602001518a86604001516125c19190616317565b1115612602576040517f08c379a00000000000000000000000000000000000000000000000000000000081526004016125f990616961565b60405180910390fd5b4285600001511115612649576040517f08c379a0000000000000000000000000000000000000000000000000000000008152600401612640906169cd565b60405180910390fd5b505050505095945050505050565b600081612662612862565b11158015612671575060005482105b801561269e575060046000838152602001908152602001600020600001601c9054906101000a900460ff16155b9050919050565b600033905090565b826006600084815260200190815260200160002060006101000a81548173ffffffffffffffffffffffffffffffffffffffff021916908373ffffffffffffffffffffffffffffffffffffffff160217905550818373ffffffffffffffffffffffffffffffffffffffff168273ffffffffffffffffffffffffffffffffffffffff167f8c5be1e5ebec7d5bd14f71427d1e84f3dd0314c0f7b2291e5b200ac8c7c3b92560405160405180910390a4505050565b6000612769611631565b73ffffffffffffffffffffffffffffffffffffffff163373ffffffffffffffffffffffffffffffffffffffff1614905090565b6000600960009054906101000a900473ffffffffffffffffffffffffffffffffffffffff16905081600960006101000a81548173ffffffffffffffffffffffffffffffffffffffff021916908373ffffffffffffffffffffffffffffffffffffffff1602179055508173ffffffffffffffffffffffffffffffffffffffff168173ffffffffffffffffffffffffffffffffffffffff167f8292fce18fa69edf4db7b94ea2e58241df0ae57f97e0a6c9b29067028bf92d7660405160405180910390a35050565b600090565b600061287282613281565b90508373ffffffffffffffffffffffffffffffffffffffff16816000015173ffffffffffffffffffffffffffffffffffffffff16146128dd576040517fa114810000000000000000000000000000000000000000000000000000000000815260040160405180910390fd5b60008473ffffffffffffffffffffffffffffffffffffffff166128fe6126a5565b73ffffffffffffffffffffffffffffffffffffffff16148061292d575061292c856129276126a5565b6120f6565b5b80612972575061293b6126a5565b73ffffffffffffffffffffffffffffffffffffffff1661295a84610c41565b73ffffffffffffffffffffffffffffffffffffffff16145b9050806129ab576040517f59c896be00000000000000000000000000000000000000000000000000000000815260040160405180910390fd5b600073ffffffffffffffffffffffffffffffffffffffff168473ffffffffffffffffffffffffffffffffffffffff1603612a11576040517fea553b3400000000000000000000000000000000000000000000000000000000815260040160405180910390fd5b612a1e8585856001614206565b612a2a600084876126ad565b6001600560008773ffffffffffffffffffffffffffffffffffffffff1673ffffffffffffffffffffffffffffffffffffffff16815260200190815260200160002060000160008282829054906101000a900467ffffffffffffffff160392506101000a81548167ffffffffffffffff021916908367ffffffffffffffff1602179055506001600560008673ffffffffffffffffffffffffffffffffffffffff1673ffffffffffffffffffffffffffffffffffffffff16815260200190815260200160002060000160008282829054906101000a900467ffffffffffffffff160192506101000a81548167ffffffffffffffff021916908367ffffffffffffffff1602179055506000600460008581526020019081526020016000209050848160000160006101000a81548173ffffffffffffffffffffffffffffffffffffffff021916908373ffffffffffffffffffffffffffffffffffffffff160217905550428160000160146101000a81548167ffffffffffffffff021916908367ffffffffffffffff16021790555060006001850190506000600460008381526020019081526020016000209050600073ffffffffffffffffffffffffffffffffffffffff168160000160009054906101000a900473ffffffffffffffffffffffffffffffffffffffff1673ffffffffffffffffffffffffffffffffffffffff1603612ca9576000548214612ca857878160000160006101000a81548173ffffffffffffffffffffffffffffffffffffffff021916908373ffffffffffffffffffffffffffffffffffffffff16021790555084602001518160000160146101000a81548167ffffffffffffffff021916908367ffffffffffffffff1602179055505b5b505050828473ffffffffffffffffffffffffffffffffffffffff168673ffffffffffffffffffffffffffffffffffffffff167fddf252ad1be2c89b69c2b068fc378daa952ba7f163c4a11628f55a4df523b3ef60405160405180910390a4612d14858585600161420c565b5050505050565b6000612d25611631565b73ffffffffffffffffffffffffffffffffffffffff163373ffffffffffffffffffffffffffffffffffffffff1614905090565b600033905090565b6000612d6b83613281565b90506000816000015190508215612e4c5760008173ffffffffffffffffffffffffffffffffffffffff16612d9d6126a5565b73ffffffffffffffffffffffffffffffffffffffff161480612dcc5750612dcb82612dc66126a5565b6120f6565b5b80612e115750612dda6126a5565b73ffffffffffffffffffffffffffffffffffffffff16612df986610c41565b73ffffffffffffffffffffffffffffffffffffffff16145b905080612e4a576040517f59c896be00000000000000000000000000000000000000000000000000000000815260040160405180910390fd5b505b612e5a816000866001614206565b612e66600085836126ad565b6000600560008373ffffffffffffffffffffffffffffffffffffffff1673ffffffffffffffffffffffffffffffffffffffff168152602001908152602001600020905060018160000160008282829054906101000a900467ffffffffffffffff160392506101000a81548167ffffffffffffffff021916908367ffffffffffffffff16021790555060018160000160108282829054906101000a900467ffffffffffffffff160192506101000a81548167ffffffffffffffff021916908367ffffffffffffffff1602179055506000600460008781526020019081526020016000209050828160000160006101000a81548173ffffffffffffffffffffffffffffffffffffffff021916908373ffffffffffffffffffffffffffffffffffffffff160217905550428160000160146101000a81548167ffffffffffffffff021916908367ffffffffffffffff160217905550600181600001601c6101000a81548160ff02191690831515021790555060006001870190506000600460008381526020019081526020016000209050600073ffffffffffffffffffffffffffffffffffffffff168160000160009054906101000a900473ffffffffffffffffffffffffffffffffffffffff1673ffffffffffffffffffffffffffffffffffffffff16036130c95760005482146130c857848160000160006101000a81548173ffffffffffffffffffffffffffffffffffffffff021916908373ffffffffffffffffffffffffffffffffffffffff16021790555085602001518160000160146101000a81548167ffffffffffffffff021916908367ffffffffffffffff1602179055505b5b5050505083600073ffffffffffffffffffffffffffffffffffffffff168273ffffffffffffffffffffffffffffffffffffffff167fddf252ad1be2c89b69c2b068fc378daa952ba7f163c4a11628f55a4df523b3ef60405160405180910390a461313781600086600161420c565b60016000815480929190600101919050555050505050565b6000613159611631565b73ffffffffffffffffffffffffffffffffffffffff163373ffffffffffffffffffffffffffffffffffffffff1614905090565b6127108111156131d1576040517f08c379a00000000000000000000000000000000000000000000000000000000081526004016131c890616a39565b60405180910390fd5b81600a60006101000a81548173ffffffffffffffffffffffffffffffffffffffff021916908373ffffffffffffffffffffffffffffffffffffffff16021790555080600a60146101000a81548161ffff021916908361ffff1602179055508173ffffffffffffffffffffffffffffffffffffffff167f90d7ec04bcb8978719414f82e52e4cb651db41d0e6f8cea6118c2191e6183adb82604051613275919061511d565b60405180910390a25050565b613289614d46565b600082905080613297612862565b116134d5576000548110156134d4576000600460008381526020019081526020016000206040518060600160405290816000820160009054906101000a900473ffffffffffffffffffffffffffffffffffffffff1673ffffffffffffffffffffffffffffffffffffffff1673ffffffffffffffffffffffffffffffffffffffff1681526020016000820160149054906101000a900467ffffffffffffffff1667ffffffffffffffff1667ffffffffffffffff16815260200160008201601c9054906101000a900460ff161515151581525050905080604001516134d257600073ffffffffffffffffffffffffffffffffffffffff16816000015173ffffffffffffffffffffffffffffffffffffffff16146133b6578092505050613507565b5b6001156134d157818060019003925050600460008381526020019081526020016000206040518060600160405290816000820160009054906101000a900473ffffffffffffffffffffffffffffffffffffffff1673ffffffffffffffffffffffffffffffffffffffff1673ffffffffffffffffffffffffffffffffffffffff1681526020016000820160149054906101000a900467ffffffffffffffff1667ffffffffffffffff1667ffffffffffffffff16815260200160008201601c9054906101000a900460ff1615151515815250509050600073ffffffffffffffffffffffffffffffffffffffff16816000015173ffffffffffffffffffffffffffffffffffffffff16146134cc578092505050613507565b6133b7565b5b505b5b6040517fdf2d9b4200000000000000000000000000000000000000000000000000000000815260040160405180910390fd5b919050565b6000613516611631565b73ffffffffffffffffffffffffffffffffffffffff163373ffffffffffffffffffffffffffffffffffffffff1614905090565b80600e60006101000a81548173ffffffffffffffffffffffffffffffffffffffff021916908373ffffffffffffffffffffffffffffffffffffffff1602179055508073ffffffffffffffffffffffffffffffffffffffff167f299d17e95023f496e0ffc4909cff1a61f74bb5eb18de6f900f4155bfa1b3b33360405160405180910390a250565b600f54856000546135e19190616317565b1115613622576040517f08c379a000000000000000000000000000000000000000000000000000000000815260040161361990616aa5565b60405180910390fd5b505050505050565b600081031561372257600081846136419190615e7a565b905073eeeeeeeeeeeeeeeeeeeeeeeeeeeeeeeeeeeeeeee73ffffffffffffffffffffffffffffffffffffffff168373ffffffffffffffffffffffffffffffffffffffff16036136cd578034146136cc576040517f08c379a00000000000000000000000000000000000000000000000000000000081526004016136c390616b11565b60405180910390fd5b5b60008073ffffffffffffffffffffffffffffffffffffffff168673ffffffffffffffffffffffffffffffffffffffff16146137085785613711565b613710610c17565b5b905061371f84338385614212565b50505b50505050565b6000805490506137388383614285565b92915050565b505050505050565b6000613750611631565b73ffffffffffffffffffffffffffffffffffffffff163373ffffffffffffffffffffffffffffffffffffffff1614905090565b60006008805461379290615d13565b80601f01602080910402602001604051908101604052809291908181526020018280546137be90615d13565b801561380b5780601f106137e05761010080835404028352916020019161380b565b820191906000526020600020905b8154815290600101906020018083116137ee57829003601f168201915b505050505090508160089080519060200190613828929190614cc0565b507fc9c7c3fe08b88b4df9d4d47ef47d2c43d55c025a0ba88ca442580ed9e7348a16818360405161385a929190616b31565b60405180910390a15050565b6127108111156138ab576040517f08c379a00000000000000000000000000000000000000000000000000000000081526004016138a290616a39565b60405180910390fd5b60405180604001604052808373ffffffffffffffffffffffffffffffffffffffff16815260200182815250600b600085815260200190815260200160002060008201518160000160006101000a81548173ffffffffffffffffffffffffffffffffffffffff021916908373ffffffffffffffffffffffffffffffffffffffff160217905550602082015181600101559050508173ffffffffffffffffffffffffffffffffffffffff16837f7365cf4122f072a3365c20d54eff9b38d73c096c28e1892ec8f5b0e403a0f12d83604051613984919061511d565b60405180910390a3505050565b60606139b683836040518060600160405280602781526020016171ae602791396142a3565b905092915050565b6000808273ffffffffffffffffffffffffffffffffffffffff163b119050919050565b60008373ffffffffffffffffffffffffffffffffffffffff1663150b7a02613a076126a5565b8786866040518563ffffffff1660e01b8152600401613a299493929190616b68565b6020604051808303816000875af1925050508015613a6557506040513d601f19601f82011682018060405250810190613a629190616bc9565b60015b613ade573d8060008114613a95576040519150601f19603f3d011682016040523d82523d6000602084013e613a9a565b606091505b506000815103613ad6576040517fd1a57ed600000000000000000000000000000000000000000000000000000000815260040160405180910390fd5b805181602001fd5b63150b7a0260e01b7bffffffffffffffffffffffffffffffffffffffffffffffffffffffff1916817bffffffffffffffffffffffffffffffffffffffffffffffffffffffff191614915050949350505050565b6000806000613b3e6113ae565b90506000600c805480602002602001604051908101604052809291908181526020018280548015613b8e57602002820191906000526020600020905b815481526020019060010190808311613b7a575b5050505050905060005b82811015613bfe57818181518110613bb357613bb2615e1c565b5b6020026020010151861015613bea57809350818181518110613bd857613bd7615e1c565b5b60200260200101519450505050613c3a565b600181613bf79190616317565b9050613b98565b506040517f08c379a0000000000000000000000000000000000000000000000000000000008152600401613c3190616c42565b60405180910390fd5b915091565b60606000613c4b6113ae565b90506000600c805480602002602001604051908101604052809291908181526020018280548015613c9b57602002820191906000526020600020905b815481526020019060010190808311613c87575b5050505050905060005b82811015613da357818181518110613cc057613cbf615e1c565b5b6020026020010151851015613d8f57600d6000838381518110613ce657613ce5615e1c565b5b602002602001015181526020019081526020016000208054613d0790615d13565b80601f0160208091040260200160405190810160405280929190818152602001828054613d3390615d13565b8015613d805780601f10613d5557610100808354040283529160200191613d80565b820191906000526020600020905b815481529060010190602001808311613d6357829003601f168201915b50505050509350505050613ddf565b600181613d9c9190616317565b9050613ca5565b506040517f08c379a0000000000000000000000000000000000000000000000000000000008152600401613dd690616c42565b60405180910390fd5b919050565b606060008203613e2b576040518060400160405280600181526020017f30000000000000000000000000000000000000000000000000000000000000008152509050613f3f565b600082905060005b60008214613e5d578080613e469061662c565b915050600a82613e569190615f03565b9150613e33565b60008167ffffffffffffffff811115613e7957613e78615310565b5b6040519080825280601f01601f191660200182016040528015613eab5781602001600182028036833780820191505090505b5090505b60008514613f3857600182613ec49190616c62565b9150600a85613ed39190616c96565b6030613edf9190616317565b60f81b818381518110613ef557613ef4615e1c565b5b60200101907effffffffffffffffffffffffffffffffffffffffffffffffffffffffffffff1916908160001a905350600a85613f319190615f03565b9450613eaf565b8093505050505b919050565b6000613f4e611631565b73ffffffffffffffffffffffffffffffffffffffff163373ffffffffffffffffffffffffffffffffffffffff1614905090565b80601060008481526020019081526020016000209080519060200190613fa8929190614d89565b505050565b80600d60008481526020019081526020016000209080519060200190613fd4929190614cc0565b505050565b6000613fe3614370565b614022576040517f08c379a000000000000000000000000000000000000000000000000000000000815260040161401990615d90565b60405180910390fd5b60008603614065576040517f08c379a000000000000000000000000000000000000000000000000000000000815260040161405c90616d13565b60405180910390fd5b6000600f5490506140bb818888888080601f016020809104026020016040519081016040528093929190818152602001838380828437600081840152601f19601f820116905080830192505050505050506143ad565b600f600082955083919050555050807f2a0365091ef1a40953c670dce28177e37520648a6fdc91506bffac0ab045570d600189846140f99190616317565b6141039190616c62565b88888888604051614118959493929190616d8d565b60405180910390a25095945050505050565b60008060008390506000805b87518110156141f35760028261414c9190615e7a565b9150600088828151811061416357614162615e1c565b5b602002602001015190508084116141a4578381604051602001614187929190616df7565b6040516020818303038152906040528051906020012093506141df565b80846040516020016141b7929190616df7565b6040516020818303038152906040528051906020012093506001836141dc9190616317565b92505b5080806141eb9061662c565b915050614136565b5085821481935093505050935093915050565b50505050565b50505050565b600081031561427f5773eeeeeeeeeeeeeeeeeeeeeeeeeeeeeeeeeeeeeeee73ffffffffffffffffffffffffffffffffffffffff168473ffffffffffffffffffffffffffffffffffffffff16036142715761426c828261441a565b61427e565b61427d848484846144cb565b5b5b50505050565b61429f828260405180602001604052806000815250614597565b5050565b60606142ae846139be565b6142ed576040517f08c379a00000000000000000000000000000000000000000000000000000000081526004016142e490616e95565b60405180910390fd5b6000808573ffffffffffffffffffffffffffffffffffffffff16856040516143159190616ee6565b600060405180830381855af49150503d8060008114614350576040519150601f19603f3d011682016040523d82523d6000602084013e614355565b606091505b5091509150614365828286614957565b925050509392505050565b600061437a611631565b73ffffffffffffffffffffffffffffffffffffffff163373ffffffffffffffffffffffffffffffffffffffff1614905090565b60008083856143bc9190616317565b9050809150600c81908060018154018082558091505060019003906000526020600020016000909190919091505582600d60008381526020019081526020016000209080519060200190614411929190614cc0565b50935093915050565b60008273ffffffffffffffffffffffffffffffffffffffff168260405161444090616f23565b60006040518083038185875af1925050503d806000811461447d576040519150601f19603f3d011682016040523d82523d6000602084013e614482565b606091505b50509050806144c6576040517f08c379a00000000000000000000000000000000000000000000000000000000081526004016144bd90616f84565b60405180910390fd5b505050565b8173ffffffffffffffffffffffffffffffffffffffff168373ffffffffffffffffffffffffffffffffffffffff160315614591573073ffffffffffffffffffffffffffffffffffffffff168373ffffffffffffffffffffffffffffffffffffffff16036145625761455d82828673ffffffffffffffffffffffffffffffffffffffff166149be9092919063ffffffff16565b614590565b61458f8383838773ffffffffffffffffffffffffffffffffffffffff16614a44909392919063ffffffff16565b5b5b50505050565b600080549050600073ffffffffffffffffffffffffffffffffffffffff168473ffffffffffffffffffffffffffffffffffffffff1603614603576040517f2e07630000000000000000000000000000000000000000000000000000000000815260040160405180910390fd5b6000830361463d576040517fb562e8dd00000000000000000000000000000000000000000000000000000000815260040160405180910390fd5b61464a6000858386614206565b82600560008673ffffffffffffffffffffffffffffffffffffffff1673ffffffffffffffffffffffffffffffffffffffff16815260200190815260200160002060000160008282829054906101000a900467ffffffffffffffff160192506101000a81548167ffffffffffffffff021916908367ffffffffffffffff16021790555082600560008673ffffffffffffffffffffffffffffffffffffffff1673ffffffffffffffffffffffffffffffffffffffff16815260200190815260200160002060000160088282829054906101000a900467ffffffffffffffff160192506101000a81548167ffffffffffffffff021916908367ffffffffffffffff160217905550836004600083815260200190815260200160002060000160006101000a81548173ffffffffffffffffffffffffffffffffffffffff021916908373ffffffffffffffffffffffffffffffffffffffff160217905550426004600083815260200190815260200160002060000160146101000a81548167ffffffffffffffff021916908367ffffffffffffffff16021790555060008190506000848201905061480b8673ffffffffffffffffffffffffffffffffffffffff166139be565b156148d0575b818673ffffffffffffffffffffffffffffffffffffffff16600073ffffffffffffffffffffffffffffffffffffffff167fddf252ad1be2c89b69c2b068fc378daa952ba7f163c4a11628f55a4df523b3ef60405160405180910390a461488060008784806001019550876139e1565b6148b6576040517fd1a57ed600000000000000000000000000000000000000000000000000000000815260040160405180910390fd5b8082106148115782600054146148cb57600080fd5b61493b565b5b818060010192508673ffffffffffffffffffffffffffffffffffffffff16600073ffffffffffffffffffffffffffffffffffffffff167fddf252ad1be2c89b69c2b068fc378daa952ba7f163c4a11628f55a4df523b3ef60405160405180910390a48082106148d1575b816000819055505050614951600085838661420c565b50505050565b60608315614967578290506149b7565b60008351111561497a5782518084602001fd5b816040517f08c379a00000000000000000000000000000000000000000000000000000000081526004016149ae9190614f94565b60405180910390fd5b9392505050565b614a3f8363a9059cbb60e01b84846040516024016149dd9291906151cb565b604051602081830303815290604052907bffffffffffffffffffffffffffffffffffffffffffffffffffffffff19166020820180517bffffffffffffffffffffffffffffffffffffffffffffffffffffffff8381831617835250505050614acd565b505050565b614ac7846323b872dd60e01b858585604051602401614a6593929190616fa4565b604051602081830303815290604052907bffffffffffffffffffffffffffffffffffffffffffffffffffffffff19166020820180517bffffffffffffffffffffffffffffffffffffffffffffffffffffffff8381831617835250505050614acd565b50505050565b6000614b2f826040518060400160405280602081526020017f5361666545524332303a206c6f772d6c6576656c2063616c6c206661696c65648152508573ffffffffffffffffffffffffffffffffffffffff16614b949092919063ffffffff16565b9050600081511115614b8f5780806020019051810190614b4f9190616ff0565b614b8e576040517f08c379a0000000000000000000000000000000000000000000000000000000008152600401614b859061708f565b60405180910390fd5b5b505050565b6060614ba38484600085614bac565b90509392505050565b606082471015614bf1576040517f08c379a0000000000000000000000000000000000000000000000000000000008152600401614be890617121565b60405180910390fd5b614bfa856139be565b614c39576040517f08c379a0000000000000000000000000000000000000000000000000000000008152600401614c309061718d565b60405180910390fd5b6000808673ffffffffffffffffffffffffffffffffffffffff168587604051614c629190616ee6565b60006040518083038185875af1925050503d8060008114614c9f576040519150601f19603f3d011682016040523d82523d6000602084013e614ca4565b606091505b5091509150614cb4828286614957565b92505050949350505050565b828054614ccc90615d13565b90600052602060002090601f016020900481019282614cee5760008555614d35565b82601f10614d0757805160ff1916838001178555614d35565b82800160010185558215614d35579182015b82811115614d34578251825591602001919060010190614d19565b5b509050614d429190614e0f565b5090565b6040518060600160405280600073ffffffffffffffffffffffffffffffffffffffff168152602001600067ffffffffffffffff1681526020016000151581525090565b828054614d9590615d13565b90600052602060002090601f016020900481019282614db75760008555614dfe565b82601f10614dd057805160ff1916838001178555614dfe565b82800160010185558215614dfe579182015b82811115614dfd578251825591602001919060010190614de2565b5b509050614e0b9190614e0f565b5090565b5b80821115614e28576000816000905550600101614e10565b5090565b6000604051905090565b600080fd5b600080fd5b60007fffffffff0000000000000000000000000000000000000000000000000000000082169050919050565b614e7581614e40565b8114614e8057600080fd5b50565b600081359050614e9281614e6c565b92915050565b600060208284031215614eae57614ead614e36565b5b6000614ebc84828501614e83565b91505092915050565b60008115159050919050565b614eda81614ec5565b82525050565b6000602082019050614ef56000830184614ed1565b92915050565b600081519050919050565b600082825260208201905092915050565b60005b83811015614f35578082015181840152602081019050614f1a565b83811115614f44576000848401525b50505050565b6000601f19601f8301169050919050565b6000614f6682614efb565b614f708185614f06565b9350614f80818560208601614f17565b614f8981614f4a565b840191505092915050565b60006020820190508181036000830152614fae8184614f5b565b905092915050565b600073ffffffffffffffffffffffffffffffffffffffff82169050919050565b6000614fe182614fb6565b9050919050565b614ff181614fd6565b82525050565b600060208201905061500c6000830184614fe8565b92915050565b6000819050919050565b61502581615012565b811461503057600080fd5b50565b6000813590506150428161501c565b92915050565b60006020828403121561505e5761505d614e36565b5b600061506c84828501615033565b91505092915050565b61507e81614fd6565b811461508957600080fd5b50565b60008135905061509b81615075565b92915050565b600080604083850312156150b8576150b7614e36565b5b60006150c68582860161508c565b92505060206150d785828601615033565b9150509250929050565b6000602082840312156150f7576150f6614e36565b5b60006151058482850161508c565b91505092915050565b61511781615012565b82525050565b6000602082019050615132600083018461510e565b92915050565b60008060006060848603121561515157615150614e36565b5b600061515f8682870161508c565b93505060206151708682870161508c565b925050604061518186828701615033565b9150509250925092565b600080604083850312156151a2576151a1614e36565b5b60006151b085828601615033565b92505060206151c185828601615033565b9150509250929050565b60006040820190506151e06000830185614fe8565b6151ed602083018461510e565b9392505050565b600080fd5b600061010082840312156152105761520f6151f4565b5b81905092915050565b61522281614ec5565b811461522d57600080fd5b50565b60008135905061523f81615219565b92915050565b6000806040838503121561525c5761525b614e36565b5b600083013567ffffffffffffffff81111561527a57615279614e3b565b5b615286858286016151f9565b925050602061529785828601615230565b9150509250929050565b600061ffff82169050919050565b6152b8816152a1565b82525050565b60006040820190506152d36000830185614fe8565b6152e060208301846152af565b9392505050565b6000608082840312156152fd576152fc6151f4565b5b81905092915050565b600080fd5b600080fd5b7f4e487b7100000000000000000000000000000000000000000000000000000000600052604160045260246000fd5b61534882614f4a565b810181811067ffffffffffffffff8211171561536757615366615310565b5b80604052505050565b600061537a614e2c565b9050615386828261533f565b919050565b600067ffffffffffffffff8211156153a6576153a5615310565b5b6153af82614f4a565b9050602081019050919050565b82818337600083830152505050565b60006153de6153d98461538b565b615370565b9050828152602081018484840111156153fa576153f961530b565b5b6154058482856153bc565b509392505050565b600082601f83011261542257615421615306565b5b81356154328482602086016153cb565b91505092915050565b60008060008060008060c0878903121561545857615457614e36565b5b600061546689828a0161508c565b965050602061547789828a01615033565b955050604061548889828a0161508c565b945050606061549989828a01615033565b935050608087013567ffffffffffffffff8111156154ba576154b9614e3b565b5b6154c689828a016152e7565b92505060a087013567ffffffffffffffff8111156154e7576154e6614e3b565b5b6154f389828a0161540d565b9150509295509295509295565b600067ffffffffffffffff82111561551b5761551a615310565b5b61552482614f4a565b9050602081019050919050565b600061554461553f84615500565b615370565b9050828152602081018484840111156155605761555f61530b565b5b61556b8482856153bc565b509392505050565b600082601f83011261558857615587615306565b5b8135615598848260208601615531565b91505092915050565b6000602082840312156155b7576155b6614e36565b5b600082013567ffffffffffffffff8111156155d5576155d4614e3b565b5b6155e184828501615573565b91505092915050565b60008060006060848603121561560357615602614e36565b5b600061561186828701615033565b93505060206156228682870161508c565b925050604061563386828701615033565b9150509250925092565b600080fd5b600080fd5b60008083601f84011261565d5761565c615306565b5b8235905067ffffffffffffffff81111561567a5761567961563d565b5b60208301915083600182028301111561569657615695615642565b5b9250929050565b6000806000604084860312156156b6576156b5614e36565b5b60006156c486828701615033565b935050602084013567ffffffffffffffff8111156156e5576156e4614e3b565b5b6156f186828701615647565b92509250509250925092565b600081519050919050565b600082825260208201905092915050565b6000615724826156fd565b61572e8185615708565b935061573e818560208601614f17565b61574781614f4a565b840191505092915050565b6000602082019050818103600083015261576c8184615719565b905092915050565b6000806040838503121561578b5761578a614e36565b5b60006157998582860161508c565b92505060206157aa85828601615230565b9150509250929050565b60008083601f8401126157ca576157c9615306565b5b8235905067ffffffffffffffff8111156157e7576157e661563d565b5b60208301915083602082028301111561580357615802615642565b5b9250929050565b6000806020838503121561582157615820614e36565b5b600083013567ffffffffffffffff81111561583f5761583e614e3b565b5b61584b858286016157b4565b92509250509250929050565b600081519050919050565b600082825260208201905092915050565b6000819050602082019050919050565b600082825260208201905092915050565b600061589f826156fd565b6158a98185615883565b93506158b9818560208601614f17565b6158c281614f4a565b840191505092915050565b60006158d98383615894565b905092915050565b6000602082019050919050565b60006158f982615857565b6159038185615862565b93508360208202850161591585615873565b8060005b85811015615951578484038952815161593285826158cd565b945061593d836158e1565b925060208a01995050600181019050615919565b50829750879550505050505092915050565b6000602082019050818103600083015261597d81846158ee565b905092915050565b6000806000806080858703121561599f5761599e614e36565b5b60006159ad8782880161508c565b94505060206159be8782880161508c565b93505060406159cf87828801615033565b925050606085013567ffffffffffffffff8111156159f0576159ef614e3b565b5b6159fc8782880161540d565b91505092959194509250565b60008083601f840112615a1e57615a1d615306565b5b8235905067ffffffffffffffff811115615a3b57615a3a61563d565b5b602083019150836001820283011115615a5757615a56615642565b5b9250929050565b600080600080600060608688031215615a7a57615a79614e36565b5b6000615a8888828901615033565b955050602086013567ffffffffffffffff811115615aa957615aa8614e3b565b5b615ab588828901615a08565b9450945050604086013567ffffffffffffffff811115615ad857615ad7614e3b565b5b615ae488828901615647565b92509250509295509295909350565b6000819050919050565b615b0681615af3565b82525050565b600061010082019050615b22600083018b61510e565b615b2f602083018a61510e565b615b3c604083018961510e565b615b49606083018861510e565b615b566080830187615afd565b615b6360a083018661510e565b615b7060c0830185614fe8565b81810360e0830152615b828184614f5b565b90509998505050505050505050565b600080600060408486031215615baa57615ba9614e36565b5b600084013567ffffffffffffffff811115615bc857615bc7614e3b565b5b615bd48682870161540d565b935050602084013567ffffffffffffffff811115615bf557615bf4614e3b565b5b615c0186828701615647565b92509250509250925092565b60008060408385031215615c2457615c23614e36565b5b6000615c328582860161508c565b9250506020615c438582860161508c565b9150509250929050565b600080600080600060a08688031215615c6957615c68614e36565b5b6000615c778882890161508c565b9550506020615c8888828901615033565b9450506040615c998882890161508c565b9350506060615caa88828901615033565b925050608086013567ffffffffffffffff811115615ccb57615cca614e3b565b5b615cd7888289016152e7565b9150509295509295909350565b7f4e487b7100000000000000000000000000000000000000000000000000000000600052602260045260246000fd5b60006002820490506001821680615d2b57607f821691505b602082108103615d3e57615d3d615ce4565b5b50919050565b7f4e6f7420617574686f72697a6564000000000000000000000000000000000000600082015250565b6000615d7a600e83614f06565b9150615d8582615d44565b602082019050919050565b60006020820190508181036000830152615da981615d6d565b9050919050565b7f496e76616c696420696e64657800000000000000000000000000000000000000600082015250565b6000615de6600d83614f06565b9150615df182615db0565b602082019050919050565b60006020820190508181036000830152615e1581615dd9565b9050919050565b7f4e487b7100000000000000000000000000000000000000000000000000000000600052603260045260246000fd5b7f4e487b7100000000000000000000000000000000000000000000000000000000600052601160045260246000fd5b6000615e8582615012565b9150615e9083615012565b9250817fffffffffffffffffffffffffffffffffffffffffffffffffffffffffffffffff0483118215151615615ec957615ec8615e4b565b5b828202905092915050565b7f4e487b7100000000000000000000000000000000000000000000000000000000600052601260045260246000fd5b6000615f0e82615012565b9150615f1983615012565b925082615f2957615f28615ed4565b5b828204905092915050565b60008160601b9050919050565b6000615f4c82615f34565b9050919050565b6000615f5e82615f41565b9050919050565b615f76615f7182614fd6565b615f53565b82525050565b6000819050919050565b615f97615f9282615012565b615f7c565b82525050565b6000615fa98285615f65565b601482019150615fb98284615f86565b6020820191508190509392505050565b7f6d617820737570706c7920636c61696d65640000000000000000000000000000600082015250565b6000615fff601283614f06565b915061600a82615fc9565b602082019050919050565b6000602082019050818103600083015261602e81615ff2565b9050919050565b600080fd5b600080fd5b600080fd5b6000808335600160200384360303811261606157616060616035565b5b80840192508235915067ffffffffffffffff8211156160835761608261603a565b5b60208301925060018202360383131561609f5761609e61603f565b5b509250929050565b60006160b66020840184615033565b905092915050565b6160c781615012565b82525050565b6160d681615af3565b81146160e157600080fd5b50565b6000813590506160f3816160cd565b92915050565b600061610860208401846160e4565b905092915050565b61611981615af3565b82525050565b600061612e602084018461508c565b905092915050565b61613f81614fd6565b82525050565b600080fd5b600080fd5b600080fd5b600080833560016020038436030381126161715761617061614f565b5b83810192508235915060208301925067ffffffffffffffff82111561619957616198616145565b5b6001820236038313156161af576161ae61614a565b5b509250929050565b600082825260208201905092915050565b60006161d483856161b7565b93506161e18385846153bc565b6161ea83614f4a565b840190509392505050565b6000610100830161620960008401846160a7565b61621660008601826160be565b5061622460208401846160a7565b61623160208601826160be565b5061623f60408401846160a7565b61624c60408601826160be565b5061625a60608401846160a7565b61626760608601826160be565b5061627560808401846160f9565b6162826080860182616110565b5061629060a08401846160a7565b61629d60a08601826160be565b506162ab60c084018461611f565b6162b860c0860182616136565b506162c660e0840184616154565b85830360e08701526162d98382846161c8565b925050508091505092915050565b6000604082019050818103600083015261630181856161f5565b90506163106020830184614ed1565b9392505050565b600061632282615012565b915061632d83615012565b9250827fffffffffffffffffffffffffffffffffffffffffffffffffffffffffffffffff0382111561636257616361615e4b565b5b828201905092915050565b7f4e6f7468696e6720746f2072657665616c000000000000000000000000000000600082015250565b60006163a3601183614f06565b91506163ae8261636d565b602082019050919050565b600060208201905081810360008301526163d281616396565b9050919050565b60006163ec6163e78461538b565b615370565b9050828152602081018484840111156164085761640761530b565b5b616413848285614f17565b509392505050565b600082601f8301126164305761642f615306565b5b81516164408482602086016163d9565b91505092915050565b600081519050616458816160cd565b92915050565b6000806040838503121561647557616474614e36565b5b600083015167ffffffffffffffff81111561649357616492614e3b565b5b61649f8582860161641b565b92505060206164b085828601616449565b9150509250929050565b600081905092915050565b60006164d082614efb565b6164da81856164ba565b93506164ea818560208601614f17565b80840191505092915050565b600081905092915050565b600061650d83856164f6565b935061651a8385846153bc565b82840190509392505050565b600061653282876164c5565b915061653f828587616501565b915061654b8284615f86565b60208201915081905095945050505050565b7f496e636f7272656374206b657900000000000000000000000000000000000000600082015250565b6000616593600d83614f06565b915061659e8261655d565b602082019050919050565b600060208201905081810360008301526165c281616586565b9050919050565b600080833560016020038436030381126165e6576165e5616035565b5b80840192508235915067ffffffffffffffff8211156166085761660761603a565b5b6020830192506001820236038313156166245761662361603f565b5b509250929050565b600061663782615012565b91507fffffffffffffffffffffffffffffffffffffffffffffffffffffffffffffffff820361666957616668615e4b565b5b600182019050919050565b7f3000000000000000000000000000000000000000000000000000000000000000600082015250565b60006166aa6001836164ba565b91506166b582616674565b600182019050919050565b60006166cc82846164c5565b91506166d78261669d565b915081905092915050565b60006166ee82856164c5565b91506166fa82846164c5565b91508190509392505050565b6000806040838503121561671d5761671c614e36565b5b600083013567ffffffffffffffff81111561673b5761673a614e3b565b5b6167478582860161540d565b9250506020616758858286016160e4565b9150509250929050565b600061676f828587616501565b915061677b8284615f86565b602082019150819050949350505050565b600080833560016020038436030381126167a9576167a8616035565b5b80840192508235915067ffffffffffffffff8211156167cb576167ca61603a565b5b6020830192506020820236038313156167e7576167e661603f565b5b509250929050565b60006167fb8287615f65565b60148201915061680b8286615f86565b60208201915061681b8285615f86565b60208201915061682b8284615f65565b60148201915081905095945050505050565b7f2150726963654f7243757272656e637900000000000000000000000000000000600082015250565b6000616873601083614f06565b915061687e8261683d565b602082019050919050565b600060208201905081810360008301526168a281616866565b9050919050565b7f2151747900000000000000000000000000000000000000000000000000000000600082015250565b60006168df600483614f06565b91506168ea826168a9565b602082019050919050565b6000602082019050818103600083015261690e816168d2565b9050919050565b7f214d6178537570706c7900000000000000000000000000000000000000000000600082015250565b600061694b600a83614f06565b915061695682616915565b602082019050919050565b6000602082019050818103600083015261697a8161693e565b9050919050565b7f63616e7420636c61696d20796574000000000000000000000000000000000000600082015250565b60006169b7600e83614f06565b91506169c282616981565b602082019050919050565b600060208201905081810360008301526169e6816169aa565b9050919050565b7f45786365656473206d6178206270730000000000000000000000000000000000600082015250565b6000616a23600f83614f06565b9150616a2e826169ed565b602082019050919050565b60006020820190508181036000830152616a5281616a16565b9050919050565b7f4e6f7420656e6f756768206d696e74656420746f6b656e730000000000000000600082015250565b6000616a8f601883614f06565b9150616a9a82616a59565b602082019050919050565b60006020820190508181036000830152616abe81616a82565b9050919050565b7f4d7573742073656e6420746f74616c2070726963650000000000000000000000600082015250565b6000616afb601583614f06565b9150616b0682616ac5565b602082019050919050565b60006020820190508181036000830152616b2a81616aee565b9050919050565b60006040820190508181036000830152616b4b8185614f5b565b90508181036020830152616b5f8184614f5b565b90509392505050565b6000608082019050616b7d6000830187614fe8565b616b8a6020830186614fe8565b616b97604083018561510e565b8181036060830152616ba98184615719565b905095945050505050565b600081519050616bc381614e6c565b92915050565b600060208284031215616bdf57616bde614e36565b5b6000616bed84828501616bb4565b91505092915050565b7f496e76616c696420746f6b656e49640000000000000000000000000000000000600082015250565b6000616c2c600f83614f06565b9150616c3782616bf6565b602082019050919050565b60006020820190508181036000830152616c5b81616c1f565b9050919050565b6000616c6d82615012565b9150616c7883615012565b925082821015616c8b57616c8a615e4b565b5b828203905092915050565b6000616ca182615012565b9150616cac83615012565b925082616cbc57616cbb615ed4565b5b828206905092915050565b7f3020616d74000000000000000000000000000000000000000000000000000000600082015250565b6000616cfd600583614f06565b9150616d0882616cc7565b602082019050919050565b60006020820190508181036000830152616d2c81616cf0565b9050919050565b6000616d3f8385614f06565b9350616d4c8385846153bc565b616d5583614f4a565b840190509392505050565b6000616d6c8385615708565b9350616d798385846153bc565b616d8283614f4a565b840190509392505050565b6000606082019050616da2600083018861510e565b8181036020830152616db5818688616d33565b90508181036040830152616dca818486616d60565b90509695505050505050565b6000819050919050565b616df1616dec82615af3565b616dd6565b82525050565b6000616e038285616de0565b602082019150616e138284616de0565b6020820191508190509392505050565b7f416464726573733a2064656c65676174652063616c6c20746f206e6f6e2d636f60008201527f6e74726163740000000000000000000000000000000000000000000000000000602082015250565b6000616e7f602683614f06565b9150616e8a82616e23565b604082019050919050565b60006020820190508181036000830152616eae81616e72565b9050919050565b6000616ec0826156fd565b616eca81856164f6565b9350616eda818560208601614f17565b80840191505092915050565b6000616ef28284616eb5565b915081905092915050565b50565b6000616f0d6000836164f6565b9150616f1882616efd565b600082019050919050565b6000616f2e82616f00565b9150819050919050565b7f6e617469766520746f6b656e207472616e73666572206661696c656400000000600082015250565b6000616f6e601c83614f06565b9150616f7982616f38565b602082019050919050565b60006020820190508181036000830152616f9d81616f61565b9050919050565b6000606082019050616fb96000830186614fe8565b616fc66020830185614fe8565b616fd3604083018461510e565b949350505050565b600081519050616fea81615219565b92915050565b60006020828403121561700657617005614e36565b5b600061701484828501616fdb565b91505092915050565b7f5361666545524332303a204552433230206f7065726174696f6e20646964206e60008201527f6f74207375636365656400000000000000000000000000000000000000000000602082015250565b6000617079602a83614f06565b91506170848261701d565b604082019050919050565b600060208201905081810360008301526170a88161706c565b9050919050565b7f416464726573733a20696e73756666696369656e742062616c616e636520666f60008201527f722063616c6c0000000000000000000000000000000000000000000000000000602082015250565b600061710b602683614f06565b9150617116826170af565b604082019050919050565b6000602082019050818103600083015261713a816170fe565b9050919050565b7f416464726573733a2063616c6c20746f206e6f6e2d636f6e7472616374000000600082015250565b6000617177601d83614f06565b915061718282617141565b602082019050919050565b600060208201905081810360008301526171a68161716a565b905091905056fe416464726573733a206c6f772d6c6576656c2064656c65676174652063616c6c206661696c6564a2646970667358221220901ad4b0e078f11bfabe199623521667100f88f051d8152264cba5c6aed989b764736f6c634300080e0033",
  "immutableReferences": {},
  "source": "// SPDX-License-Identifier: Apache-2.0\npragma solidity ^0.8.0;\n\nimport { ERC721A } from \"../eip/ERC721A.sol\";\n\nimport \"../extension/ContractMetadata.sol\";\nimport \"../extension/Multicall.sol\";\nimport \"../extension/Ownable.sol\";\nimport \"../extension/Royalty.sol\";\nimport \"../extension/BatchMintMetadata.sol\";\nimport \"../extension/PrimarySale.sol\";\nimport \"../extension/DropSinglePhase.sol\";\nimport \"../extension/LazyMint.sol\";\nimport \"../extension/DelayedReveal.sol\";\n\nimport \"../lib/TWStrings.sol\";\nimport \"../lib/CurrencyTransferLib.sol\";\n\n/**\n *      BASE:      ERC721A\n *      EXTENSION: DropSinglePhase\n *\n *  The `ERC721Drop` contract implements the ERC721 NFT standard, along with the ERC721A optimization to the standard.\n *  It includes the following additions to standard ERC721 logic:\n *\n *      - Contract metadata for royalty support on platforms such as OpenSea that use\n *        off-chain information to distribute roaylties.\n *\n *      - Ownership of the contract, with the ability to restrict certain functions to\n *        only be called by the contract's owner.\n *\n *      - Multicall capability to perform multiple actions atomically\n *\n *      - EIP 2981 compliance for royalty support on NFT marketplaces.\n *\n *  The `drop` mechanism in the `DropSinglePhase` extension is a distribution mechanism for lazy minted tokens. It lets\n *  you set restrictions such as a price to charge, an allowlist etc. when an address atttempts to mint lazy minted tokens.\n *\n *  The `ERC721Drop` contract lets you lazy mint tokens, and distribute those lazy minted tokens via the drop mechanism.\n */\n\ncontract ERC721Drop is\n    ERC721A,\n    ContractMetadata,\n    Multicall,\n    Ownable,\n    Royalty,\n    BatchMintMetadata,\n    PrimarySale,\n    LazyMint,\n    DelayedReveal,\n    DropSinglePhase\n{\n    using TWStrings for uint256;\n\n    /*///////////////////////////////////////////////////////////////\n                            Constructor\n    //////////////////////////////////////////////////////////////*/\n\n    constructor(\n        string memory _name,\n        string memory _symbol,\n        address _royaltyRecipient,\n        uint128 _royaltyBps,\n        address _primarySaleRecipient\n    ) ERC721A(_name, _symbol) {\n        _setupOwner(msg.sender);\n        _setupDefaultRoyaltyInfo(_royaltyRecipient, _royaltyBps);\n        _setupPrimarySaleRecipient(_primarySaleRecipient);\n    }\n\n    /*//////////////////////////////////////////////////////////////\n                            ERC165 Logic\n    //////////////////////////////////////////////////////////////*/\n\n    /// @dev See ERC165: https://eips.ethereum.org/EIPS/eip-165\n    function supportsInterface(bytes4 interfaceId) public view virtual override(ERC721A, IERC165) returns (bool) {\n        return\n            interfaceId == 0x01ffc9a7 || // ERC165 Interface ID for ERC165\n            interfaceId == 0x80ac58cd || // ERC165 Interface ID for ERC721\n            interfaceId == 0x5b5e139f || // ERC165 Interface ID for ERC721Metadata\n            interfaceId == type(IERC2981).interfaceId; // ERC165 ID for ERC2981\n    }\n\n    /*///////////////////////////////////////////////////////////////\n                    Overriden ERC 721 logic\n    //////////////////////////////////////////////////////////////*/\n\n    /**\n     *  @notice         Returns the metadata URI for an NFT.\n     *  @dev            See `BatchMintMetadata` for handling of metadata in this contract.\n     *\n     *  @param _tokenId The tokenId of an NFT.\n     */\n    function tokenURI(uint256 _tokenId) public view virtual override returns (string memory) {\n        (uint256 batchId, ) = _getBatchId(_tokenId);\n        string memory batchUri = _getBaseURI(_tokenId);\n\n        if (isEncryptedBatch(batchId)) {\n            return string(abi.encodePacked(batchUri, \"0\"));\n        } else {\n            return string(abi.encodePacked(batchUri, _tokenId.toString()));\n        }\n    }\n\n    /*///////////////////////////////////////////////////////////////\n                    Overriden lazy minting logic\n    //////////////////////////////////////////////////////////////*/\n\n    /**\n     *  @notice                  Lets an authorized address lazy mint a given amount of NFTs.\n     *\n     *  @param _amount           The number of NFTs to lazy mint.\n     *  @param _baseURIForTokens The placeholder base URI for the 'n' number of NFTs being lazy minted, where the\n     *                           metadata for each of those NFTs is `${baseURIForTokens}/${tokenId}`.\n     *  @param _data             The encrypted base URI + provenance hash for the batch of NFTs being lazy minted.\n     *  @return batchId          A unique integer identifier for the batch of NFTs lazy minted together.\n     */\n    function lazyMint(\n        uint256 _amount,\n        string calldata _baseURIForTokens,\n        bytes calldata _data\n    ) public override returns (uint256 batchId) {\n        if (_data.length > 0) {\n            (bytes memory encryptedURI, bytes32 provenanceHash) = abi.decode(_data, (bytes, bytes32));\n            if (encryptedURI.length != 0 && provenanceHash != \"\") {\n                _setEncryptedData(nextTokenIdToLazyMint + _amount, _data);\n            }\n        }\n\n        return LazyMint.lazyMint(_amount, _baseURIForTokens, _data);\n    }\n\n    /// @notice The tokenId assigned to the next new NFT to be lazy minted.\n    function nextTokenIdToMint() public view virtual returns (uint256) {\n        return nextTokenIdToLazyMint;\n    }\n\n    /// @notice The tokenId assigned to the next new NFT to be claimed.\n    function nextTokenIdToClaim() public view virtual returns (uint256) {\n        return _currentIndex;\n    }\n\n    /*///////////////////////////////////////////////////////////////\n                        Delayed reveal logic\n    //////////////////////////////////////////////////////////////*/\n\n    /**\n     *  @notice       Lets an authorized address reveal a batch of delayed reveal NFTs.\n     *\n     *  @param _index The ID for the batch of delayed-reveal NFTs to reveal.\n     *  @param _key   The key with which the base URI for the relevant batch of NFTs was encrypted.\n     */\n    function reveal(uint256 _index, bytes calldata _key) public virtual override returns (string memory revealedURI) {\n        require(_canReveal(), \"Not authorized\");\n\n        uint256 batchId = getBatchIdAtIndex(_index);\n        revealedURI = getRevealURI(batchId, _key);\n\n        _setEncryptedData(batchId, \"\");\n        _setBaseURI(batchId, revealedURI);\n\n        emit TokenURIRevealed(_index, revealedURI);\n    }\n\n    /*//////////////////////////////////////////////////////////////\n                        Minting/burning logic\n    //////////////////////////////////////////////////////////////*/\n\n    /**\n     *  @notice         Lets an owner or approved operator burn the NFT of the given tokenId.\n     *  @dev            ERC721A's `_burn(uint256,bool)` internally checks for token approvals.\n     *\n     *  @param _tokenId The tokenId of the NFT to burn.\n     */\n    function burn(uint256 _tokenId) external virtual {\n        _burn(_tokenId, true);\n    }\n\n    /*///////////////////////////////////////////////////////////////\n                        Internal functions\n    //////////////////////////////////////////////////////////////*/\n\n    /// @dev Runs before every `claim` function call.\n    function _beforeClaim(\n        address,\n        uint256 _quantity,\n        address,\n        uint256,\n        AllowlistProof calldata,\n        bytes memory\n    ) internal view virtual override {\n        if (_currentIndex + _quantity > nextTokenIdToLazyMint) {\n            revert(\"Not enough minted tokens\");\n        }\n    }\n\n    /// @dev Collects and distributes the primary sale value of NFTs being claimed.\n    function _collectPriceOnClaim(\n        address _primarySaleRecipient,\n        uint256 _quantityToClaim,\n        address _currency,\n        uint256 _pricePerToken\n    ) internal virtual override {\n        if (_pricePerToken == 0) {\n            return;\n        }\n\n        uint256 totalPrice = _quantityToClaim * _pricePerToken;\n\n        if (_currency == CurrencyTransferLib.NATIVE_TOKEN) {\n            if (msg.value != totalPrice) {\n                revert(\"Must send total price\");\n            }\n        }\n\n        address saleRecipient = _primarySaleRecipient == address(0) ? primarySaleRecipient() : _primarySaleRecipient;\n        CurrencyTransferLib.transferCurrency(_currency, msg.sender, saleRecipient, totalPrice);\n    }\n\n    /// @dev Transfers the NFTs being claimed.\n    function _transferTokensOnClaim(address _to, uint256 _quantityBeingClaimed)\n        internal\n        virtual\n        override\n        returns (uint256 startTokenId)\n    {\n        startTokenId = _currentIndex;\n        _safeMint(_to, _quantityBeingClaimed);\n    }\n\n    /// @dev Checks whether primary sale recipient can be set in the given execution context.\n    function _canSetPrimarySaleRecipient() internal view virtual override returns (bool) {\n        return msg.sender == owner();\n    }\n\n    /// @dev Checks whether owner can be set in the given execution context.\n    function _canSetOwner() internal view virtual override returns (bool) {\n        return msg.sender == owner();\n    }\n\n    /// @dev Checks whether royalty info can be set in the given execution context.\n    function _canSetRoyaltyInfo() internal view virtual override returns (bool) {\n        return msg.sender == owner();\n    }\n\n    /// @dev Checks whether contract metadata can be set in the given execution context.\n    function _canSetContractURI() internal view virtual override returns (bool) {\n        return msg.sender == owner();\n    }\n\n    /// @dev Checks whether platform fee info can be set in the given execution context.\n    function _canSetClaimConditions() internal view virtual override returns (bool) {\n        return msg.sender == owner();\n    }\n\n    /// @dev Returns whether lazy minting can be done in the given execution context.\n    function _canLazyMint() internal view virtual override returns (bool) {\n        return msg.sender == owner();\n    }\n\n    /// @dev Checks whether NFTs can be revealed in the given execution context.\n    function _canReveal() internal view virtual returns (bool) {\n        return msg.sender == owner();\n    }\n\n    /*///////////////////////////////////////////////////////////////\n                        Miscellaneous\n    //////////////////////////////////////////////////////////////*/\n\n    function _dropMsgSender() internal view virtual override returns (address) {\n        return msg.sender;\n    }\n}\n",
  "sourcePath": "@thirdweb-dev/contracts/base/ERC721Drop.sol",
  "compiler": {
    "name": "solc",
    "version": "0.8.14+commit.80d49f37.Emscripten.clang"
  },
  "schemaVersion": "3.4.7",
  "updatedAt": "2023-01-12T19:00:18.851Z",
  "devdoc": {
    "kind": "dev",
    "methods": {
      "approve(address,uint256)": {
        "details": "See {IERC721-approve}."
      },
      "balanceOf(address)": {
        "details": "See {IERC721-balanceOf}."
      },
      "burn(uint256)": {
        "details": "ERC721A's `_burn(uint256,bool)` internally checks for token approvals.",
        "params": {
          "_tokenId": "The tokenId of the NFT to burn."
        }
      },
      "claim(address,uint256,address,uint256,(bytes32[],uint256,uint256,address),bytes)": {
        "details": "Lets an account claim tokens."
      },
      "encryptDecrypt(bytes,bytes)": {
        "details": "Encrypt/decrypt given `data` with `key`. Uses inline assembly.                  See: https://ethereum.stackexchange.com/questions/69825/decrypt-message-on-chain",
        "params": {
          "data": "Bytes of data to encrypt/decrypt.",
          "key": "Secure key used by caller for encryption/decryption."
        },
        "returns": {
          "result": " Output after encryption/decryption of given data."
        }
      },
      "getApproved(uint256)": {
        "details": "See {IERC721-getApproved}."
      },
      "getBaseURICount()": {
        "details": "Each batch of tokens has an in ID and an associated `baseURI`.                  See {batchIds}."
      },
      "getBatchIdAtIndex(uint256)": {
        "details": "See {getBaseURICount}.",
        "params": {
          "_index": "ID of a token."
        }
      },
      "getRevealURI(uint256,bytes)": {
        "details": "Reveal encrypted base URI for `_batchId` with caller/admin's `_key` used for encryption.                      Reverts if there's no encrypted URI for `_batchId`.                      See {encryptDecrypt}.",
        "params": {
          "_batchId": "ID of the batch for which URI is being revealed.",
          "_key": "Secure key used by caller/admin for encryption of baseURI."
        },
        "returns": {
          "revealedURI": "Decrypted base URI."
        }
      },
      "getRoyaltyInfoForToken(uint256)": {
        "details": "Returns royalty recipient and bps for `_tokenId`.",
        "params": {
          "_tokenId": "The tokenID of the NFT for which to query royalty info."
        }
      },
      "getSupplyClaimedByWallet(address)": {
        "details": "Returns the supply claimed by claimer for active conditionId."
      },
      "isApprovedForAll(address,address)": {
        "details": "See {IERC721-isApprovedForAll}."
      },
      "isEncryptedBatch(uint256)": {
        "details": "Returns `true` if `_batchId`'s base URI is encrypted.",
        "params": {
          "_batchId": "ID of a batch of NFTs."
        }
      },
      "lazyMint(uint256,string,bytes)": {
        "params": {
          "_amount": "The number of NFTs to lazy mint.",
          "_baseURIForTokens": "The placeholder base URI for the 'n' number of NFTs being lazy minted, where the                           metadata for each of those NFTs is `${baseURIForTokens}/${tokenId}`.",
          "_data": "The encrypted base URI + provenance hash for the batch of NFTs being lazy minted."
        },
        "returns": {
          "batchId": "         A unique integer identifier for the batch of NFTs lazy minted together."
        }
      },
      "multicall(bytes[])": {
        "details": "Receives and executes a batch of function calls on this contract.",
        "params": {
          "data": "The bytes data that makes up the batch of function calls to execute."
        },
        "returns": {
          "results": "The bytes data that makes up the result of the batch of function calls executed."
        }
      },
      "name()": {
        "details": "See {IERC721Metadata-name}."
      },
      "ownerOf(uint256)": {
        "details": "See {IERC721-ownerOf}."
      },
      "primarySaleRecipient()": {
        "details": "Returns primary sale recipient address."
      },
      "reveal(uint256,bytes)": {
        "params": {
          "_index": "The ID for the batch of delayed-reveal NFTs to reveal.",
          "_key": "The key with which the base URI for the relevant batch of NFTs was encrypted."
        }
      },
      "royaltyInfo(uint256,uint256)": {
        "details": "Returns royalty amount and recipient for `tokenId` and `salePrice`.",
        "params": {
          "salePrice": "Sale price of the token.",
          "tokenId": "The tokenID of the NFT for which to query royalty info."
        },
        "returns": {
          "receiver": "       Address of royalty recipient account.",
          "royaltyAmount": "  Royalty amount calculated at current royaltyBps value."
        }
      },
      "safeTransferFrom(address,address,uint256)": {
        "details": "See {IERC721-safeTransferFrom}."
      },
      "safeTransferFrom(address,address,uint256,bytes)": {
        "details": "See {IERC721-safeTransferFrom}."
      },
      "setApprovalForAll(address,bool)": {
        "details": "See {IERC721-setApprovalForAll}."
      },
      "setClaimConditions((uint256,uint256,uint256,uint256,bytes32,uint256,address,string),bool)": {
        "details": "Lets a contract admin set claim conditions."
      },
      "setContractURI(string)": {
        "details": "Caller should be authorized to setup contractURI, e.g. contract admin.                  See {_canSetContractURI}.                  Emits {ContractURIUpdated Event}.",
        "params": {
          "_uri": "keccak256 hash of the role. e.g. keccak256(\"TRANSFER_ROLE\")"
        }
      },
      "setDefaultRoyaltyInfo(address,uint256)": {
        "details": "Caller should be authorized to set royalty info.                  See {_canSetRoyaltyInfo}.                  Emits {DefaultRoyalty Event}; See {_setupDefaultRoyaltyInfo}.",
        "params": {
          "_royaltyBps": "Updated royalty bps.",
          "_royaltyRecipient": "Address to be set as default royalty recipient."
        }
      },
      "setOwner(address)": {
        "params": {
          "_newOwner": "The address to set as the new owner of the contract."
        }
      },
      "setPrimarySaleRecipient(address)": {
        "details": "Caller should be authorized to set primary sales info.                  See {_canSetPrimarySaleRecipient}.                  Emits {PrimarySaleRecipientUpdated Event}; See {_setupPrimarySaleRecipient}.",
        "params": {
          "_saleRecipient": "Address to be set as new recipient of primary sales."
        }
      },
      "setRoyaltyInfoForToken(uint256,address,uint256)": {
        "details": "Sets royalty info for `_tokenId`. Caller should be authorized to set royalty info.                  See {_canSetRoyaltyInfo}.                  Emits {RoyaltyForToken Event}; See {_setupRoyaltyInfoForToken}.",
        "params": {
          "_bps": "Updated royalty bps for the token Id.",
          "_recipient": "Address to be set as royalty recipient for given token Id."
        }
      },
      "supportsInterface(bytes4)": {
        "details": "See ERC165: https://eips.ethereum.org/EIPS/eip-165"
      },
      "symbol()": {
        "details": "See {IERC721Metadata-symbol}."
      },
      "tokenURI(uint256)": {
        "details": "See `BatchMintMetadata` for handling of metadata in this contract.",
        "params": {
          "_tokenId": "The tokenId of an NFT."
        }
      },
      "totalSupply()": {
        "details": "Burned tokens are calculated here, use _totalMinted() if you want to count just minted tokens."
      },
      "transferFrom(address,address,uint256)": {
        "details": "See {IERC721-transferFrom}."
      },
      "verifyClaim(address,uint256,address,uint256,(bytes32[],uint256,uint256,address))": {
        "details": "Checks a request to claim NFTs against the active claim condition's criteria."
      }
    },
    "version": 1
  },
  "userdoc": {
    "errors": {
      "ApprovalCallerNotOwnerNorApproved()": [
        {
          "notice": "The caller must own the token or be an approved operator."
        }
      ],
      "ApprovalQueryForNonexistentToken()": [
        {
          "notice": "The token does not exist."
        }
      ],
      "ApprovalToCurrentOwner()": [
        {
          "notice": "The caller cannot approve to the current owner."
        }
      ],
      "ApproveToCaller()": [
        {
          "notice": "The caller cannot approve to their own address."
        }
      ],
      "BalanceQueryForZeroAddress()": [
        {
          "notice": "Cannot query the balance for the zero address."
        }
      ],
      "MintToZeroAddress()": [
        {
          "notice": "Cannot mint to the zero address."
        }
      ],
      "MintZeroQuantity()": [
        {
          "notice": "The quantity of tokens minted must be more than zero."
        }
      ],
      "OwnerQueryForNonexistentToken()": [
        {
          "notice": "The token does not exist."
        }
      ],
      "TransferCallerNotOwnerNorApproved()": [
        {
          "notice": "The caller must own the token or be an approved operator."
        }
      ],
      "TransferFromIncorrectOwner()": [
        {
          "notice": "The token must be owned by `from`."
        }
      ],
      "TransferToNonERC721ReceiverImplementer()": [
        {
          "notice": "Cannot safely transfer to a contract that does not implement the ERC721Receiver interface."
        }
      ],
      "TransferToZeroAddress()": [
        {
          "notice": "Cannot transfer to the zero address."
        }
      ],
      "URIQueryForNonexistentToken()": [
        {
          "notice": "The token does not exist."
        }
      ]
    },
    "events": {
      "ClaimConditionUpdated((uint256,uint256,uint256,uint256,bytes32,uint256,address,string),bool)": {
        "notice": "Emitted when the contract's claim conditions are updated."
      },
      "TokensClaimed(address,address,uint256,uint256)": {
        "notice": "Emitted when tokens are claimed via `claim`."
      }
    },
    "kind": "user",
    "methods": {
      "burn(uint256)": {
        "notice": "Lets an owner or approved operator burn the NFT of the given tokenId."
      },
      "contractURI()": {
        "notice": "Returns the contract metadata URI."
      },
      "encryptDecrypt(bytes,bytes)": {
        "notice": "Encrypt/decrypt data on chain."
      },
      "getBaseURICount()": {
        "notice": "Returns the count of batches of NFTs."
      },
      "getBatchIdAtIndex(uint256)": {
        "notice": "Returns the ID for the batch of tokens the given tokenId belongs to."
      },
      "getDefaultRoyaltyInfo()": {
        "notice": "Returns the defualt royalty recipient and BPS for this contract's NFTs."
      },
      "getRevealURI(uint256,bytes)": {
        "notice": "Returns revealed URI for a batch of NFTs."
      },
      "getRoyaltyInfoForToken(uint256)": {
        "notice": "View royalty info for a given token."
      },
      "isEncryptedBatch(uint256)": {
        "notice": "Returns whether the relvant batch of NFTs is subject to a delayed reveal."
      },
      "lazyMint(uint256,string,bytes)": {
        "notice": "Lets an authorized address lazy mint a given amount of NFTs."
      },
      "multicall(bytes[])": {
        "notice": "Receives and executes a batch of function calls on this contract."
      },
      "nextTokenIdToClaim()": {
        "notice": "The tokenId assigned to the next new NFT to be claimed."
      },
      "nextTokenIdToMint()": {
        "notice": "The tokenId assigned to the next new NFT to be lazy minted."
      },
      "owner()": {
        "notice": "Returns the owner of the contract."
      },
      "reveal(uint256,bytes)": {
        "notice": "Lets an authorized address reveal a batch of delayed reveal NFTs."
      },
      "royaltyInfo(uint256,uint256)": {
        "notice": "View royalty info for a given token and sale price."
      },
      "setContractURI(string)": {
        "notice": "Lets a contract admin set the URI for contract-level metadata."
      },
      "setDefaultRoyaltyInfo(address,uint256)": {
        "notice": "Updates default royalty recipient and bps."
      },
      "setOwner(address)": {
        "notice": "Lets an authorized wallet set a new owner for the contract."
      },
      "setPrimarySaleRecipient(address)": {
        "notice": "Updates primary sale recipient."
      },
      "setRoyaltyInfoForToken(uint256,address,uint256)": {
        "notice": "Updates default royalty recipient and bps for a particular token."
      },
      "tokenURI(uint256)": {
        "notice": "Returns the metadata URI for an NFT."
      }
    },
    "notice": "BASE:      ERC721A      EXTENSION: DropSinglePhase  The `ERC721Drop` contract implements the ERC721 NFT standard, along with the ERC721A optimization to the standard.  It includes the following additions to standard ERC721 logic:      - Contract metadata for royalty support on platforms such as OpenSea that use        off-chain information to distribute roaylties.      - Ownership of the contract, with the ability to restrict certain functions to        only be called by the contract's owner.      - Multicall capability to perform multiple actions atomically      - EIP 2981 compliance for royalty support on NFT marketplaces.  The `drop` mechanism in the `DropSinglePhase` extension is a distribution mechanism for lazy minted tokens. It lets  you set restrictions such as a price to charge, an allowlist etc. when an address atttempts to mint lazy minted tokens.  The `ERC721Drop` contract lets you lazy mint tokens, and distribute those lazy minted tokens via the drop mechanism.",
    "version": 1
  }
}