{
  "contractName": "FallenAngels",
  "abi": [
    {
      "inputs": [
        {
          "internalType": "string",
          "name": "_name",
          "type": "string"
        },
        {
          "internalType": "string",
          "name": "_symbol",
          "type": "string"
        },
        {
          "internalType": "address",
          "name": "_royaltyRecipient",
          "type": "address"
        },
        {
          "internalType": "uint128",
          "name": "_royaltyBps",
          "type": "uint128"
        },
        {
          "internalType": "address",
          "name": "_primarySaleRecipient",
          "type": "address"
        }
      ],
      "stateMutability": "nonpayable",
      "type": "constructor"
    },
    {
      "inputs": [],
      "name": "ApprovalCallerNotOwnerNorApproved",
      "type": "error"
    },
    {
      "inputs": [],
      "name": "ApprovalQueryForNonexistentToken",
      "type": "error"
    },
    {
      "inputs": [],
      "name": "ApprovalToCurrentOwner",
      "type": "error"
    },
    {
      "inputs": [],
      "name": "ApproveToCaller",
      "type": "error"
    },
    {
      "inputs": [],
      "name": "BalanceQueryForZeroAddress",
      "type": "error"
    },
    {
      "inputs": [],
      "name": "MintToZeroAddress",
      "type": "error"
    },
    {
      "inputs": [],
      "name": "MintZeroQuantity",
      "type": "error"
    },
    {
      "inputs": [
        {
          "internalType": "address",
          "name": "operator",
          "type": "address"
        }
      ],
      "name": "OperatorNotAllowed",
      "type": "error"
    },
    {
      "inputs": [],
      "name": "OwnerQueryForNonexistentToken",
      "type": "error"
    },
    {
      "inputs": [],
      "name": "TransferCallerNotOwnerNorApproved",
      "type": "error"
    },
    {
      "inputs": [],
      "name": "TransferFromIncorrectOwner",
      "type": "error"
    },
    {
      "inputs": [],
      "name": "TransferToNonERC721ReceiverImplementer",
      "type": "error"
    },
    {
      "inputs": [],
      "name": "TransferToZeroAddress",
      "type": "error"
    },
    {
      "inputs": [],
      "name": "URIQueryForNonexistentToken",
      "type": "error"
    },
    {
      "anonymous": false,
      "inputs": [
        {
          "indexed": true,
          "internalType": "address",
          "name": "owner",
          "type": "address"
        },
        {
          "indexed": true,
          "internalType": "address",
          "name": "approved",
          "type": "address"
        },
        {
          "indexed": true,
          "internalType": "uint256",
          "name": "tokenId",
          "type": "uint256"
        }
      ],
      "name": "Approval",
      "type": "event"
    },
    {
      "anonymous": false,
      "inputs": [
        {
          "indexed": true,
          "internalType": "address",
          "name": "owner",
          "type": "address"
        },
        {
          "indexed": true,
          "internalType": "address",
          "name": "operator",
          "type": "address"
        },
        {
          "indexed": false,
          "internalType": "bool",
          "name": "approved",
          "type": "bool"
        }
      ],
      "name": "ApprovalForAll",
      "type": "event"
    },
    {
      "anonymous": false,
      "inputs": [
        {
          "components": [
            {
              "internalType": "uint256",
              "name": "startTimestamp",
              "type": "uint256"
            },
            {
              "internalType": "uint256",
              "name": "maxClaimableSupply",
              "type": "uint256"
            },
            {
              "internalType": "uint256",
              "name": "supplyClaimed",
              "type": "uint256"
            },
            {
              "internalType": "uint256",
              "name": "quantityLimitPerWallet",
              "type": "uint256"
            },
            {
              "internalType": "bytes32",
              "name": "merkleRoot",
              "type": "bytes32"
            },
            {
              "internalType": "uint256",
              "name": "pricePerToken",
              "type": "uint256"
            },
            {
              "internalType": "address",
              "name": "currency",
              "type": "address"
            },
            {
              "internalType": "string",
              "name": "metadata",
              "type": "string"
            }
          ],
          "indexed": false,
          "internalType": "struct IClaimCondition.ClaimCondition",
          "name": "condition",
          "type": "tuple"
        },
        {
          "indexed": false,
          "internalType": "bool",
          "name": "resetEligibility",
          "type": "bool"
        }
      ],
      "name": "ClaimConditionUpdated",
      "type": "event"
    },
    {
      "anonymous": false,
      "inputs": [
        {
          "indexed": false,
          "internalType": "string",
          "name": "prevURI",
          "type": "string"
        },
        {
          "indexed": false,
          "internalType": "string",
          "name": "newURI",
          "type": "string"
        }
      ],
      "name": "ContractURIUpdated",
      "type": "event"
    },
    {
      "anonymous": false,
      "inputs": [
        {
          "indexed": true,
          "internalType": "address",
          "name": "newRoyaltyRecipient",
          "type": "address"
        },
        {
          "indexed": false,
          "internalType": "uint256",
          "name": "newRoyaltyBps",
          "type": "uint256"
        }
      ],
      "name": "DefaultRoyalty",
      "type": "event"
    },
    {
      "anonymous": false,
      "inputs": [
        {
          "indexed": false,
          "internalType": "bool",
          "name": "restriction",
          "type": "bool"
        }
      ],
      "name": "OperatorRestriction",
      "type": "event"
    },
    {
      "anonymous": false,
      "inputs": [
        {
          "indexed": true,
          "internalType": "address",
          "name": "prevOwner",
          "type": "address"
        },
        {
          "indexed": true,
          "internalType": "address",
          "name": "newOwner",
          "type": "address"
        }
      ],
      "name": "OwnerUpdated",
      "type": "event"
    },
    {
      "anonymous": false,
      "inputs": [
        {
          "indexed": true,
          "internalType": "address",
          "name": "recipient",
          "type": "address"
        }
      ],
      "name": "PrimarySaleRecipientUpdated",
      "type": "event"
    },
    {
      "anonymous": false,
      "inputs": [
        {
          "indexed": true,
          "internalType": "address",
          "name": "from",
          "type": "address"
        },
        {
          "indexed": true,
          "internalType": "uint256",
          "name": "tokenId",
          "type": "uint256"
        }
      ],
      "name": "Redeem",
      "type": "event"
    },
    {
      "anonymous": false,
      "inputs": [
        {
          "indexed": true,
          "internalType": "uint256",
          "name": "tokenId",
          "type": "uint256"
        },
        {
          "indexed": true,
          "internalType": "address",
          "name": "royaltyRecipient",
          "type": "address"
        },
        {
          "indexed": false,
          "internalType": "uint256",
          "name": "royaltyBps",
          "type": "uint256"
        }
      ],
      "name": "RoyaltyForToken",
      "type": "event"
    },
    {
      "anonymous": false,
      "inputs": [
        {
          "indexed": true,
          "internalType": "uint256",
          "name": "index",
          "type": "uint256"
        },
        {
          "indexed": false,
          "internalType": "string",
          "name": "revealedURI",
          "type": "string"
        }
      ],
      "name": "TokenURIRevealed",
      "type": "event"
    },
    {
      "anonymous": false,
      "inputs": [
        {
          "indexed": true,
          "internalType": "address",
          "name": "claimer",
          "type": "address"
        },
        {
          "indexed": true,
          "internalType": "address",
          "name": "receiver",
          "type": "address"
        },
        {
          "indexed": true,
          "internalType": "uint256",
          "name": "startTokenId",
          "type": "uint256"
        },
        {
          "indexed": false,
          "internalType": "uint256",
          "name": "quantityClaimed",
          "type": "uint256"
        }
      ],
      "name": "TokensClaimed",
      "type": "event"
    },
    {
      "anonymous": false,
      "inputs": [
        {
          "indexed": true,
          "internalType": "uint256",
          "name": "startTokenId",
          "type": "uint256"
        },
        {
          "indexed": false,
          "internalType": "uint256",
          "name": "endTokenId",
          "type": "uint256"
        },
        {
          "indexed": false,
          "internalType": "string",
          "name": "baseURI",
          "type": "string"
        },
        {
          "indexed": false,
          "internalType": "bytes",
          "name": "encryptedBaseURI",
          "type": "bytes"
        }
      ],
      "name": "TokensLazyMinted",
      "type": "event"
    },
    {
      "anonymous": false,
      "inputs": [
        {
          "indexed": true,
          "internalType": "address",
          "name": "from",
          "type": "address"
        },
        {
          "indexed": true,
          "internalType": "address",
          "name": "to",
          "type": "address"
        },
        {
          "indexed": true,
          "internalType": "uint256",
          "name": "tokenId",
          "type": "uint256"
        }
      ],
      "name": "Transfer",
      "type": "event"
    },
    {
      "inputs": [],
      "name": "OPERATOR_FILTER_REGISTRY",
      "outputs": [
        {
          "internalType": "contract IOperatorFilterRegistry",
          "name": "",
          "type": "address"
        }
      ],
      "stateMutability": "view",
      "type": "function"
    },
    {
      "inputs": [
        {
          "internalType": "address",
          "name": "to",
          "type": "address"
        },
        {
          "internalType": "uint256",
          "name": "tokenId",
          "type": "uint256"
        }
      ],
      "name": "approve",
      "outputs": [],
      "stateMutability": "nonpayable",
      "type": "function"
    },
    {
      "inputs": [
        {
          "internalType": "address",
          "name": "owner",
          "type": "address"
        }
      ],
      "name": "balanceOf",
      "outputs": [
        {
          "internalType": "uint256",
          "name": "",
          "type": "uint256"
        }
      ],
      "stateMutability": "view",
      "type": "function"
    },
    {
      "inputs": [
        {
          "internalType": "uint256",
          "name": "_tokenId",
          "type": "uint256"
        }
      ],
      "name": "burn",
      "outputs": [],
      "stateMutability": "nonpayable",
      "type": "function"
    },
    {
      "inputs": [
        {
          "internalType": "address",
          "name": "_receiver",
          "type": "address"
        },
        {
          "internalType": "uint256",
          "name": "_quantity",
          "type": "uint256"
        },
        {
          "internalType": "address",
          "name": "_currency",
          "type": "address"
        },
        {
          "internalType": "uint256",
          "name": "_pricePerToken",
          "type": "uint256"
        },
        {
          "components": [
            {
              "internalType": "bytes32[]",
              "name": "proof",
              "type": "bytes32[]"
            },
            {
              "internalType": "uint256",
              "name": "quantityLimitPerWallet",
              "type": "uint256"
            },
            {
              "internalType": "uint256",
              "name": "pricePerToken",
              "type": "uint256"
            },
            {
              "internalType": "address",
              "name": "currency",
              "type": "address"
            }
          ],
          "internalType": "struct IDropSinglePhase.AllowlistProof",
          "name": "_allowlistProof",
          "type": "tuple"
        },
        {
          "internalType": "bytes",
          "name": "_data",
          "type": "bytes"
        }
      ],
      "name": "claim",
      "outputs": [],
      "stateMutability": "payable",
      "type": "function"
    },
    {
      "inputs": [],
      "name": "claimCondition",
      "outputs": [
        {
          "internalType": "uint256",
          "name": "startTimestamp",
          "type": "uint256"
        },
        {
          "internalType": "uint256",
          "name": "maxClaimableSupply",
          "type": "uint256"
        },
        {
          "internalType": "uint256",
          "name": "supplyClaimed",
          "type": "uint256"
        },
        {
          "internalType": "uint256",
          "name": "quantityLimitPerWallet",
          "type": "uint256"
        },
        {
          "internalType": "bytes32",
          "name": "merkleRoot",
          "type": "bytes32"
        },
        {
          "internalType": "uint256",
          "name": "pricePerToken",
          "type": "uint256"
        },
        {
          "internalType": "address",
          "name": "currency",
          "type": "address"
        },
        {
          "internalType": "string",
          "name": "metadata",
          "type": "string"
        }
      ],
      "stateMutability": "view",
      "type": "function"
    },
    {
      "inputs": [],
      "name": "contractURI",
      "outputs": [
        {
          "internalType": "string",
          "name": "",
          "type": "string"
        }
      ],
      "stateMutability": "view",
      "type": "function"
    },
    {
      "inputs": [
        {
          "internalType": "bytes",
          "name": "data",
          "type": "bytes"
        },
        {
          "internalType": "bytes",
          "name": "key",
          "type": "bytes"
        }
      ],
      "name": "encryptDecrypt",
      "outputs": [
        {
          "internalType": "bytes",
          "name": "result",
          "type": "bytes"
        }
      ],
      "stateMutability": "pure",
      "type": "function"
    },
    {
      "inputs": [
        {
          "internalType": "uint256",
          "name": "",
          "type": "uint256"
        }
      ],
      "name": "encryptedData",
      "outputs": [
        {
          "internalType": "bytes",
          "name": "",
          "type": "bytes"
        }
      ],
      "stateMutability": "view",
      "type": "function"
    },
    {
      "inputs": [
        {
          "internalType": "uint256",
          "name": "tokenId",
          "type": "uint256"
        }
      ],
      "name": "getApproved",
      "outputs": [
        {
          "internalType": "address",
          "name": "",
          "type": "address"
        }
      ],
      "stateMutability": "view",
      "type": "function"
    },
    {
      "inputs": [],
      "name": "getBaseURICount",
      "outputs": [
        {
          "internalType": "uint256",
          "name": "",
          "type": "uint256"
        }
      ],
      "stateMutability": "view",
      "type": "function"
    },
    {
      "inputs": [
        {
          "internalType": "uint256",
          "name": "_index",
          "type": "uint256"
        }
      ],
      "name": "getBatchIdAtIndex",
      "outputs": [
        {
          "internalType": "uint256",
          "name": "",
          "type": "uint256"
        }
      ],
      "stateMutability": "view",
      "type": "function"
    },
    {
      "inputs": [],
      "name": "getDefaultRoyaltyInfo",
      "outputs": [
        {
          "internalType": "address",
          "name": "",
          "type": "address"
        },
        {
          "internalType": "uint16",
          "name": "",
          "type": "uint16"
        }
      ],
      "stateMutability": "view",
      "type": "function"
    },
    {
      "inputs": [
        {
          "internalType": "address",
          "name": "_owner",
          "type": "address"
        }
      ],
      "name": "getMineWithMetadata",
      "outputs": [
        {
          "components": [
            {
              "internalType": "uint256",
              "name": "id",
              "type": "uint256"
            },
            {
              "internalType": "string",
              "name": "tokenURI",
              "type": "string"
            },
            {
              "internalType": "bool",
              "name": "redeemed",
              "type": "bool"
            }
          ],
          "internalType": "struct LiquidCollections.Redeemey[]",
          "name": "",
          "type": "tuple[]"
        }
      ],
      "stateMutability": "view",
      "type": "function"
    },
    {
      "inputs": [
        {
          "internalType": "uint256",
          "name": "_batchId",
          "type": "uint256"
        },
        {
          "internalType": "bytes",
          "name": "_key",
          "type": "bytes"
        }
      ],
      "name": "getRevealURI",
      "outputs": [
        {
          "internalType": "string",
          "name": "revealedURI",
          "type": "string"
        }
      ],
      "stateMutability": "view",
      "type": "function"
    },
    {
      "inputs": [
        {
          "internalType": "uint256",
          "name": "_tokenId",
          "type": "uint256"
        }
      ],
      "name": "getRoyaltyInfoForToken",
      "outputs": [
        {
          "internalType": "address",
          "name": "",
          "type": "address"
        },
        {
          "internalType": "uint16",
          "name": "",
          "type": "uint16"
        }
      ],
      "stateMutability": "view",
      "type": "function"
    },
    {
      "inputs": [
        {
          "internalType": "address",
          "name": "_claimer",
          "type": "address"
        }
      ],
      "name": "getSupplyClaimedByWallet",
      "outputs": [
        {
          "internalType": "uint256",
          "name": "",
          "type": "uint256"
        }
      ],
      "stateMutability": "view",
      "type": "function"
    },
    {
      "inputs": [
        {
          "internalType": "address",
          "name": "owner",
          "type": "address"
        },
        {
          "internalType": "address",
          "name": "operator",
          "type": "address"
        }
      ],
      "name": "isApprovedForAll",
      "outputs": [
        {
          "internalType": "bool",
          "name": "",
          "type": "bool"
        }
      ],
      "stateMutability": "view",
      "type": "function"
    },
    {
      "inputs": [
        {
          "internalType": "uint256",
          "name": "_batchId",
          "type": "uint256"
        }
      ],
      "name": "isEncryptedBatch",
      "outputs": [
        {
          "internalType": "bool",
          "name": "",
          "type": "bool"
        }
      ],
      "stateMutability": "view",
      "type": "function"
    },
    {
      "inputs": [
        {
          "internalType": "uint256",
          "name": "tokenId",
          "type": "uint256"
        }
      ],
      "name": "isRedeemable",
      "outputs": [
        {
          "internalType": "bool",
          "name": "",
          "type": "bool"
        }
      ],
      "stateMutability": "view",
      "type": "function"
    },
    {
      "inputs": [
        {
          "internalType": "uint256",
          "name": "_amount",
          "type": "uint256"
        },
        {
          "internalType": "string",
          "name": "_baseURIForTokens",
          "type": "string"
        },
        {
          "internalType": "bytes",
          "name": "_data",
          "type": "bytes"
        }
      ],
      "name": "lazyMint",
      "outputs": [
        {
          "internalType": "uint256",
          "name": "batchId",
          "type": "uint256"
        }
      ],
      "stateMutability": "nonpayable",
      "type": "function"
    },
    {
      "inputs": [
        {
          "internalType": "bytes[]",
          "name": "data",
          "type": "bytes[]"
        }
      ],
      "name": "multicall",
      "outputs": [
        {
          "internalType": "bytes[]",
          "name": "results",
          "type": "bytes[]"
        }
      ],
      "stateMutability": "nonpayable",
      "type": "function"
    },
    {
      "inputs": [],
      "name": "name",
      "outputs": [
        {
          "internalType": "string",
          "name": "",
          "type": "string"
        }
      ],
      "stateMutability": "view",
      "type": "function"
    },
    {
      "inputs": [],
      "name": "nextTokenIdToClaim",
      "outputs": [
        {
          "internalType": "uint256",
          "name": "",
          "type": "uint256"
        }
      ],
      "stateMutability": "view",
      "type": "function"
    },
    {
      "inputs": [],
      "name": "nextTokenIdToMint",
      "outputs": [
        {
          "internalType": "uint256",
          "name": "",
          "type": "uint256"
        }
      ],
      "stateMutability": "view",
      "type": "function"
    },
    {
      "inputs": [],
      "name": "operatorRestriction",
      "outputs": [
        {
          "internalType": "bool",
          "name": "",
          "type": "bool"
        }
      ],
      "stateMutability": "view",
      "type": "function"
    },
    {
      "inputs": [],
      "name": "owner",
      "outputs": [
        {
          "internalType": "address",
          "name": "",
          "type": "address"
        }
      ],
      "stateMutability": "view",
      "type": "function"
    },
    {
      "inputs": [
        {
          "internalType": "uint256",
          "name": "tokenId",
          "type": "uint256"
        }
      ],
      "name": "ownerOf",
      "outputs": [
        {
          "internalType": "address",
          "name": "",
          "type": "address"
        }
      ],
      "stateMutability": "view",
      "type": "function"
    },
    {
      "inputs": [],
      "name": "primarySaleRecipient",
      "outputs": [
        {
          "internalType": "address",
          "name": "",
          "type": "address"
        }
      ],
      "stateMutability": "view",
      "type": "function"
    },
    {
      "inputs": [
        {
          "internalType": "uint256",
          "name": "tokenId",
          "type": "uint256"
        }
      ],
      "name": "redeem",
      "outputs": [],
      "stateMutability": "nonpayable",
      "type": "function"
    },
    {
      "inputs": [
        {
          "internalType": "uint256",
          "name": "_index",
          "type": "uint256"
        },
        {
          "internalType": "bytes",
          "name": "_key",
          "type": "bytes"
        }
      ],
      "name": "reveal",
      "outputs": [
        {
          "internalType": "string",
          "name": "revealedURI",
          "type": "string"
        }
      ],
      "stateMutability": "nonpayable",
      "type": "function"
    },
    {
      "inputs": [
        {
          "internalType": "uint256",
          "name": "tokenId",
          "type": "uint256"
        },
        {
          "internalType": "uint256",
          "name": "salePrice",
          "type": "uint256"
        }
      ],
      "name": "royaltyInfo",
      "outputs": [
        {
          "internalType": "address",
          "name": "receiver",
          "type": "address"
        },
        {
          "internalType": "uint256",
          "name": "royaltyAmount",
          "type": "uint256"
        }
      ],
      "stateMutability": "view",
      "type": "function"
    },
    {
      "inputs": [
        {
          "internalType": "address",
          "name": "from",
          "type": "address"
        },
        {
          "internalType": "address",
          "name": "to",
          "type": "address"
        },
        {
          "internalType": "uint256",
          "name": "tokenId",
          "type": "uint256"
        }
      ],
      "name": "safeTransferFrom",
      "outputs": [],
      "stateMutability": "nonpayable",
      "type": "function"
    },
    {
      "inputs": [
        {
          "internalType": "address",
          "name": "from",
          "type": "address"
        },
        {
          "internalType": "address",
          "name": "to",
          "type": "address"
        },
        {
          "internalType": "uint256",
          "name": "tokenId",
          "type": "uint256"
        },
        {
          "internalType": "bytes",
          "name": "data",
          "type": "bytes"
        }
      ],
      "name": "safeTransferFrom",
      "outputs": [],
      "stateMutability": "nonpayable",
      "type": "function"
    },
    {
      "inputs": [
        {
          "internalType": "address",
          "name": "operator",
          "type": "address"
        },
        {
          "internalType": "bool",
          "name": "approved",
          "type": "bool"
        }
      ],
      "name": "setApprovalForAll",
      "outputs": [],
      "stateMutability": "nonpayable",
      "type": "function"
    },
    {
      "inputs": [
        {
          "components": [
            {
              "internalType": "uint256",
              "name": "startTimestamp",
              "type": "uint256"
            },
            {
              "internalType": "uint256",
              "name": "maxClaimableSupply",
              "type": "uint256"
            },
            {
              "internalType": "uint256",
              "name": "supplyClaimed",
              "type": "uint256"
            },
            {
              "internalType": "uint256",
              "name": "quantityLimitPerWallet",
              "type": "uint256"
            },
            {
              "internalType": "bytes32",
              "name": "merkleRoot",
              "type": "bytes32"
            },
            {
              "internalType": "uint256",
              "name": "pricePerToken",
              "type": "uint256"
            },
            {
              "internalType": "address",
              "name": "currency",
              "type": "address"
            },
            {
              "internalType": "string",
              "name": "metadata",
              "type": "string"
            }
          ],
          "internalType": "struct IClaimCondition.ClaimCondition",
          "name": "_condition",
          "type": "tuple"
        },
        {
          "internalType": "bool",
          "name": "_resetClaimEligibility",
          "type": "bool"
        }
      ],
      "name": "setClaimConditions",
      "outputs": [],
      "stateMutability": "nonpayable",
      "type": "function"
    },
    {
      "inputs": [
        {
          "internalType": "string",
          "name": "_uri",
          "type": "string"
        }
      ],
      "name": "setContractURI",
      "outputs": [],
      "stateMutability": "nonpayable",
      "type": "function"
    },
    {
      "inputs": [
        {
          "internalType": "address",
          "name": "_royaltyRecipient",
          "type": "address"
        },
        {
          "internalType": "uint256",
          "name": "_royaltyBps",
          "type": "uint256"
        }
      ],
      "name": "setDefaultRoyaltyInfo",
      "outputs": [],
      "stateMutability": "nonpayable",
      "type": "function"
    },
    {
      "inputs": [
        {
          "internalType": "bool",
          "name": "_restriction",
          "type": "bool"
        }
      ],
      "name": "setOperatorRestriction",
      "outputs": [],
      "stateMutability": "nonpayable",
      "type": "function"
    },
    {
      "inputs": [
        {
          "internalType": "address",
          "name": "_newOwner",
          "type": "address"
        }
      ],
      "name": "setOwner",
      "outputs": [],
      "stateMutability": "nonpayable",
      "type": "function"
    },
    {
      "inputs": [
        {
          "internalType": "address",
          "name": "_saleRecipient",
          "type": "address"
        }
      ],
      "name": "setPrimarySaleRecipient",
      "outputs": [],
      "stateMutability": "nonpayable",
      "type": "function"
    },
    {
      "inputs": [
        {
          "internalType": "uint256",
          "name": "_tokenId",
          "type": "uint256"
        },
        {
          "internalType": "address",
          "name": "_recipient",
          "type": "address"
        },
        {
          "internalType": "uint256",
          "name": "_bps",
          "type": "uint256"
        }
      ],
      "name": "setRoyaltyInfoForToken",
      "outputs": [],
      "stateMutability": "nonpayable",
      "type": "function"
    },
    {
      "inputs": [
        {
          "internalType": "bytes4",
          "name": "interfaceId",
          "type": "bytes4"
        }
      ],
      "name": "supportsInterface",
      "outputs": [
        {
          "internalType": "bool",
          "name": "",
          "type": "bool"
        }
      ],
      "stateMutability": "view",
      "type": "function"
    },
    {
      "inputs": [],
      "name": "symbol",
      "outputs": [
        {
          "internalType": "string",
          "name": "",
          "type": "string"
        }
      ],
      "stateMutability": "view",
      "type": "function"
    },
    {
      "inputs": [
        {
          "internalType": "uint256",
          "name": "index",
          "type": "uint256"
        }
      ],
      "name": "tokenByIndex",
      "outputs": [
        {
          "internalType": "uint256",
          "name": "",
          "type": "uint256"
        }
      ],
      "stateMutability": "view",
      "type": "function"
    },
    {
      "inputs": [
        {
          "internalType": "address",
          "name": "owner",
          "type": "address"
        },
        {
          "internalType": "uint256",
          "name": "index",
          "type": "uint256"
        }
      ],
      "name": "tokenOfOwnerByIndex",
      "outputs": [
        {
          "internalType": "uint256",
          "name": "",
          "type": "uint256"
        }
      ],
      "stateMutability": "view",
      "type": "function"
    },
    {
      "inputs": [],
      "name": "totalSupply",
      "outputs": [
        {
          "internalType": "uint256",
          "name": "",
          "type": "uint256"
        }
      ],
      "stateMutability": "view",
      "type": "function"
    },
    {
      "inputs": [
        {
          "internalType": "address",
          "name": "from",
          "type": "address"
        },
        {
          "internalType": "address",
          "name": "to",
          "type": "address"
        },
        {
          "internalType": "uint256",
          "name": "tokenId",
          "type": "uint256"
        }
      ],
      "name": "transferFrom",
      "outputs": [],
      "stateMutability": "nonpayable",
      "type": "function"
    },
    {
      "inputs": [
        {
          "internalType": "address",
          "name": "_claimer",
          "type": "address"
        },
        {
          "internalType": "uint256",
          "name": "_quantity",
          "type": "uint256"
        },
        {
          "internalType": "address",
          "name": "_currency",
          "type": "address"
        },
        {
          "internalType": "uint256",
          "name": "_pricePerToken",
          "type": "uint256"
        },
        {
          "components": [
            {
              "internalType": "bytes32[]",
              "name": "proof",
              "type": "bytes32[]"
            },
            {
              "internalType": "uint256",
              "name": "quantityLimitPerWallet",
              "type": "uint256"
            },
            {
              "internalType": "uint256",
              "name": "pricePerToken",
              "type": "uint256"
            },
            {
              "internalType": "address",
              "name": "currency",
              "type": "address"
            }
          ],
          "internalType": "struct IDropSinglePhase.AllowlistProof",
          "name": "_allowlistProof",
          "type": "tuple"
        }
      ],
      "name": "verifyClaim",
      "outputs": [
        {
          "internalType": "bool",
          "name": "isOverride",
          "type": "bool"
        }
      ],
      "stateMutability": "view",
      "type": "function"
    },
    {
      "inputs": [
        {
          "internalType": "uint256",
          "name": "_tokenId",
          "type": "uint256"
        }
      ],
      "name": "tokenURI",
      "outputs": [
        {
          "internalType": "string",
          "name": "",
          "type": "string"
        }
      ],
      "stateMutability": "view",
      "type": "function"
    }
  ],
  "bytecode": "0x60806040523480156200001157600080fd5b5060405162009aa138038062009aa1833981810160405281019062000037919062000841565b8484848484733cc6cdda760b79bafa08df41ecfa224f810dceb660018686868686848481600290805190602001906200007292919062000542565b5080600390805190602001906200008b92919062000542565b506200009c620002f660201b60201c565b6000819055505050620000b533620002fb60201b60201c565b620000d983836fffffffffffffffffffffffffffffffff16620003c160201b60201c565b620000ea81620004bb60201b60201c565b505050505060006daaeb6d7670e522a718067333cd4e73ffffffffffffffffffffffffffffffffffffffff163b1115620002e4578015620001aa576daaeb6d7670e522a718067333cd4e73ffffffffffffffffffffffffffffffffffffffff16637d3e3dbe30846040518363ffffffff1660e01b81526004016200017092919062000918565b600060405180830381600087803b1580156200018b57600080fd5b505af1158015620001a0573d6000803e3d6000fd5b50505050620002e3565b600073ffffffffffffffffffffffffffffffffffffffff168273ffffffffffffffffffffffffffffffffffffffff161462000264576daaeb6d7670e522a718067333cd4e73ffffffffffffffffffffffffffffffffffffffff1663a0af290330846040518363ffffffff1660e01b81526004016200022a92919062000918565b600060405180830381600087803b1580156200024557600080fd5b505af11580156200025a573d6000803e3d6000fd5b50505050620002e2565b6daaeb6d7670e522a718067333cd4e73ffffffffffffffffffffffffffffffffffffffff16634420e486306040518263ffffffff1660e01b8152600401620002ad919062000945565b600060405180830381600087803b158015620002c857600080fd5b505af1158015620002dd573d6000803e3d6000fd5b505050505b5b5b50505050505050505050505062000a81565b600090565b6000600960009054906101000a900473ffffffffffffffffffffffffffffffffffffffff16905081600960006101000a81548173ffffffffffffffffffffffffffffffffffffffff021916908373ffffffffffffffffffffffffffffffffffffffff1602179055508173ffffffffffffffffffffffffffffffffffffffff168173ffffffffffffffffffffffffffffffffffffffff167f8292fce18fa69edf4db7b94ea2e58241df0ae57f97e0a6c9b29067028bf92d7660405160405180910390a35050565b61271081111562000409576040517f08c379a00000000000000000000000000000000000000000000000000000000081526004016200040090620009c3565b60405180910390fd5b81600a60006101000a81548173ffffffffffffffffffffffffffffffffffffffff021916908373ffffffffffffffffffffffffffffffffffffffff16021790555080600a60146101000a81548161ffff021916908361ffff1602179055508173ffffffffffffffffffffffffffffffffffffffff167f90d7ec04bcb8978719414f82e52e4cb651db41d0e6f8cea6118c2191e6183adb82604051620004af919062000a00565b60405180910390a25050565b80600e60006101000a81548173ffffffffffffffffffffffffffffffffffffffff021916908373ffffffffffffffffffffffffffffffffffffffff1602179055508073ffffffffffffffffffffffffffffffffffffffff167f299d17e95023f496e0ffc4909cff1a61f74bb5eb18de6f900f4155bfa1b3b33360405160405180910390a250565b828054620005509062000a4c565b90600052602060002090601f016020900481019282620005745760008555620005c0565b82601f106200058f57805160ff1916838001178555620005c0565b82800160010185558215620005c0579182015b82811115620005bf578251825591602001919060010190620005a2565b5b509050620005cf9190620005d3565b5090565b5b80821115620005ee576000816000905550600101620005d4565b5090565b6000604051905090565b600080fd5b600080fd5b600080fd5b600080fd5b6000601f19601f8301169050919050565b7f4e487b7100000000000000000000000000000000000000000000000000000000600052604160045260246000fd5b6200065b8262000610565b810181811067ffffffffffffffff821117156200067d576200067c62000621565b5b80604052505050565b600062000692620005f2565b9050620006a0828262000650565b919050565b600067ffffffffffffffff821115620006c357620006c262000621565b5b620006ce8262000610565b9050602081019050919050565b60005b83811015620006fb578082015181840152602081019050620006de565b838111156200070b576000848401525b50505050565b6000620007286200072284620006a5565b62000686565b9050828152602081018484840111156200074757620007466200060b565b5b62000754848285620006db565b509392505050565b600082601f83011262000774576200077362000606565b5b81516200078684826020860162000711565b91505092915050565b600073ffffffffffffffffffffffffffffffffffffffff82169050919050565b6000620007bc826200078f565b9050919050565b620007ce81620007af565b8114620007da57600080fd5b50565b600081519050620007ee81620007c3565b92915050565b60006fffffffffffffffffffffffffffffffff82169050919050565b6200081b81620007f4565b81146200082757600080fd5b50565b6000815190506200083b8162000810565b92915050565b600080600080600060a0868803121562000860576200085f620005fc565b5b600086015167ffffffffffffffff81111562000881576200088062000601565b5b6200088f888289016200075c565b955050602086015167ffffffffffffffff811115620008b357620008b262000601565b5b620008c1888289016200075c565b9450506040620008d488828901620007dd565b9350506060620008e7888289016200082a565b9250506080620008fa88828901620007dd565b9150509295509295909350565b6200091281620007af565b82525050565b60006040820190506200092f600083018562000907565b6200093e602083018462000907565b9392505050565b60006020820190506200095c600083018462000907565b92915050565b600082825260208201905092915050565b7f45786365656473206d6178206270730000000000000000000000000000000000600082015250565b6000620009ab600f8362000962565b9150620009b88262000973565b602082019050919050565b60006020820190508181036000830152620009de816200099c565b9050919050565b6000819050919050565b620009fa81620009e5565b82525050565b600060208201905062000a176000830184620009ef565b92915050565b7f4e487b7100000000000000000000000000000000000000000000000000000000600052602260045260246000fd5b6000600282049050600182168062000a6557607f821691505b60208210810362000a7b5762000a7a62000a1d565b5b50919050565b6190108062000a916000396000f3fe6080604052600436106102c95760003560e01c806363b45e2d11610175578063acd083f8116100dc578063d637ed5911610095578063e8a3d4851161006f578063e8a3d48514610bbd578063e985e9c514610be8578063eec8897c14610c25578063f48cc32614610c62576102c9565b8063d637ed5914610b25578063db006a7514610b57578063e715032214610b80576102c9565b8063acd083f8146109ee578063b24f2d3914610a19578063b88d4fde14610a45578063c87b56dd14610a6e578063ce80564214610aab578063d37c353b14610ae8576102c9565b806395d89b411161012e57806395d89b41146108ba5780639bcf7a15146108e55780639fc4d68f1461090e578063a05112fc1461094b578063a22cb46514610988578063ac9650d8146109b1576102c9565b806363b45e2d146107b95780636f4f2837146107e457806370a082311461080d57806384bb1e421461084a5780638da5cb5b14610866578063938e3d7b14610891576102c9565b806332f0cd641161023457806342966c68116101ed5780634f6ccce7116101c75780634f6ccce7146106eb578063504c6e0114610728578063600dd5ea146107535780636352211e1461077c576102c9565b806342966c6814610647578063492e224b146106705780634cc157df146106ad576102c9565b806332f0cd641461053957806335b65e1f146105625780633b1475a71461059f57806341f43434146105ca578063426cfaf3146105f557806342842e0e1461061e576102c9565b806313af40351161028657806313af40351461040457806318160ddd1461042d57806323b872dd146104585780632419f51b146104815780632a55205a146104be5780632f745c59146104fc576102c9565b806301ffc9a7146102ce57806306d7f47e1461030b57806306fdde0314610348578063079fe40e14610373578063081812fc1461039e578063095ea7b3146103db575b600080fd5b3480156102da57600080fd5b506102f560048036038101906102f09190615c92565b610c9f565b6040516103029190615cda565b60405180910390f35b34801561031757600080fd5b50610332600480360381019061032d9190615d53565b610d99565b60405161033f9190615f53565b60405180910390f35b34801561035457600080fd5b5061035d610e9b565b60405161036a9190615fbf565b60405180910390f35b34801561037f57600080fd5b50610388610f2d565b6040516103959190615ff0565b60405180910390f35b3480156103aa57600080fd5b506103c560048036038101906103c09190616037565b610f57565b6040516103d29190615ff0565b60405180910390f35b3480156103e757600080fd5b5061040260048036038101906103fd9190616064565b610fd3565b005b34801561041057600080fd5b5061042b60048036038101906104269190615d53565b6110d7565b005b34801561043957600080fd5b5061044261112a565b60405161044f91906160b3565b60405180910390f35b34801561046457600080fd5b5061047f600480360381019061047a91906160ce565b611141565b005b34801561048d57600080fd5b506104a860048036038101906104a39190616037565b611190565b6040516104b591906160b3565b60405180910390f35b3480156104ca57600080fd5b506104e560048036038101906104e09190616121565b611201565b6040516104f3929190616161565b60405180910390f35b34801561050857600080fd5b50610523600480360381019061051e9190616064565b61123f565b60405161053091906160b3565b60405180910390f35b34801561054557600080fd5b50610560600480360381019061055b91906161b6565b6112e4565b005b34801561056e57600080fd5b5061058960048036038101906105849190615d53565b611337565b60405161059691906160b3565b60405180910390f35b3480156105ab57600080fd5b506105b4611393565b6040516105c191906160b3565b60405180910390f35b3480156105d657600080fd5b506105df61139d565b6040516105ec9190616242565b60405180910390f35b34801561060157600080fd5b5061061c60048036038101906106179190616282565b6113af565b005b34801561062a57600080fd5b50610645600480360381019061064091906160ce565b61163e565b005b34801561065357600080fd5b5061066e60048036038101906106699190616037565b61168d565b005b34801561067c57600080fd5b5061069760048036038101906106929190616037565b61169b565b6040516106a49190615cda565b60405180910390f35b3480156106b957600080fd5b506106d460048036038101906106cf9190616037565b6116c6565b6040516106e29291906162fb565b60405180910390f35b3480156106f757600080fd5b50610712600480360381019061070d9190616037565b6117d1565b60405161071f91906160b3565b60405180910390f35b34801561073457600080fd5b5061073d611842565b60405161074a9190615cda565b60405180910390f35b34801561075f57600080fd5b5061077a60048036038101906107759190616064565b611855565b005b34801561078857600080fd5b506107a3600480360381019061079e9190616037565b6118aa565b6040516107b09190615ff0565b60405180910390f35b3480156107c557600080fd5b506107ce6118c0565b6040516107db91906160b3565b60405180910390f35b3480156107f057600080fd5b5061080b60048036038101906108069190615d53565b6118cd565b005b34801561081957600080fd5b50610834600480360381019061082f9190615d53565b611920565b60405161084191906160b3565b60405180910390f35b610864600480360381019061085f9190616478565b6119ef565b005b34801561087257600080fd5b5061087b611b43565b6040516108889190615ff0565b60405180910390f35b34801561089d57600080fd5b506108b860048036038101906108b391906165de565b611b6d565b005b3480156108c657600080fd5b506108cf611bc0565b6040516108dc9190615fbf565b60405180910390f35b3480156108f157600080fd5b5061090c60048036038101906109079190616627565b611c52565b005b34801561091a57600080fd5b50610935600480360381019061093091906166da565b611ca9565b6040516109429190615fbf565b60405180910390f35b34801561095757600080fd5b50610972600480360381019061096d9190616037565b611e2f565b60405161097f919061678f565b60405180910390f35b34801561099457600080fd5b506109af60048036038101906109aa91906167b1565b611ecf565b005b3480156109bd57600080fd5b506109d860048036038101906109d39190616847565b611edd565b6040516109e591906169a0565b60405180910390f35b3480156109fa57600080fd5b50610a03611fe9565b604051610a1091906160b3565b60405180910390f35b348015610a2557600080fd5b50610a2e611ff2565b604051610a3c9291906162fb565b60405180910390f35b348015610a5157600080fd5b50610a6c6004803603810190610a6791906169c2565b612031565b005b348015610a7a57600080fd5b50610a956004803603810190610a909190616037565b612082565b604051610aa29190615fbf565b60405180910390f35b348015610ab757600080fd5b50610ad26004803603810190610acd91906166da565b61224c565b604051610adf9190615fbf565b60405180910390f35b348015610af457600080fd5b50610b0f6004803603810190610b0a9190616a9b565b612312565b604051610b1c91906160b3565b60405180910390f35b348015610b3157600080fd5b50610b3a6123c4565b604051610b4e989796959493929190616b49565b60405180910390f35b348015610b6357600080fd5b50610b7e6004803603810190610b799190616037565b6124a2565b005b348015610b8c57600080fd5b50610ba76004803603810190610ba29190616bce565b61263a565b604051610bb4919061678f565b60405180910390f35b348015610bc957600080fd5b50610bd26126c4565b604051610bdf9190615fbf565b60405180910390f35b348015610bf457600080fd5b50610c0f6004803603810190610c0a9190616c4a565b612752565b604051610c1c9190615cda565b60405180910390f35b348015610c3157600080fd5b50610c4c6004803603810190610c479190616c8a565b6127e6565b604051610c599190615cda565b60405180910390f35b348015610c6e57600080fd5b50610c896004803603810190610c849190616037565b612cb3565b604051610c969190615cda565b60405180910390f35b60006301ffc9a760e01b827bffffffffffffffffffffffffffffffffffffffffffffffffffffffff19161480610cfa57506380ac58cd60e01b827bffffffffffffffffffffffffffffffffffffffffffffffffffffffff1916145b80610d2a5750635b5e139f60e01b827bffffffffffffffffffffffffffffffffffffffffffffffffffffffff1916145b80610d9257507f2a55205a000000000000000000000000000000000000000000000000000000007bffffffffffffffffffffffffffffffffffffffffffffffffffffffff1916827bffffffffffffffffffffffffffffffffffffffffffffffffffffffff1916145b9050919050565b60606000610da683611920565b905060008167ffffffffffffffff811115610dc457610dc361634d565b5b604051908082528060200260200182016040528015610dfd57816020015b610dea615a97565b815260200190600190039081610de25790505b50905060005b82811015610e90576000610e17868361123f565b90506040518060600160405280828152602001610e3383612082565b8152602001601c600084815260200190815260200160002060009054906101000a900460ff161515815250838381518110610e7157610e70616d21565b5b6020026020010181905250508080610e8890616d7f565b915050610e03565b819350505050919050565b606060028054610eaa90616df6565b80601f0160208091040260200160405190810160405280929190818152602001828054610ed690616df6565b8015610f235780601f10610ef857610100808354040283529160200191610f23565b820191906000526020600020905b815481529060010190602001808311610f0657829003601f168201915b5050505050905090565b6000600e60009054906101000a900473ffffffffffffffffffffffffffffffffffffffff16905090565b6000610f6282612d26565b610f98576040517fcf4700e400000000000000000000000000000000000000000000000000000000815260040160405180910390fd5b6006600083815260200190815260200160002060009054906101000a900473ffffffffffffffffffffffffffffffffffffffff169050919050565b6000610fde826118aa565b90508073ffffffffffffffffffffffffffffffffffffffff168373ffffffffffffffffffffffffffffffffffffffff1603611045576040517f943f7b8c00000000000000000000000000000000000000000000000000000000815260040160405180910390fd5b8073ffffffffffffffffffffffffffffffffffffffff16611064612d74565b73ffffffffffffffffffffffffffffffffffffffff16146110c7576110908161108b612d74565b612752565b6110c6576040517fcfb3b94200000000000000000000000000000000000000000000000000000000815260040160405180910390fd5b5b6110d2838383612d7c565b505050565b6110df612e2e565b61111e576040517f08c379a000000000000000000000000000000000000000000000000000000000815260040161111590616e73565b60405180910390fd5b61112781612e6b565b50565b6000611134612f31565b6001546000540303905090565b823373ffffffffffffffffffffffffffffffffffffffff168173ffffffffffffffffffffffffffffffffffffffff161461117f5761117e33612f36565b5b61118a848484613049565b50505050565b600061119a6118c0565b82106111db576040517f08c379a00000000000000000000000000000000000000000000000000000000081526004016111d290616edf565b60405180910390fd5b600c82815481106111ef576111ee616d21565b5b90600052602060002001549050919050565b600080600080611210866116c6565b61ffff1691509150819350612710818661122a9190616eff565b6112349190616f88565b925050509250929050565b600061124a83611920565b821061128b576040517f08c379a00000000000000000000000000000000000000000000000000000000081526004016112829061702b565b60405180910390fd5b601d60008473ffffffffffffffffffffffffffffffffffffffff1673ffffffffffffffffffffffffffffffffffffffff168152602001908152602001600020600083815260200190815260200160002054905092915050565b6112ec613059565b61132b576040517f08c379a0000000000000000000000000000000000000000000000000000000008152600401611322906170bd565b60405180910390fd5b61133481613062565b50565b6000601a6000601954815260200190815260200160002060008373ffffffffffffffffffffffffffffffffffffffff1673ffffffffffffffffffffffffffffffffffffffff168152602001908152602001600020549050919050565b6000600f54905090565b6daaeb6d7670e522a718067333cd4e81565b6113b76130b6565b6113f6576040517f08c379a00000000000000000000000000000000000000000000000000000000081526004016113ed90616e73565b60405180910390fd5b6000601954905060006011600201549050821561144457600090506114196130f3565b4360405160200161142b929190617146565b6040516020818303038152906040528051906020012091505b836020013581111561148b576040517f08c379a0000000000000000000000000000000000000000000000000000000008152600401611482906171be565b60405180910390fd5b604051806101000160405280856000013581526020018560200135815260200182815260200185606001358152602001856080013581526020018560a0013581526020018560c00160208101906114e29190615d53565b73ffffffffffffffffffffffffffffffffffffffff168152602001858060e0019061150d91906171ed565b8080601f016020809104026020016040519081016040528093929190818152602001838380828437600081840152601f19601f820116905080830192505050505050508152506011600082015181600001556020820151816001015560408201518160020155606082015181600301556080820151816004015560a0820151816005015560c08201518160060160006101000a81548173ffffffffffffffffffffffffffffffffffffffff021916908373ffffffffffffffffffffffffffffffffffffffff16021790555060e08201518160070190805190602001906115f4929190615aba565b50905050816019819055507f6dab9d7d05d468100139089b2516cb8ff286c3972ff070d3b509e371f0d0d4b88484604051611630929190617470565b60405180910390a150505050565b823373ffffffffffffffffffffffffffffffffffffffff168173ffffffffffffffffffffffffffffffffffffffff161461167c5761167b33612f36565b5b6116878484846130fb565b50505050565b61169881600161311b565b50565b6000806010600084815260200190815260200160002080546116bc90616df6565b9050119050919050565b6000806000600b60008581526020019081526020016000206040518060400160405290816000820160009054906101000a900473ffffffffffffffffffffffffffffffffffffffff1673ffffffffffffffffffffffffffffffffffffffff1673ffffffffffffffffffffffffffffffffffffffff1681526020016001820154815250509050600073ffffffffffffffffffffffffffffffffffffffff16816000015173ffffffffffffffffffffffffffffffffffffffff161461179257806000015181602001516117c7565b600a60009054906101000a900473ffffffffffffffffffffffffffffffffffffffff16600a60149054906101000a900461ffff165b9250925050915091565b60006117db61112a565b821061181c576040517f08c379a000000000000000000000000000000000000000000000000000000000815260040161181390617512565b60405180910390fd5b601f82815481106118305761182f616d21565b5b90600052602060002001549050919050565b601b60009054906101000a900460ff1681565b61185d61350a565b61189c576040517f08c379a000000000000000000000000000000000000000000000000000000000815260040161189390616e73565b60405180910390fd5b6118a68282613547565b5050565b60006118b58261363c565b600001519050919050565b6000600c80549050905090565b6118d56138c7565b611914576040517f08c379a000000000000000000000000000000000000000000000000000000000815260040161190b90616e73565b60405180910390fd5b61191d81613904565b50565b60008073ffffffffffffffffffffffffffffffffffffffff168273ffffffffffffffffffffffffffffffffffffffff1603611987576040517f8f4eb60400000000000000000000000000000000000000000000000000000000815260040160405180910390fd5b600560008373ffffffffffffffffffffffffffffffffffffffff1673ffffffffffffffffffffffffffffffffffffffff16815260200190815260200160002060000160009054906101000a900467ffffffffffffffff1667ffffffffffffffff169050919050565b6119fd86868686868661398b565b60006019549050611a18611a0f6130f3565b878787876127e6565b508560116002016000828254611a2e9190617532565b9250508190555085601a60008381526020019081526020016000206000611a536130f3565b73ffffffffffffffffffffffffffffffffffffffff1673ffffffffffffffffffffffffffffffffffffffff1681526020019081526020016000206000828254611a9c9190617532565b92505081905550611ab060008787876139e5565b6000611abc8888613ae3565b9050808873ffffffffffffffffffffffffffffffffffffffff16611ade6130f3565b73ffffffffffffffffffffffffffffffffffffffff167fff097c7d8b1957a4ff09ef1361b5fb54dcede3941ba836d0beb9d10bec725de68a604051611b2391906160b3565b60405180910390a4611b39888888888888613af9565b5050505050505050565b6000600960009054906101000a900473ffffffffffffffffffffffffffffffffffffffff16905090565b611b75613b01565b611bb4576040517f08c379a0000000000000000000000000000000000000000000000000000000008152600401611bab90616e73565b60405180910390fd5b611bbd81613b3e565b50565b606060038054611bcf90616df6565b80601f0160208091040260200160405190810160405280929190818152602001828054611bfb90616df6565b8015611c485780601f10611c1d57610100808354040283529160200191611c48565b820191906000526020600020905b815481529060010190602001808311611c2b57829003601f168201915b5050505050905090565b611c5a61350a565b611c99576040517f08c379a0000000000000000000000000000000000000000000000000000000008152600401611c9090616e73565b60405180910390fd5b611ca4838383613c21565b505050565b60606000601060008681526020019081526020016000208054611ccb90616df6565b80601f0160208091040260200160405190810160405280929190818152602001828054611cf790616df6565b8015611d445780601f10611d1957610100808354040283529160200191611d44565b820191906000526020600020905b815481529060010190602001808311611d2757829003601f168201915b505050505090506000815103611d8f576040517f08c379a0000000000000000000000000000000000000000000000000000000008152600401611d86906175d4565b60405180910390fd5b60008082806020019051810190611da69190617679565b91509150611db582878761263a565b93508084878746604051602001611dcf9493929190617741565b6040516020818303038152906040528051906020012014611e25576040517f08c379a0000000000000000000000000000000000000000000000000000000008152600401611e1c906177c4565b60405180910390fd5b5050509392505050565b60106020528060005260406000206000915090508054611e4e90616df6565b80601f0160208091040260200160405190810160405280929190818152602001828054611e7a90616df6565b8015611ec75780601f10611e9c57610100808354040283529160200191611ec7565b820191906000526020600020905b815481529060010190602001808311611eaa57829003601f168201915b505050505081565b611ed98282613d4c565b5050565b60608282905067ffffffffffffffff811115611efc57611efb61634d565b5b604051908082528060200260200182016040528015611f2f57816020015b6060815260200190600190039081611f1a5790505b50905060005b83839050811015611fe257611fb130858584818110611f5757611f56616d21565b5b9050602002810190611f6991906177e4565b8080601f016020809104026020016040519081016040528093929190818152602001838380828437600081840152601f19601f82011690508083019250505050505050613ec3565b828281518110611fc457611fc3616d21565b5b60200260200101819052508080611fda90616d7f565b915050611f35565b5092915050565b60008054905090565b600080600a60009054906101000a900473ffffffffffffffffffffffffffffffffffffffff16600a60149054906101000a900461ffff16915091509091565b833373ffffffffffffffffffffffffffffffffffffffff168173ffffffffffffffffffffffffffffffffffffffff161461206f5761206e33612f36565b5b61207b85858585613ef0565b5050505050565b606060006040518060600160405280603b8152602001618fa0603b9139905060006120b86001856120b39190617532565b613f68565b905060006040518060400160405280600b81526020017f205b52454445454d45445d0000000000000000000000000000000000000000008152509050606080606061210288612cb3565b1561216b576040518060400160405280600481526020017f74727565000000000000000000000000000000000000000000000000000000008152509150849250858560405160200161215592919061792b565b60405160208183030381529060405290506121ec565b6040518060400160405280600581526020017f66616c7365000000000000000000000000000000000000000000000000000000815250915084846040516020016121b69291906179a1565b604051602081830303815290604052925085856040516020016121da929190617a37565b60405160208183030381529060405290505b6000838283856040516020016122059493929190618224565b604051602081830303815290604052905061221f81614036565b60405160200161222f9190618332565b604051602081830303815290604052975050505050505050919050565b6060612256614199565b612295576040517f08c379a000000000000000000000000000000000000000000000000000000000815260040161228c90616e73565b60405180910390fd5b60006122a085611190565b90506122ad818585611ca9565b91506122c881604051806020016040528060008152506141d6565b6122d28183614202565b847f6df1d8db2a036436ffe0b2d1833f2c5f1e624818dfce2578c0faa4b83ef9998d836040516123029190615fbf565b60405180910390a2509392505050565b6000808383905011156123ac5760008084848101906123319190618354565b915091506000825114158015612348575060008114155b156123a9576123a888600f5461235e9190617532565b86868080601f016020809104026020016040519081016040528093929190818152602001838380828437600081840152601f19601f820116905080830192505050505050506141d6565b5b50505b6123b9868686868661422e565b905095945050505050565b60118060000154908060010154908060020154908060030154908060040154908060050154908060060160009054906101000a900473ffffffffffffffffffffffffffffffffffffffff169080600701805461241f90616df6565b80601f016020809104026020016040519081016040528092919081815260200182805461244b90616df6565b80156124985780601f1061246d57610100808354040283529160200191612498565b820191906000526020600020905b81548152906001019060200180831161247b57829003601f168201915b5050505050905088565b6124ab81612d26565b6124ea576040517f08c379a00000000000000000000000000000000000000000000000000000000081526004016124e190618422565b60405180910390fd5b3373ffffffffffffffffffffffffffffffffffffffff1661250a826118aa565b73ffffffffffffffffffffffffffffffffffffffff1614612560576040517f08c379a0000000000000000000000000000000000000000000000000000000008152600401612557906184b4565b60405180910390fd5b60001515601c600083815260200190815260200160002060009054906101000a900460ff161515146125c7576040517f08c379a00000000000000000000000000000000000000000000000000000000081526004016125be90618546565b60405180910390fd5b6001601c600083815260200190815260200160002060006101000a81548160ff021916908315150217905550803373ffffffffffffffffffffffffffffffffffffffff167f222838db2794d11532d940e8dec38ae307ed0b63cd97c233322e221f998767a660405160405180910390a350565b6060600084519050604051915060208183010160405280825260005b818110156126bb57600085858360405160200161267593929190618566565b60405160208183030381529060405280519060200120905060006020830188015190508181189050806020840186015250506020816126b49190617532565b9050612656565b50509392505050565b600880546126d190616df6565b80601f01602080910402602001604051908101604052809291908181526020018280546126fd90616df6565b801561274a5780601f1061271f5761010080835404028352916020019161274a565b820191906000526020600020905b81548152906001019060200180831161272d57829003601f168201915b505050505081565b6000600760008473ffffffffffffffffffffffffffffffffffffffff1673ffffffffffffffffffffffffffffffffffffffff16815260200190815260200160002060008373ffffffffffffffffffffffffffffffffffffffff1673ffffffffffffffffffffffffffffffffffffffff16815260200190815260200160002060009054906101000a900460ff16905092915050565b6000806011604051806101000160405290816000820154815260200160018201548152602001600282015481526020016003820154815260200160048201548152602001600582015481526020016006820160009054906101000a900473ffffffffffffffffffffffffffffffffffffffff1673ffffffffffffffffffffffffffffffffffffffff1673ffffffffffffffffffffffffffffffffffffffff16815260200160078201805461289990616df6565b80601f01602080910402602001604051908101604052809291908181526020018280546128c590616df6565b80156129125780601f106128e757610100808354040283529160200191612912565b820191906000526020600020905b8154815290600101906020018083116128f557829003601f168201915b505050505081525050905060008160600151905060008260a00151905060008360c0015190506000801b8460800151146129f0576129ea8680600001906129599190618590565b80806020026020016040519081016040528093929190818152602001838360200280828437600081840152601f19601f8201169050808301925050505050505085608001518c89602001358a604001358b60600160208101906129bc9190615d53565b6040516020016129cf94939291906185f3565b6040516020818303038152906040528051906020012061437f565b50809550505b8415612add576000866020013503612a085782612a0e565b85602001355b92507fffffffffffffffffffffffffffffffffffffffffffffffffffffffffffffffff866040013503612a415781612a47565b85604001355b91507fffffffffffffffffffffffffffffffffffffffffffffffffffffffffffffffff866040013514158015612abc5750600073ffffffffffffffffffffffffffffffffffffffff16866060016020810190612aa39190615d53565b73ffffffffffffffffffffffffffffffffffffffff1614155b612ac65780612ada565b856060016020810190612ad99190615d53565b5b90505b6000601a6000601954815260200190815260200160002060008c73ffffffffffffffffffffffffffffffffffffffff1673ffffffffffffffffffffffffffffffffffffffff1681526020019081526020016000205490508173ffffffffffffffffffffffffffffffffffffffff168973ffffffffffffffffffffffffffffffffffffffff16141580612b6f5750828814155b15612baf576040517f08c379a0000000000000000000000000000000000000000000000000000000008152600401612ba69061868d565b60405180910390fd5b60008a1480612bc8575083818b612bc69190617532565b115b15612c08576040517f08c379a0000000000000000000000000000000000000000000000000000000008152600401612bff906186f9565b60405180910390fd5b84602001518a8660400151612c1d9190617532565b1115612c5e576040517f08c379a0000000000000000000000000000000000000000000000000000000008152600401612c5590618765565b60405180910390fd5b4285600001511115612ca5576040517f08c379a0000000000000000000000000000000000000000000000000000000008152600401612c9c906187d1565b60405180910390fd5b505050505095945050505050565b6000612cbe82612d26565b612cfd576040517f08c379a0000000000000000000000000000000000000000000000000000000008152600401612cf490618422565b60405180910390fd5b601c600083815260200190815260200160002060009054906101000a900460ff16159050919050565b600081612d31612f31565b11158015612d40575060005482105b8015612d6d575060046000838152602001908152602001600020600001601c9054906101000a900460ff16155b9050919050565b600033905090565b826006600084815260200190815260200160002060006101000a81548173ffffffffffffffffffffffffffffffffffffffff021916908373ffffffffffffffffffffffffffffffffffffffff160217905550818373ffffffffffffffffffffffffffffffffffffffff168273ffffffffffffffffffffffffffffffffffffffff167f8c5be1e5ebec7d5bd14f71427d1e84f3dd0314c0f7b2291e5b200ac8c7c3b92560405160405180910390a4505050565b6000612e38611b43565b73ffffffffffffffffffffffffffffffffffffffff163373ffffffffffffffffffffffffffffffffffffffff1614905090565b6000600960009054906101000a900473ffffffffffffffffffffffffffffffffffffffff16905081600960006101000a81548173ffffffffffffffffffffffffffffffffffffffff021916908373ffffffffffffffffffffffffffffffffffffffff1602179055508173ffffffffffffffffffffffffffffffffffffffff168173ffffffffffffffffffffffffffffffffffffffff167f8292fce18fa69edf4db7b94ea2e58241df0ae57f97e0a6c9b29067028bf92d7660405160405180910390a35050565b600090565b601b60009054906101000a900460ff16156130465760006daaeb6d7670e522a718067333cd4e73ffffffffffffffffffffffffffffffffffffffff163b1115613045576daaeb6d7670e522a718067333cd4e73ffffffffffffffffffffffffffffffffffffffff1663c617113430836040518363ffffffff1660e01b8152600401612fc29291906187f1565b602060405180830381865afa158015612fdf573d6000803e3d6000fd5b505050506040513d601f19601f82011682018060405250810190613003919061882f565b61304457806040517fede71dcc00000000000000000000000000000000000000000000000000000000815260040161303b9190615ff0565b60405180910390fd5b5b5b50565b61305483838361445b565b505050565b60006001905090565b80601b60006101000a81548160ff0219169083151502179055507f38475885990d8dfe9ca01f0ef160a1b5514426eab9ddbc953a3353410ba78096816040516130ab9190615cda565b60405180910390a150565b60006130c0611b43565b73ffffffffffffffffffffffffffffffffffffffff163373ffffffffffffffffffffffffffffffffffffffff1614905090565b600033905090565b61311683838360405180602001604052806000815250612031565b505050565b60006131268361363c565b905060008160000151905082156132075760008173ffffffffffffffffffffffffffffffffffffffff16613158612d74565b73ffffffffffffffffffffffffffffffffffffffff161480613187575061318682613181612d74565b612752565b5b806131cc5750613195612d74565b73ffffffffffffffffffffffffffffffffffffffff166131b486610f57565b73ffffffffffffffffffffffffffffffffffffffff16145b905080613205576040517f59c896be00000000000000000000000000000000000000000000000000000000815260040160405180910390fd5b505b61321581600086600161490f565b61322160008583612d7c565b6000600560008373ffffffffffffffffffffffffffffffffffffffff1673ffffffffffffffffffffffffffffffffffffffff168152602001908152602001600020905060018160000160008282829054906101000a900467ffffffffffffffff160392506101000a81548167ffffffffffffffff021916908367ffffffffffffffff16021790555060018160000160108282829054906101000a900467ffffffffffffffff160192506101000a81548167ffffffffffffffff021916908367ffffffffffffffff1602179055506000600460008781526020019081526020016000209050828160000160006101000a81548173ffffffffffffffffffffffffffffffffffffffff021916908373ffffffffffffffffffffffffffffffffffffffff160217905550428160000160146101000a81548167ffffffffffffffff021916908367ffffffffffffffff160217905550600181600001601c6101000a81548160ff02191690831515021790555060006001870190506000600460008381526020019081526020016000209050600073ffffffffffffffffffffffffffffffffffffffff168160000160009054906101000a900473ffffffffffffffffffffffffffffffffffffffff1673ffffffffffffffffffffffffffffffffffffffff160361348457600054821461348357848160000160006101000a81548173ffffffffffffffffffffffffffffffffffffffff021916908373ffffffffffffffffffffffffffffffffffffffff16021790555085602001518160000160146101000a81548167ffffffffffffffff021916908367ffffffffffffffff1602179055505b5b5050505083600073ffffffffffffffffffffffffffffffffffffffff168273ffffffffffffffffffffffffffffffffffffffff167fddf252ad1be2c89b69c2b068fc378daa952ba7f163c4a11628f55a4df523b3ef60405160405180910390a46134f2816000866001614a17565b60016000815480929190600101919050555050505050565b6000613514611b43565b73ffffffffffffffffffffffffffffffffffffffff163373ffffffffffffffffffffffffffffffffffffffff1614905090565b61271081111561358c576040517f08c379a0000000000000000000000000000000000000000000000000000000008152600401613583906188a8565b60405180910390fd5b81600a60006101000a81548173ffffffffffffffffffffffffffffffffffffffff021916908373ffffffffffffffffffffffffffffffffffffffff16021790555080600a60146101000a81548161ffff021916908361ffff1602179055508173ffffffffffffffffffffffffffffffffffffffff167f90d7ec04bcb8978719414f82e52e4cb651db41d0e6f8cea6118c2191e6183adb8260405161363091906160b3565b60405180910390a25050565b613644615b40565b600082905080613652612f31565b116138905760005481101561388f576000600460008381526020019081526020016000206040518060600160405290816000820160009054906101000a900473ffffffffffffffffffffffffffffffffffffffff1673ffffffffffffffffffffffffffffffffffffffff1673ffffffffffffffffffffffffffffffffffffffff1681526020016000820160149054906101000a900467ffffffffffffffff1667ffffffffffffffff1667ffffffffffffffff16815260200160008201601c9054906101000a900460ff1615151515815250509050806040015161388d57600073ffffffffffffffffffffffffffffffffffffffff16816000015173ffffffffffffffffffffffffffffffffffffffff16146137715780925050506138c2565b5b60011561388c57818060019003925050600460008381526020019081526020016000206040518060600160405290816000820160009054906101000a900473ffffffffffffffffffffffffffffffffffffffff1673ffffffffffffffffffffffffffffffffffffffff1673ffffffffffffffffffffffffffffffffffffffff1681526020016000820160149054906101000a900467ffffffffffffffff1667ffffffffffffffff1667ffffffffffffffff16815260200160008201601c9054906101000a900460ff1615151515815250509050600073ffffffffffffffffffffffffffffffffffffffff16816000015173ffffffffffffffffffffffffffffffffffffffff16146138875780925050506138c2565b613772565b5b505b5b6040517fdf2d9b4200000000000000000000000000000000000000000000000000000000815260040160405180910390fd5b919050565b60006138d1611b43565b73ffffffffffffffffffffffffffffffffffffffff163373ffffffffffffffffffffffffffffffffffffffff1614905090565b80600e60006101000a81548173ffffffffffffffffffffffffffffffffffffffff021916908373ffffffffffffffffffffffffffffffffffffffff1602179055508073ffffffffffffffffffffffffffffffffffffffff167f299d17e95023f496e0ffc4909cff1a61f74bb5eb18de6f900f4155bfa1b3b33360405160405180910390a250565b600f548560005461399c9190617532565b11156139dd576040517f08c379a00000000000000000000000000000000000000000000000000000000081526004016139d490618914565b60405180910390fd5b505050505050565b6000810315613add57600081846139fc9190616eff565b905073eeeeeeeeeeeeeeeeeeeeeeeeeeeeeeeeeeeeeeee73ffffffffffffffffffffffffffffffffffffffff168373ffffffffffffffffffffffffffffffffffffffff1603613a8857803414613a87576040517f08c379a0000000000000000000000000000000000000000000000000000000008152600401613a7e90618980565b60405180910390fd5b5b60008073ffffffffffffffffffffffffffffffffffffffff168673ffffffffffffffffffffffffffffffffffffffff1614613ac35785613acc565b613acb610f2d565b5b9050613ada84338385614a1d565b50505b50505050565b600080549050613af38383614a90565b92915050565b505050505050565b6000613b0b611b43565b73ffffffffffffffffffffffffffffffffffffffff163373ffffffffffffffffffffffffffffffffffffffff1614905090565b600060088054613b4d90616df6565b80601f0160208091040260200160405190810160405280929190818152602001828054613b7990616df6565b8015613bc65780601f10613b9b57610100808354040283529160200191613bc6565b820191906000526020600020905b815481529060010190602001808311613ba957829003601f168201915b505050505090508160089080519060200190613be3929190615aba565b507fc9c7c3fe08b88b4df9d4d47ef47d2c43d55c025a0ba88ca442580ed9e7348a168183604051613c159291906189a0565b60405180910390a15050565b612710811115613c66576040517f08c379a0000000000000000000000000000000000000000000000000000000008152600401613c5d906188a8565b60405180910390fd5b60405180604001604052808373ffffffffffffffffffffffffffffffffffffffff16815260200182815250600b600085815260200190815260200160002060008201518160000160006101000a81548173ffffffffffffffffffffffffffffffffffffffff021916908373ffffffffffffffffffffffffffffffffffffffff160217905550602082015181600101559050508173ffffffffffffffffffffffffffffffffffffffff16837f7365cf4122f072a3365c20d54eff9b38d73c096c28e1892ec8f5b0e403a0f12d83604051613d3f91906160b3565b60405180910390a3505050565b613d54612d74565b73ffffffffffffffffffffffffffffffffffffffff168273ffffffffffffffffffffffffffffffffffffffff1603613db8576040517fb06307db00000000000000000000000000000000000000000000000000000000815260040160405180910390fd5b8060076000613dc5612d74565b73ffffffffffffffffffffffffffffffffffffffff1673ffffffffffffffffffffffffffffffffffffffff16815260200190815260200160002060008473ffffffffffffffffffffffffffffffffffffffff1673ffffffffffffffffffffffffffffffffffffffff16815260200190815260200160002060006101000a81548160ff0219169083151502179055508173ffffffffffffffffffffffffffffffffffffffff16613e72612d74565b73ffffffffffffffffffffffffffffffffffffffff167f17307eab39ab6107e8899845ad3d59bd9653f200f220920489ca2b5937696c3183604051613eb79190615cda565b60405180910390a35050565b6060613ee88383604051806060016040528060278152602001618f7960279139614aae565b905092915050565b613efb84848461445b565b613f1a8373ffffffffffffffffffffffffffffffffffffffff16614b7b565b15613f6257613f2b84848484614b9e565b613f61576040517fd1a57ed600000000000000000000000000000000000000000000000000000000815260040160405180910390fd5b5b50505050565b606060006001613f7784614cee565b01905060008167ffffffffffffffff811115613f9657613f9561634d565b5b6040519080825280601f01601f191660200182016040528015613fc85781602001600182028036833780820191505090505b509050600082602001820190505b60011561402b578080600190039150507f3031323334353637383961626364656600000000000000000000000000000000600a86061a8153600a858161401f5761401e616f59565b5b04945060008503613fd6575b819350505050919050565b6060600082510361405857604051806020016040528060008152509050614194565b6000604051806060016040528060408152602001618f3960409139905060006003600285516140879190617532565b6140919190616f88565b600461409d9190616eff565b67ffffffffffffffff8111156140b6576140b561634d565b5b6040519080825280601f01601f1916602001820160405280156140e85781602001600182028036833780820191505090505b509050600182016020820185865187015b80821015614154576003820191508151603f8160121c168501518453600184019350603f81600c1c168501518453600184019350603f8160061c168501518453600184019350603f81168501518453600184019350506140f9565b505060038651066001811461417057600281146141835761418b565b603d6001830353603d600283035361418b565b603d60018303535b50505080925050505b919050565b60006141a3611b43565b73ffffffffffffffffffffffffffffffffffffffff163373ffffffffffffffffffffffffffffffffffffffff1614905090565b806010600084815260200190815260200160002090805190602001906141fd929190615b83565b505050565b80600d60008481526020019081526020016000209080519060200190614229929190615aba565b505050565b6000614238614e41565b614277576040517f08c379a000000000000000000000000000000000000000000000000000000000815260040161426e90616e73565b60405180910390fd5b600086036142ba576040517f08c379a00000000000000000000000000000000000000000000000000000000081526004016142b190618a23565b60405180910390fd5b6000600f549050614310818888888080601f016020809104026020016040519081016040528093929190818152602001838380828437600081840152601f19601f82011690508083019250505050505050614e7e565b600f600082955083919050555050807f2a0365091ef1a40953c670dce28177e37520648a6fdc91506bffac0ab045570d6001898461434e9190617532565b6143589190618a43565b8888888860405161436d959493929190618ad1565b60405180910390a25095945050505050565b60008060008390506000805b8751811015614448576002826143a19190616eff565b915060008882815181106143b8576143b7616d21565b5b602002602001015190508084116143f95783816040516020016143dc929190618b3b565b604051602081830303815290604052805190602001209350614434565b808460405160200161440c929190618b3b565b6040516020818303038152906040528051906020012093506001836144319190617532565b92505b50808061444090616d7f565b91505061438b565b5085821481935093505050935093915050565b60006144668261363c565b90508373ffffffffffffffffffffffffffffffffffffffff16816000015173ffffffffffffffffffffffffffffffffffffffff16146144d1576040517fa114810000000000000000000000000000000000000000000000000000000000815260040160405180910390fd5b60008473ffffffffffffffffffffffffffffffffffffffff166144f2612d74565b73ffffffffffffffffffffffffffffffffffffffff16148061452157506145208561451b612d74565b612752565b5b80614566575061452f612d74565b73ffffffffffffffffffffffffffffffffffffffff1661454e84610f57565b73ffffffffffffffffffffffffffffffffffffffff16145b90508061459f576040517f59c896be00000000000000000000000000000000000000000000000000000000815260040160405180910390fd5b600073ffffffffffffffffffffffffffffffffffffffff168473ffffffffffffffffffffffffffffffffffffffff1603614605576040517fea553b3400000000000000000000000000000000000000000000000000000000815260040160405180910390fd5b614612858585600161490f565b61461e60008487612d7c565b6001600560008773ffffffffffffffffffffffffffffffffffffffff1673ffffffffffffffffffffffffffffffffffffffff16815260200190815260200160002060000160008282829054906101000a900467ffffffffffffffff160392506101000a81548167ffffffffffffffff021916908367ffffffffffffffff1602179055506001600560008673ffffffffffffffffffffffffffffffffffffffff1673ffffffffffffffffffffffffffffffffffffffff16815260200190815260200160002060000160008282829054906101000a900467ffffffffffffffff160192506101000a81548167ffffffffffffffff021916908367ffffffffffffffff1602179055506000600460008581526020019081526020016000209050848160000160006101000a81548173ffffffffffffffffffffffffffffffffffffffff021916908373ffffffffffffffffffffffffffffffffffffffff160217905550428160000160146101000a81548167ffffffffffffffff021916908367ffffffffffffffff16021790555060006001850190506000600460008381526020019081526020016000209050600073ffffffffffffffffffffffffffffffffffffffff168160000160009054906101000a900473ffffffffffffffffffffffffffffffffffffffff1673ffffffffffffffffffffffffffffffffffffffff160361489d57600054821461489c57878160000160006101000a81548173ffffffffffffffffffffffffffffffffffffffff021916908373ffffffffffffffffffffffffffffffffffffffff16021790555084602001518160000160146101000a81548167ffffffffffffffff021916908367ffffffffffffffff1602179055505b5b505050828473ffffffffffffffffffffffffffffffffffffffff168673ffffffffffffffffffffffffffffffffffffffff167fddf252ad1be2c89b69c2b068fc378daa952ba7f163c4a11628f55a4df523b3ef60405160405180910390a46149088585856001614a17565b5050505050565b600073ffffffffffffffffffffffffffffffffffffffff168473ffffffffffffffffffffffffffffffffffffffff16036149515761494c82614eeb565b614990565b8273ffffffffffffffffffffffffffffffffffffffff168473ffffffffffffffffffffffffffffffffffffffff161461498f5761498e8483614f34565b5b5b600073ffffffffffffffffffffffffffffffffffffffff168373ffffffffffffffffffffffffffffffffffffffff16036149d2576149cd826150a1565b614a11565b8373ffffffffffffffffffffffffffffffffffffffff168373ffffffffffffffffffffffffffffffffffffffff1614614a1057614a0f8383615172565b5b5b50505050565b50505050565b6000810315614a8a5773eeeeeeeeeeeeeeeeeeeeeeeeeeeeeeeeeeeeeeee73ffffffffffffffffffffffffffffffffffffffff168473ffffffffffffffffffffffffffffffffffffffff1603614a7c57614a7782826151f1565b614a89565b614a88848484846152a2565b5b5b50505050565b614aaa82826040518060200160405280600081525061536e565b5050565b6060614ab984614b7b565b614af8576040517f08c379a0000000000000000000000000000000000000000000000000000000008152600401614aef90618bd9565b60405180910390fd5b6000808573ffffffffffffffffffffffffffffffffffffffff1685604051614b209190618bf9565b600060405180830381855af49150503d8060008114614b5b576040519150601f19603f3d011682016040523d82523d6000602084013e614b60565b606091505b5091509150614b7082828661572e565b925050509392505050565b6000808273ffffffffffffffffffffffffffffffffffffffff163b119050919050565b60008373ffffffffffffffffffffffffffffffffffffffff1663150b7a02614bc4612d74565b8786866040518563ffffffff1660e01b8152600401614be69493929190618c10565b6020604051808303816000875af1925050508015614c2257506040513d601f19601f82011682018060405250810190614c1f9190618c71565b60015b614c9b573d8060008114614c52576040519150601f19603f3d011682016040523d82523d6000602084013e614c57565b606091505b506000815103614c93576040517fd1a57ed600000000000000000000000000000000000000000000000000000000815260040160405180910390fd5b805181602001fd5b63150b7a0260e01b7bffffffffffffffffffffffffffffffffffffffffffffffffffffffff1916817bffffffffffffffffffffffffffffffffffffffffffffffffffffffff191614915050949350505050565b600080600090507a184f03e93ff9f4daa797ed6e38ed64bf6a1f0100000000000000008310614d4c577a184f03e93ff9f4daa797ed6e38ed64bf6a1f0100000000000000008381614d4257614d41616f59565b5b0492506040810190505b6d04ee2d6d415b85acef81000000008310614d89576d04ee2d6d415b85acef81000000008381614d7f57614d7e616f59565b5b0492506020810190505b662386f26fc100008310614db857662386f26fc100008381614dae57614dad616f59565b5b0492506010810190505b6305f5e1008310614de1576305f5e1008381614dd757614dd6616f59565b5b0492506008810190505b6127108310614e06576127108381614dfc57614dfb616f59565b5b0492506004810190505b60648310614e295760648381614e1f57614e1e616f59565b5b0492506002810190505b600a8310614e38576001810190505b80915050919050565b6000614e4b611b43565b73ffffffffffffffffffffffffffffffffffffffff163373ffffffffffffffffffffffffffffffffffffffff1614905090565b6000808385614e8d9190617532565b9050809150600c81908060018154018082558091505060019003906000526020600020016000909190919091505582600d60008381526020019081526020016000209080519060200190614ee2929190615aba565b50935093915050565b601f805490506020600083815260200190815260200160002081905550601f81908060018154018082558091505060019003906000526020600020016000909190919091505550565b60006001614f4184611920565b614f4b9190618a43565b90506000601e6000848152602001908152602001600020549050818114615030576000601d60008673ffffffffffffffffffffffffffffffffffffffff1673ffffffffffffffffffffffffffffffffffffffff168152602001908152602001600020600084815260200190815260200160002054905080601d60008773ffffffffffffffffffffffffffffffffffffffff1673ffffffffffffffffffffffffffffffffffffffff16815260200190815260200160002060008481526020019081526020016000208190555081601e600083815260200190815260200160002081905550505b601e600084815260200190815260200160002060009055601d60008573ffffffffffffffffffffffffffffffffffffffff1673ffffffffffffffffffffffffffffffffffffffff16815260200190815260200160002060008381526020019081526020016000206000905550505050565b60006001601f805490506150b59190618a43565b90506000602060008481526020019081526020016000205490506000601f83815481106150e5576150e4616d21565b5b9060005260206000200154905080601f838154811061510757615106616d21565b5b90600052602060002001819055508160206000838152602001908152602001600020819055506020600085815260200190815260200160002060009055601f80548061515657615155618c9e565b5b6001900381819060005260206000200160009055905550505050565b600061517d83611920565b905081601d60008573ffffffffffffffffffffffffffffffffffffffff1673ffffffffffffffffffffffffffffffffffffffff16815260200190815260200160002060008381526020019081526020016000208190555080601e600084815260200190815260200160002081905550505050565b60008273ffffffffffffffffffffffffffffffffffffffff168260405161521790618cf0565b60006040518083038185875af1925050503d8060008114615254576040519150601f19603f3d011682016040523d82523d6000602084013e615259565b606091505b505090508061529d576040517f08c379a000000000000000000000000000000000000000000000000000000000815260040161529490618d51565b60405180910390fd5b505050565b8173ffffffffffffffffffffffffffffffffffffffff168373ffffffffffffffffffffffffffffffffffffffff160315615368573073ffffffffffffffffffffffffffffffffffffffff168373ffffffffffffffffffffffffffffffffffffffff16036153395761533482828673ffffffffffffffffffffffffffffffffffffffff166157959092919063ffffffff16565b615367565b6153668383838773ffffffffffffffffffffffffffffffffffffffff1661581b909392919063ffffffff16565b5b5b50505050565b600080549050600073ffffffffffffffffffffffffffffffffffffffff168473ffffffffffffffffffffffffffffffffffffffff16036153da576040517f2e07630000000000000000000000000000000000000000000000000000000000815260040160405180910390fd5b60008303615414576040517fb562e8dd00000000000000000000000000000000000000000000000000000000815260040160405180910390fd5b615421600085838661490f565b82600560008673ffffffffffffffffffffffffffffffffffffffff1673ffffffffffffffffffffffffffffffffffffffff16815260200190815260200160002060000160008282829054906101000a900467ffffffffffffffff160192506101000a81548167ffffffffffffffff021916908367ffffffffffffffff16021790555082600560008673ffffffffffffffffffffffffffffffffffffffff1673ffffffffffffffffffffffffffffffffffffffff16815260200190815260200160002060000160088282829054906101000a900467ffffffffffffffff160192506101000a81548167ffffffffffffffff021916908367ffffffffffffffff160217905550836004600083815260200190815260200160002060000160006101000a81548173ffffffffffffffffffffffffffffffffffffffff021916908373ffffffffffffffffffffffffffffffffffffffff160217905550426004600083815260200190815260200160002060000160146101000a81548167ffffffffffffffff021916908367ffffffffffffffff1602179055506000819050600084820190506155e28673ffffffffffffffffffffffffffffffffffffffff16614b7b565b156156a7575b818673ffffffffffffffffffffffffffffffffffffffff16600073ffffffffffffffffffffffffffffffffffffffff167fddf252ad1be2c89b69c2b068fc378daa952ba7f163c4a11628f55a4df523b3ef60405160405180910390a46156576000878480600101955087614b9e565b61568d576040517fd1a57ed600000000000000000000000000000000000000000000000000000000815260040160405180910390fd5b8082106155e85782600054146156a257600080fd5b615712565b5b818060010192508673ffffffffffffffffffffffffffffffffffffffff16600073ffffffffffffffffffffffffffffffffffffffff167fddf252ad1be2c89b69c2b068fc378daa952ba7f163c4a11628f55a4df523b3ef60405160405180910390a48082106156a8575b8160008190555050506157286000858386614a17565b50505050565b6060831561573e5782905061578e565b6000835111156157515782518084602001fd5b816040517f08c379a00000000000000000000000000000000000000000000000000000000081526004016157859190615fbf565b60405180910390fd5b9392505050565b6158168363a9059cbb60e01b84846040516024016157b4929190616161565b604051602081830303815290604052907bffffffffffffffffffffffffffffffffffffffffffffffffffffffff19166020820180517bffffffffffffffffffffffffffffffffffffffffffffffffffffffff83818316178352505050506158a4565b505050565b61589e846323b872dd60e01b85858560405160240161583c93929190618d71565b604051602081830303815290604052907bffffffffffffffffffffffffffffffffffffffffffffffffffffffff19166020820180517bffffffffffffffffffffffffffffffffffffffffffffffffffffffff83818316178352505050506158a4565b50505050565b6000615906826040518060400160405280602081526020017f5361666545524332303a206c6f772d6c6576656c2063616c6c206661696c65648152508573ffffffffffffffffffffffffffffffffffffffff1661596b9092919063ffffffff16565b90506000815111156159665780806020019051810190615926919061882f565b615965576040517f08c379a000000000000000000000000000000000000000000000000000000000815260040161595c90618e1a565b60405180910390fd5b5b505050565b606061597a8484600085615983565b90509392505050565b6060824710156159c8576040517f08c379a00000000000000000000000000000000000000000000000000000000081526004016159bf90618eac565b60405180910390fd5b6159d185614b7b565b615a10576040517f08c379a0000000000000000000000000000000000000000000000000000000008152600401615a0790618f18565b60405180910390fd5b6000808673ffffffffffffffffffffffffffffffffffffffff168587604051615a399190618bf9565b60006040518083038185875af1925050503d8060008114615a76576040519150601f19603f3d011682016040523d82523d6000602084013e615a7b565b606091505b5091509150615a8b82828661572e565b92505050949350505050565b604051806060016040528060008152602001606081526020016000151581525090565b828054615ac690616df6565b90600052602060002090601f016020900481019282615ae85760008555615b2f565b82601f10615b0157805160ff1916838001178555615b2f565b82800160010185558215615b2f579182015b82811115615b2e578251825591602001919060010190615b13565b5b509050615b3c9190615c09565b5090565b6040518060600160405280600073ffffffffffffffffffffffffffffffffffffffff168152602001600067ffffffffffffffff1681526020016000151581525090565b828054615b8f90616df6565b90600052602060002090601f016020900481019282615bb15760008555615bf8565b82601f10615bca57805160ff1916838001178555615bf8565b82800160010185558215615bf8579182015b82811115615bf7578251825591602001919060010190615bdc565b5b509050615c059190615c09565b5090565b5b80821115615c22576000816000905550600101615c0a565b5090565b6000604051905090565b600080fd5b600080fd5b60007fffffffff0000000000000000000000000000000000000000000000000000000082169050919050565b615c6f81615c3a565b8114615c7a57600080fd5b50565b600081359050615c8c81615c66565b92915050565b600060208284031215615ca857615ca7615c30565b5b6000615cb684828501615c7d565b91505092915050565b60008115159050919050565b615cd481615cbf565b82525050565b6000602082019050615cef6000830184615ccb565b92915050565b600073ffffffffffffffffffffffffffffffffffffffff82169050919050565b6000615d2082615cf5565b9050919050565b615d3081615d15565b8114615d3b57600080fd5b50565b600081359050615d4d81615d27565b92915050565b600060208284031215615d6957615d68615c30565b5b6000615d7784828501615d3e565b91505092915050565b600081519050919050565b600082825260208201905092915050565b6000819050602082019050919050565b6000819050919050565b615dbf81615dac565b82525050565b600081519050919050565b600082825260208201905092915050565b60005b83811015615dff578082015181840152602081019050615de4565b83811115615e0e576000848401525b50505050565b6000601f19601f8301169050919050565b6000615e3082615dc5565b615e3a8185615dd0565b9350615e4a818560208601615de1565b615e5381615e14565b840191505092915050565b615e6781615cbf565b82525050565b6000606083016000830151615e856000860182615db6565b5060208301518482036020860152615e9d8282615e25565b9150506040830151615eb26040860182615e5e565b508091505092915050565b6000615ec98383615e6d565b905092915050565b6000602082019050919050565b6000615ee982615d80565b615ef38185615d8b565b935083602082028501615f0585615d9c565b8060005b85811015615f415784840389528151615f228582615ebd565b9450615f2d83615ed1565b925060208a01995050600181019050615f09565b50829750879550505050505092915050565b60006020820190508181036000830152615f6d8184615ede565b905092915050565b600082825260208201905092915050565b6000615f9182615dc5565b615f9b8185615f75565b9350615fab818560208601615de1565b615fb481615e14565b840191505092915050565b60006020820190508181036000830152615fd98184615f86565b905092915050565b615fea81615d15565b82525050565b60006020820190506160056000830184615fe1565b92915050565b61601481615dac565b811461601f57600080fd5b50565b6000813590506160318161600b565b92915050565b60006020828403121561604d5761604c615c30565b5b600061605b84828501616022565b91505092915050565b6000806040838503121561607b5761607a615c30565b5b600061608985828601615d3e565b925050602061609a85828601616022565b9150509250929050565b6160ad81615dac565b82525050565b60006020820190506160c860008301846160a4565b92915050565b6000806000606084860312156160e7576160e6615c30565b5b60006160f586828701615d3e565b935050602061610686828701615d3e565b925050604061611786828701616022565b9150509250925092565b6000806040838503121561613857616137615c30565b5b600061614685828601616022565b925050602061615785828601616022565b9150509250929050565b60006040820190506161766000830185615fe1565b61618360208301846160a4565b9392505050565b61619381615cbf565b811461619e57600080fd5b50565b6000813590506161b08161618a565b92915050565b6000602082840312156161cc576161cb615c30565b5b60006161da848285016161a1565b91505092915050565b6000819050919050565b60006162086162036161fe84615cf5565b6161e3565b615cf5565b9050919050565b600061621a826161ed565b9050919050565b600061622c8261620f565b9050919050565b61623c81616221565b82525050565b60006020820190506162576000830184616233565b92915050565b600080fd5b600061010082840312156162795761627861625d565b5b81905092915050565b6000806040838503121561629957616298615c30565b5b600083013567ffffffffffffffff8111156162b7576162b6615c35565b5b6162c385828601616262565b92505060206162d4858286016161a1565b9150509250929050565b600061ffff82169050919050565b6162f5816162de565b82525050565b60006040820190506163106000830185615fe1565b61631d60208301846162ec565b9392505050565b60006080828403121561633a5761633961625d565b5b81905092915050565b600080fd5b600080fd5b7f4e487b7100000000000000000000000000000000000000000000000000000000600052604160045260246000fd5b61638582615e14565b810181811067ffffffffffffffff821117156163a4576163a361634d565b5b80604052505050565b60006163b7615c26565b90506163c3828261637c565b919050565b600067ffffffffffffffff8211156163e3576163e261634d565b5b6163ec82615e14565b9050602081019050919050565b82818337600083830152505050565b600061641b616416846163c8565b6163ad565b90508281526020810184848401111561643757616436616348565b5b6164428482856163f9565b509392505050565b600082601f83011261645f5761645e616343565b5b813561646f848260208601616408565b91505092915050565b60008060008060008060c0878903121561649557616494615c30565b5b60006164a389828a01615d3e565b96505060206164b489828a01616022565b95505060406164c589828a01615d3e565b94505060606164d689828a01616022565b935050608087013567ffffffffffffffff8111156164f7576164f6615c35565b5b61650389828a01616324565b92505060a087013567ffffffffffffffff81111561652457616523615c35565b5b61653089828a0161644a565b9150509295509295509295565b600067ffffffffffffffff8211156165585761655761634d565b5b61656182615e14565b9050602081019050919050565b600061658161657c8461653d565b6163ad565b90508281526020810184848401111561659d5761659c616348565b5b6165a88482856163f9565b509392505050565b600082601f8301126165c5576165c4616343565b5b81356165d584826020860161656e565b91505092915050565b6000602082840312156165f4576165f3615c30565b5b600082013567ffffffffffffffff81111561661257616611615c35565b5b61661e848285016165b0565b91505092915050565b6000806000606084860312156166405761663f615c30565b5b600061664e86828701616022565b935050602061665f86828701615d3e565b925050604061667086828701616022565b9150509250925092565b600080fd5b600080fd5b60008083601f84011261669a57616699616343565b5b8235905067ffffffffffffffff8111156166b7576166b661667a565b5b6020830191508360018202830111156166d3576166d261667f565b5b9250929050565b6000806000604084860312156166f3576166f2615c30565b5b600061670186828701616022565b935050602084013567ffffffffffffffff81111561672257616721615c35565b5b61672e86828701616684565b92509250509250925092565b600081519050919050565b600082825260208201905092915050565b60006167618261673a565b61676b8185616745565b935061677b818560208601615de1565b61678481615e14565b840191505092915050565b600060208201905081810360008301526167a98184616756565b905092915050565b600080604083850312156167c8576167c7615c30565b5b60006167d685828601615d3e565b92505060206167e7858286016161a1565b9150509250929050565b60008083601f84011261680757616806616343565b5b8235905067ffffffffffffffff8111156168245761682361667a565b5b6020830191508360208202830111156168405761683f61667f565b5b9250929050565b6000806020838503121561685e5761685d615c30565b5b600083013567ffffffffffffffff81111561687c5761687b615c35565b5b616888858286016167f1565b92509250509250929050565b600081519050919050565b600082825260208201905092915050565b6000819050602082019050919050565b600082825260208201905092915050565b60006168dc8261673a565b6168e681856168c0565b93506168f6818560208601615de1565b6168ff81615e14565b840191505092915050565b600061691683836168d1565b905092915050565b6000602082019050919050565b600061693682616894565b616940818561689f565b935083602082028501616952856168b0565b8060005b8581101561698e578484038952815161696f858261690a565b945061697a8361691e565b925060208a01995050600181019050616956565b50829750879550505050505092915050565b600060208201905081810360008301526169ba818461692b565b905092915050565b600080600080608085870312156169dc576169db615c30565b5b60006169ea87828801615d3e565b94505060206169fb87828801615d3e565b9350506040616a0c87828801616022565b925050606085013567ffffffffffffffff811115616a2d57616a2c615c35565b5b616a398782880161644a565b91505092959194509250565b60008083601f840112616a5b57616a5a616343565b5b8235905067ffffffffffffffff811115616a7857616a7761667a565b5b602083019150836001820283011115616a9457616a9361667f565b5b9250929050565b600080600080600060608688031215616ab757616ab6615c30565b5b6000616ac588828901616022565b955050602086013567ffffffffffffffff811115616ae657616ae5615c35565b5b616af288828901616a45565b9450945050604086013567ffffffffffffffff811115616b1557616b14615c35565b5b616b2188828901616684565b92509250509295509295909350565b6000819050919050565b616b4381616b30565b82525050565b600061010082019050616b5f600083018b6160a4565b616b6c602083018a6160a4565b616b7960408301896160a4565b616b8660608301886160a4565b616b936080830187616b3a565b616ba060a08301866160a4565b616bad60c0830185615fe1565b81810360e0830152616bbf8184615f86565b90509998505050505050505050565b600080600060408486031215616be757616be6615c30565b5b600084013567ffffffffffffffff811115616c0557616c04615c35565b5b616c118682870161644a565b935050602084013567ffffffffffffffff811115616c3257616c31615c35565b5b616c3e86828701616684565b92509250509250925092565b60008060408385031215616c6157616c60615c30565b5b6000616c6f85828601615d3e565b9250506020616c8085828601615d3e565b9150509250929050565b600080600080600060a08688031215616ca657616ca5615c30565b5b6000616cb488828901615d3e565b9550506020616cc588828901616022565b9450506040616cd688828901615d3e565b9350506060616ce788828901616022565b925050608086013567ffffffffffffffff811115616d0857616d07615c35565b5b616d1488828901616324565b9150509295509295909350565b7f4e487b7100000000000000000000000000000000000000000000000000000000600052603260045260246000fd5b7f4e487b7100000000000000000000000000000000000000000000000000000000600052601160045260246000fd5b6000616d8a82615dac565b91507fffffffffffffffffffffffffffffffffffffffffffffffffffffffffffffffff8203616dbc57616dbb616d50565b5b600182019050919050565b7f4e487b7100000000000000000000000000000000000000000000000000000000600052602260045260246000fd5b60006002820490506001821680616e0e57607f821691505b602082108103616e2157616e20616dc7565b5b50919050565b7f4e6f7420617574686f72697a6564000000000000000000000000000000000000600082015250565b6000616e5d600e83615f75565b9150616e6882616e27565b602082019050919050565b60006020820190508181036000830152616e8c81616e50565b9050919050565b7f496e76616c696420696e64657800000000000000000000000000000000000000600082015250565b6000616ec9600d83615f75565b9150616ed482616e93565b602082019050919050565b60006020820190508181036000830152616ef881616ebc565b9050919050565b6000616f0a82615dac565b9150616f1583615dac565b9250817fffffffffffffffffffffffffffffffffffffffffffffffffffffffffffffffff0483118215151615616f4e57616f4d616d50565b5b828202905092915050565b7f4e487b7100000000000000000000000000000000000000000000000000000000600052601260045260246000fd5b6000616f9382615dac565b9150616f9e83615dac565b925082616fae57616fad616f59565b5b828204905092915050565b7f455243373231456e756d657261626c653a206f776e657220696e646578206f7560008201527f74206f6620626f756e6473000000000000000000000000000000000000000000602082015250565b6000617015602b83615f75565b915061702082616fb9565b604082019050919050565b6000602082019050818103600083015261704481617008565b9050919050565b7f4e6f7420617574686f72697a656420746f20736574206f70657261746f72207260008201527f65737472696374696f6e2e000000000000000000000000000000000000000000602082015250565b60006170a7602b83615f75565b91506170b28261704b565b604082019050919050565b600060208201905081810360008301526170d68161709a565b9050919050565b60008160601b9050919050565b60006170f5826170dd565b9050919050565b6000617107826170ea565b9050919050565b61711f61711a82615d15565b6170fc565b82525050565b6000819050919050565b61714061713b82615dac565b617125565b82525050565b6000617152828561710e565b601482019150617162828461712f565b6020820191508190509392505050565b7f6d617820737570706c7920636c61696d65640000000000000000000000000000600082015250565b60006171a8601283615f75565b91506171b382617172565b602082019050919050565b600060208201905081810360008301526171d78161719b565b9050919050565b600080fd5b600080fd5b600080fd5b6000808335600160200384360303811261720a576172096171de565b5b80840192508235915067ffffffffffffffff82111561722c5761722b6171e3565b5b602083019250600182023603831315617248576172476171e8565b5b509250929050565b600061725f6020840184616022565b905092915050565b61727081616b30565b811461727b57600080fd5b50565b60008135905061728d81617267565b92915050565b60006172a2602084018461727e565b905092915050565b6172b381616b30565b82525050565b60006172c86020840184615d3e565b905092915050565b6172d981615d15565b82525050565b600080fd5b600080fd5b600080fd5b6000808335600160200384360303811261730b5761730a6172e9565b5b83810192508235915060208301925067ffffffffffffffff821115617333576173326172df565b5b600182023603831315617349576173486172e4565b5b509250929050565b600061735d8385615dd0565b935061736a8385846163f9565b61737383615e14565b840190509392505050565b600061010083016173926000840184617250565b61739f6000860182615db6565b506173ad6020840184617250565b6173ba6020860182615db6565b506173c86040840184617250565b6173d56040860182615db6565b506173e36060840184617250565b6173f06060860182615db6565b506173fe6080840184617293565b61740b60808601826172aa565b5061741960a0840184617250565b61742660a0860182615db6565b5061743460c08401846172b9565b61744160c08601826172d0565b5061744f60e08401846172ee565b85830360e0870152617462838284617351565b925050508091505092915050565b6000604082019050818103600083015261748a818561737e565b90506174996020830184615ccb565b9392505050565b7f455243373231456e756d657261626c653a20676c6f62616c20696e646578206f60008201527f7574206f6620626f756e64730000000000000000000000000000000000000000602082015250565b60006174fc602c83615f75565b9150617507826174a0565b604082019050919050565b6000602082019050818103600083015261752b816174ef565b9050919050565b600061753d82615dac565b915061754883615dac565b9250827fffffffffffffffffffffffffffffffffffffffffffffffffffffffffffffffff0382111561757d5761757c616d50565b5b828201905092915050565b7f4e6f7468696e6720746f2072657665616c000000000000000000000000000000600082015250565b60006175be601183615f75565b91506175c982617588565b602082019050919050565b600060208201905081810360008301526175ed816175b1565b9050919050565b6000617607617602846163c8565b6163ad565b90508281526020810184848401111561762357617622616348565b5b61762e848285615de1565b509392505050565b600082601f83011261764b5761764a616343565b5b815161765b8482602086016175f4565b91505092915050565b60008151905061767381617267565b92915050565b600080604083850312156176905761768f615c30565b5b600083015167ffffffffffffffff8111156176ae576176ad615c35565b5b6176ba85828601617636565b92505060206176cb85828601617664565b9150509250929050565b600081905092915050565b60006176eb82615dc5565b6176f581856176d5565b9350617705818560208601615de1565b80840191505092915050565b600081905092915050565b60006177288385617711565b93506177358385846163f9565b82840190509392505050565b600061774d82876176e0565b915061775a82858761771c565b9150617766828461712f565b60208201915081905095945050505050565b7f496e636f7272656374206b657900000000000000000000000000000000000000600082015250565b60006177ae600d83615f75565b91506177b982617778565b602082019050919050565b600060208201905081810360008301526177dd816177a1565b9050919050565b60008083356001602003843603038112617801576178006171de565b5b80840192508235915067ffffffffffffffff821115617823576178226171e3565b5b60208301925060018202360383131561783f5761783e6171e8565b5b509250929050565b7f68747470733a2f2f000000000000000000000000000000000000000000000000600082015250565b600061787d6008836176d5565b915061788882617847565b600882019050919050565b7f2e697066732e6e667473746f726167652e6c696e6b2f7072652f000000000000600082015250565b60006178c9601a836176d5565b91506178d482617893565b601a82019050919050565b7f2e6a706700000000000000000000000000000000000000000000000000000000600082015250565b60006179156004836176d5565b9150617920826178df565b600482019050919050565b600061793682617870565b915061794282856176e0565b915061794d826178bc565b915061795982846176e0565b915061796482617908565b91508190509392505050565b600061797b8261673a565b6179858185617711565b9350617995818560208601615de1565b80840191505092915050565b60006179ad8285617970565b91506179b98284617970565b91508190509392505050565b7f2e697066732e6e667473746f726167652e6c696e6b2f706f73742f726564656560008201527f6d65645f00000000000000000000000000000000000000000000000000000000602082015250565b6000617a216024836176d5565b9150617a2c826179c5565b602482019050919050565b6000617a4282617870565b9150617a4e82856176e0565b9150617a5982617a14565b9150617a6582846176e0565b9150617a7082617908565b91508190509392505050565b7f7b00000000000000000000000000000000000000000000000000000000000000600082015250565b6000617ab26001836176d5565b9150617abd82617a7c565b600182019050919050565b7f226e616d65223a202246616c6c656e20416e67656c2054657175696c61202300600082015250565b6000617afe601f836176d5565b9150617b0982617ac8565b601f82019050919050565b7f222c000000000000000000000000000000000000000000000000000000000000600082015250565b6000617b4a6002836176d5565b9150617b5582617b14565b600282019050919050565b7f226465736372697074696f6e223a202254686520696e6175677572616c20647260008201527f6f70206f662046616c6c656e20416e67656c2054657175696c612c206120737560208201527f7065722d7072656d69756d207265706f7361646f206d6164652066726f6d203160408201527f30302520426c75652057656265722041676176652e204120636f6c6c61626f7260608201527f6174696f6e206265747765656e204d65746120416e67656c7320616e64204c6960808201527f7175696420436f6c6c656374696f6e732c2074686973204c69717569642d626160a08201527f636b656420746f6b656e2066656174757265732074686520626561757469667560c08201527f6c20617274776f726b2066726f6d2041736c616e205275627920616e6420697360e08201527f2072656465656d61626c6520666f72206f7572206c696d6974656420656469746101008201527f696f6e2046616c6c656e20416e67656c2054657175696c612e202052657475726101208201527f6e20746f20746869732070616765206174204c697175696420436f6c6c6563746101408201527f696f6e7320666f72206164646974696f6e616c2074657175696c6120646574616101608201527f696c7320616e6420726564656d7074696f6e20696e666f726d6174696f6e20696101808201527f6e20466562727561727920323032333a2068747470733a2f2f6c6971756964636101a08201527f6f6c6c656374696f6e732e636f6d2f636f6c6c656374696f6e732f66616c6c656101c08201527f6e2d616e67656c2d74657175696c61222c0000000000000000000000000000006101e082015250565b6000617dd96101f1836176d5565b9150617de482617b60565b6101f182019050919050565b7f22696d616765223a202200000000000000000000000000000000000000000000600082015250565b6000617e26600a836176d5565b9150617e3182617df0565b600a82019050919050565b7f22616e696d6174696f6e5f75726c223a20220000000000000000000000000000600082015250565b6000617e726012836176d5565b9150617e7d82617e3c565b601282019050919050565b7f2261747472696275746573223a205b207b202274726169745f74797065223a2060008201527f22537069726974222c202276616c7565223a202254657175696c6122207d2c2060208201527f7b202274726169745f74797065223a202250726f76656e616e6365222c20227660408201527f616c7565223a20224a616c6973636f2c204d5822207d2c207b2022747261697460608201527f5f74797065223a202250726f6f66222c202276616c7565223a2022383022207d60808201527f2c207b202274726169745f74797065223a202253697a65222c202276616c756560a08201527f223a20223735306d6c22207d2c207b202274726169745f74797065223a20224160c08201527f67617665222c202276616c7565223a20223130302520426c756520576562657260e08201527f22207d2c207b202274726169745f74797065223a20224261746368222c2022766101008201527f616c7565223a20224f6e6522207d2c207b202274726169745f74797065223a206101208201527f2244697374696c6c6564222c202276616c7565223a20223230323222207d2c206101408201527f7b202274726169745f74797065223a202254657175696c612054797065222c206101608201527f2276616c7565223a20225265706f7361646f22207d2c207b202274726169745f6101808201527f74797065223a2022506172746e6572222c202276616c7565223a20224d6574616101a08201527f20416e67656c7322207d2c207b202274726169745f74797065223a20224272616101c08201527f6e64222c202276616c7565223a202246616c6c656e20416e67656c22207d2c206101e08201527f7b202274726169745f74797065223a2022417274697374222c202276616c75656102008201527f223a202241736c616e205275627922207d205d2c00000000000000000000000061022082015250565b600061814f610234836176d5565b915061815a82617e88565b61023482019050919050565b7f2272656465656d61626c65223a20000000000000000000000000000000000000600082015250565b600061819c600e836176d5565b91506181a782618166565b600e82019050919050565b50565b60006181c26000836176d5565b91506181cd826181b2565b600082019050919050565b7f7d00000000000000000000000000000000000000000000000000000000000000600082015250565b600061820e6001836176d5565b9150618219826181d8565b600182019050919050565b600061822f82617aa5565b915061823a82617af1565b915061824682876176e0565b915061825182617b3d565b915061825c82617dcb565b915061826782617e19565b91506182738286617970565b915061827e82617b3d565b915061828982617e65565b91506182958285617970565b91506182a082617b3d565b91506182ab82618141565b91506182b68261818f565b91506182c282846176e0565b91506182cd826181b5565b91506182d882618201565b915081905095945050505050565b7f646174613a6170706c69636174696f6e2f6a736f6e3b6261736536342c000000600082015250565b600061831c601d836176d5565b9150618327826182e6565b601d82019050919050565b600061833d8261830f565b915061834982846176e0565b915081905092915050565b6000806040838503121561836b5761836a615c30565b5b600083013567ffffffffffffffff81111561838957618388615c35565b5b6183958582860161644a565b92505060206183a68582860161727e565b9150509250929050565b7f4c6971756964436f6c6c656374696f6e733a20546f6b656e20646f6573206e6f60008201527f7420657869737400000000000000000000000000000000000000000000000000602082015250565b600061840c602783615f75565b9150618417826183b0565b604082019050919050565b6000602082019050818103600083015261843b816183ff565b9050919050565b7f4c6971756964436f6c6c656374696f6e733a20596f7520617265206e6f74207460008201527f6865206f776e6572206f66207468697320746f6b656e00000000000000000000602082015250565b600061849e603683615f75565b91506184a982618442565b604082019050919050565b600060208201905081810360008301526184cd81618491565b9050919050565b7f4c6971756964436f6c6c656374696f6e733a204e465420697320616c6561647960008201527f2072656465656d65640000000000000000000000000000000000000000000000602082015250565b6000618530602983615f75565b915061853b826184d4565b604082019050919050565b6000602082019050818103600083015261855f81618523565b9050919050565b600061857382858761771c565b915061857f828461712f565b602082019150819050949350505050565b600080833560016020038436030381126185ad576185ac6171de565b5b80840192508235915067ffffffffffffffff8211156185cf576185ce6171e3565b5b6020830192506020820236038313156185eb576185ea6171e8565b5b509250929050565b60006185ff828761710e565b60148201915061860f828661712f565b60208201915061861f828561712f565b60208201915061862f828461710e565b60148201915081905095945050505050565b7f2150726963654f7243757272656e637900000000000000000000000000000000600082015250565b6000618677601083615f75565b915061868282618641565b602082019050919050565b600060208201905081810360008301526186a68161866a565b9050919050565b7f2151747900000000000000000000000000000000000000000000000000000000600082015250565b60006186e3600483615f75565b91506186ee826186ad565b602082019050919050565b60006020820190508181036000830152618712816186d6565b9050919050565b7f214d6178537570706c7900000000000000000000000000000000000000000000600082015250565b600061874f600a83615f75565b915061875a82618719565b602082019050919050565b6000602082019050818103600083015261877e81618742565b9050919050565b7f63616e7420636c61696d20796574000000000000000000000000000000000000600082015250565b60006187bb600e83615f75565b91506187c682618785565b602082019050919050565b600060208201905081810360008301526187ea816187ae565b9050919050565b60006040820190506188066000830185615fe1565b6188136020830184615fe1565b9392505050565b6000815190506188298161618a565b92915050565b60006020828403121561884557618844615c30565b5b60006188538482850161881a565b91505092915050565b7f45786365656473206d6178206270730000000000000000000000000000000000600082015250565b6000618892600f83615f75565b915061889d8261885c565b602082019050919050565b600060208201905081810360008301526188c181618885565b9050919050565b7f4e6f7420656e6f756768206d696e74656420746f6b656e730000000000000000600082015250565b60006188fe601883615f75565b9150618909826188c8565b602082019050919050565b6000602082019050818103600083015261892d816188f1565b9050919050565b7f4d7573742073656e6420746f74616c2070726963650000000000000000000000600082015250565b600061896a601583615f75565b915061897582618934565b602082019050919050565b600060208201905081810360008301526189998161895d565b9050919050565b600060408201905081810360008301526189ba8185615f86565b905081810360208301526189ce8184615f86565b90509392505050565b7f3020616d74000000000000000000000000000000000000000000000000000000600082015250565b6000618a0d600583615f75565b9150618a18826189d7565b602082019050919050565b60006020820190508181036000830152618a3c81618a00565b9050919050565b6000618a4e82615dac565b9150618a5983615dac565b925082821015618a6c57618a6b616d50565b5b828203905092915050565b6000618a838385615f75565b9350618a908385846163f9565b618a9983615e14565b840190509392505050565b6000618ab08385616745565b9350618abd8385846163f9565b618ac683615e14565b840190509392505050565b6000606082019050618ae660008301886160a4565b8181036020830152618af9818688618a77565b90508181036040830152618b0e818486618aa4565b90509695505050505050565b6000819050919050565b618b35618b3082616b30565b618b1a565b82525050565b6000618b478285618b24565b602082019150618b578284618b24565b6020820191508190509392505050565b7f416464726573733a2064656c65676174652063616c6c20746f206e6f6e2d636f60008201527f6e74726163740000000000000000000000000000000000000000000000000000602082015250565b6000618bc3602683615f75565b9150618bce82618b67565b604082019050919050565b60006020820190508181036000830152618bf281618bb6565b9050919050565b6000618c058284617970565b915081905092915050565b6000608082019050618c256000830187615fe1565b618c326020830186615fe1565b618c3f60408301856160a4565b8181036060830152618c518184616756565b905095945050505050565b600081519050618c6b81615c66565b92915050565b600060208284031215618c8757618c86615c30565b5b6000618c9584828501618c5c565b91505092915050565b7f4e487b7100000000000000000000000000000000000000000000000000000000600052603160045260246000fd5b6000618cda600083617711565b9150618ce5826181b2565b600082019050919050565b6000618cfb82618ccd565b9150819050919050565b7f6e617469766520746f6b656e207472616e73666572206661696c656400000000600082015250565b6000618d3b601c83615f75565b9150618d4682618d05565b602082019050919050565b60006020820190508181036000830152618d6a81618d2e565b9050919050565b6000606082019050618d866000830186615fe1565b618d936020830185615fe1565b618da060408301846160a4565b949350505050565b7f5361666545524332303a204552433230206f7065726174696f6e20646964206e60008201527f6f74207375636365656400000000000000000000000000000000000000000000602082015250565b6000618e04602a83615f75565b9150618e0f82618da8565b604082019050919050565b60006020820190508181036000830152618e3381618df7565b9050919050565b7f416464726573733a20696e73756666696369656e742062616c616e636520666f60008201527f722063616c6c0000000000000000000000000000000000000000000000000000602082015250565b6000618e96602683615f75565b9150618ea182618e3a565b604082019050919050565b60006020820190508181036000830152618ec581618e89565b9050919050565b7f416464726573733a2063616c6c20746f206e6f6e2d636f6e7472616374000000600082015250565b6000618f02601d83615f75565b9150618f0d82618ecc565b602082019050919050565b60006020820190508181036000830152618f3181618ef5565b905091905056fe4142434445464748494a4b4c4d4e4f505152535455565758595a6162636465666768696a6b6c6d6e6f707172737475767778797a303132333435363738392b2f416464726573733a206c6f772d6c6576656c2064656c65676174652063616c6c206661696c6564626166796265696178756361737a626d6b367a6d6a746d7869787a72696677646f6c346b686a7671326d336f65773634756b6c6979376976756734a2646970667358221220b221e6d1cb4a38a64a0f2fc351e842fb8ba3ff45040fcf2543e3b3239222560a64736f6c634300080e0033",
  "immutableReferences": {},
  "source": "import \"@openzeppelin/contracts/utils/Strings.sol\";\nimport \"@openzeppelin/contracts/utils/Base64.sol\";\n\nimport \"./LiquidCollections.sol\";\n\ncontract FallenAngels is LiquidCollections {\n  constructor(\n    string memory _name,\n    string memory _symbol,\n    address _royaltyRecipient,\n    uint128 _royaltyBps,\n    address _primarySaleRecipient\n  )\n    LiquidCollections(\n      _name,\n      _symbol,\n      _royaltyRecipient,\n      _royaltyBps,\n      _primarySaleRecipient\n    )\n  {}\n\n  /*///////////////////////////////////////////////////////////////\n                    Overriden ERC 721 logic\n    //////////////////////////////////////////////////////////////*/\n\n  /**\n   *  @notice         Returns the metadata URI for an NFT.\n   *  @dev            See `BatchMintMetadata` for handling of metadata in this contract.\n   *\n   *  @param _tokenId The tokenId of an NFT.\n   */\n  function tokenURI(uint256 _tokenId)\n    public\n    view\n    virtual\n    override\n    returns (string memory)\n  {\n    string\n      memory cid = \"bafybeiaxucaszbmk6zmjtmxixzrifwdol4khjvq2m3oew64ukliy7ivug4\";\n    string memory fancyId = Strings.toString(_tokenId + 1);\n    string memory redeemed = \" [REDEEMED]\";\n    string memory nameFancyIdAndRedeemedMaybe;\n    string memory redeemable;\n    bytes memory animationurl;\n\n    if (isRedeemable(_tokenId)) {\n      redeemable = \"true\";\n      nameFancyIdAndRedeemedMaybe = fancyId;\n      animationurl = abi.encodePacked(\n        \"https://\",\n        cid,\n        \".ipfs.nftstorage.link/pre/\",\n        fancyId,\n        \".jpg\"\n      );\n    } else {\n      redeemable = \"false\";\n      nameFancyIdAndRedeemedMaybe = string(\n        bytes.concat(bytes(fancyId), bytes(redeemed))\n      );\n      animationurl = abi.encodePacked(\n        \"https://\",\n        cid,\n        \".ipfs.nftstorage.link/post/redeemed_\",\n        fancyId,\n        \".jpg\"\n      );\n    }\n\n    bytes memory dataURI = abi.encodePacked(\n      \"{\",\n      '\"name\": \"Fallen Angel Tequila #',\n      nameFancyIdAndRedeemedMaybe,\n      '\",',\n      '\"description\": \"The inaugural drop of Fallen Angel Tequila, a super-premium reposado made from 100% Blue Weber Agave. A collaboration between Meta Angels and Liquid Collections, this Liquid-backed token features the beautiful artwork from Aslan Ruby and is redeemable for our limited edition Fallen Angel Tequila.  Return to this page at Liquid Collections for additional tequila details and redemption information in February 2023: https://liquidcollections.com/collections/fallen-angel-tequila\",',\n      '\"image\": \"',\n      animationurl,\n      '\",',\n      '\"animation_url\": \"',\n      animationurl,\n      '\",',\n      '\"attributes\": [ { \"trait_type\": \"Spirit\", \"value\": \"Tequila\" }, { \"trait_type\": \"Provenance\", \"value\": \"Jalisco, MX\" }, { \"trait_type\": \"Proof\", \"value\": \"80\" }, { \"trait_type\": \"Size\", \"value\": \"750ml\" }, { \"trait_type\": \"Agave\", \"value\": \"100% Blue Weber\" }, { \"trait_type\": \"Batch\", \"value\": \"One\" }, { \"trait_type\": \"Distilled\", \"value\": \"2022\" }, { \"trait_type\": \"Tequila Type\", \"value\": \"Reposado\" }, { \"trait_type\": \"Partner\", \"value\": \"Meta Angels\" }, { \"trait_type\": \"Brand\", \"value\": \"Fallen Angel\" }, { \"trait_type\": \"Artist\", \"value\": \"Aslan Ruby\" } ],',\n      '\"redeemable\": ',\n      redeemable,\n      \"\",\n      \"}\"\n    );\n\n    return\n      string(\n        abi.encodePacked(\n          \"data:application/json;base64,\",\n          Base64.encode(dataURI)\n        )\n      );\n  }\n\n  // /*///////////////////////////////////////////////////////////////\n  //                 Overriden ERC 721 logic\n  // //////////////////////////////////////////////////////////////*/\n\n  // /**\n  //  *  @notice         Returns the metadata URI for an NFT.\n  //  *  @dev            See `BatchMintMetadata` for handling of metadata in this contract.\n  //  *\n  //  *  @param _tokenId The tokenId of an NFT.\n  //  */\n  // function tokenURI(uint256 _tokenId)\n  //     public\n  //     view\n  //     virtual\n  //     override\n  //     returns (string memory)\n  // {\n  //     string memory uid = Strings.toString(_tokenId);\n  //     bytes memory dataURI = abi.encodePacked(\n  //         \"{\",\n  //         '\"name\": \"My721Token #',\n  //         uid,\n  //         '\"image\": \"image #',\n  //         uid,\n  //         '\"',\n  //         '\"foo\": \"bar\"',\n  //         // Replace with extra ERC721 Metadata properties\n  //         \"}\"\n  //     );\n\n  //     return\n  //         string(\n  //             abi.encodePacked(\n  //                 \"data:application/json;base64,\",\n  //                 Base64.encode(dataURI)\n  //             )\n  //         );\n  // }\n}\n",
  "sourcePath": "/Users/adam/Code/kokomoBay/contracts/FallenAngels.sol",
  "compiler": {
    "name": "solc",
    "version": "0.8.14+commit.80d49f37.Emscripten.clang"
  },
  "schemaVersion": "3.4.7",
  "updatedAt": "2023-01-12T19:00:18.891Z",
  "devdoc": {
    "kind": "dev",
    "methods": {
      "approve(address,uint256)": {
        "details": "See {IERC721-approve}."
      },
      "balanceOf(address)": {
        "details": "See {IERC721-balanceOf}."
      },
      "burn(uint256)": {
        "details": "ERC721A's `_burn(uint256,bool)` internally checks for token approvals.",
        "params": {
          "_tokenId": "The tokenId of the NFT to burn."
        }
      },
      "claim(address,uint256,address,uint256,(bytes32[],uint256,uint256,address),bytes)": {
        "details": "Lets an account claim tokens."
      },
      "encryptDecrypt(bytes,bytes)": {
        "details": "Encrypt/decrypt given `data` with `key`. Uses inline assembly.                  See: https://ethereum.stackexchange.com/questions/69825/decrypt-message-on-chain",
        "params": {
          "data": "Bytes of data to encrypt/decrypt.",
          "key": "Secure key used by caller for encryption/decryption."
        },
        "returns": {
          "result": " Output after encryption/decryption of given data."
        }
      },
      "getApproved(uint256)": {
        "details": "See {IERC721-getApproved}."
      },
      "getBaseURICount()": {
        "details": "Each batch of tokens has an in ID and an associated `baseURI`.                  See {batchIds}."
      },
      "getBatchIdAtIndex(uint256)": {
        "details": "See {getBaseURICount}.",
        "params": {
          "_index": "ID of a token."
        }
      },
      "getRevealURI(uint256,bytes)": {
        "details": "Reveal encrypted base URI for `_batchId` with caller/admin's `_key` used for encryption.                      Reverts if there's no encrypted URI for `_batchId`.                      See {encryptDecrypt}.",
        "params": {
          "_batchId": "ID of the batch for which URI is being revealed.",
          "_key": "Secure key used by caller/admin for encryption of baseURI."
        },
        "returns": {
          "revealedURI": "Decrypted base URI."
        }
      },
      "getRoyaltyInfoForToken(uint256)": {
        "details": "Returns royalty recipient and bps for `_tokenId`.",
        "params": {
          "_tokenId": "The tokenID of the NFT for which to query royalty info."
        }
      },
      "getSupplyClaimedByWallet(address)": {
        "details": "Returns the supply claimed by claimer for active conditionId."
      },
      "isApprovedForAll(address,address)": {
        "details": "See {IERC721-isApprovedForAll}."
      },
      "isEncryptedBatch(uint256)": {
        "details": "Returns `true` if `_batchId`'s base URI is encrypted.",
        "params": {
          "_batchId": "ID of a batch of NFTs."
        }
      },
      "lazyMint(uint256,string,bytes)": {
        "params": {
          "_amount": "The number of NFTs to lazy mint.",
          "_baseURIForTokens": "The placeholder base URI for the 'n' number of NFTs being lazy minted, where the                           metadata for each of those NFTs is `${baseURIForTokens}/${tokenId}`.",
          "_data": "The encrypted base URI + provenance hash for the batch of NFTs being lazy minted."
        },
        "returns": {
          "batchId": "         A unique integer identifier for the batch of NFTs lazy minted together."
        }
      },
      "multicall(bytes[])": {
        "details": "Receives and executes a batch of function calls on this contract.",
        "params": {
          "data": "The bytes data that makes up the batch of function calls to execute."
        },
        "returns": {
          "results": "The bytes data that makes up the result of the batch of function calls executed."
        }
      },
      "name()": {
        "details": "See {IERC721Metadata-name}."
      },
      "ownerOf(uint256)": {
        "details": "See {IERC721-ownerOf}."
      },
      "primarySaleRecipient()": {
        "details": "Returns primary sale recipient address."
      },
      "reveal(uint256,bytes)": {
        "params": {
          "_index": "The ID for the batch of delayed-reveal NFTs to reveal.",
          "_key": "The key with which the base URI for the relevant batch of NFTs was encrypted."
        }
      },
      "royaltyInfo(uint256,uint256)": {
        "details": "Returns royalty amount and recipient for `tokenId` and `salePrice`.",
        "params": {
          "salePrice": "Sale price of the token.",
          "tokenId": "The tokenID of the NFT for which to query royalty info."
        },
        "returns": {
          "receiver": "       Address of royalty recipient account.",
          "royaltyAmount": "  Royalty amount calculated at current royaltyBps value."
        }
      },
      "safeTransferFrom(address,address,uint256)": {
        "details": "See {IERC721-safeTransferFrom}."
      },
      "setApprovalForAll(address,bool)": {
        "details": "See {IERC721-setApprovalForAll}."
      },
      "setClaimConditions((uint256,uint256,uint256,uint256,bytes32,uint256,address,string),bool)": {
        "details": "Lets a contract admin set claim conditions."
      },
      "setContractURI(string)": {
        "details": "Caller should be authorized to setup contractURI, e.g. contract admin.                  See {_canSetContractURI}.                  Emits {ContractURIUpdated Event}.",
        "params": {
          "_uri": "keccak256 hash of the role. e.g. keccak256(\"TRANSFER_ROLE\")"
        }
      },
      "setDefaultRoyaltyInfo(address,uint256)": {
        "details": "Caller should be authorized to set royalty info.                  See {_canSetRoyaltyInfo}.                  Emits {DefaultRoyalty Event}; See {_setupDefaultRoyaltyInfo}.",
        "params": {
          "_royaltyBps": "Updated royalty bps.",
          "_royaltyRecipient": "Address to be set as default royalty recipient."
        }
      },
      "setOwner(address)": {
        "params": {
          "_newOwner": "The address to set as the new owner of the contract."
        }
      },
      "setPrimarySaleRecipient(address)": {
        "details": "Caller should be authorized to set primary sales info.                  See {_canSetPrimarySaleRecipient}.                  Emits {PrimarySaleRecipientUpdated Event}; See {_setupPrimarySaleRecipient}.",
        "params": {
          "_saleRecipient": "Address to be set as new recipient of primary sales."
        }
      },
      "setRoyaltyInfoForToken(uint256,address,uint256)": {
        "details": "Sets royalty info for `_tokenId`. Caller should be authorized to set royalty info.                  See {_canSetRoyaltyInfo}.                  Emits {RoyaltyForToken Event}; See {_setupRoyaltyInfoForToken}.",
        "params": {
          "_bps": "Updated royalty bps for the token Id.",
          "_recipient": "Address to be set as royalty recipient for given token Id."
        }
      },
      "supportsInterface(bytes4)": {
        "details": "See ERC165: https://eips.ethereum.org/EIPS/eip-165"
      },
      "symbol()": {
        "details": "See {IERC721Metadata-symbol}."
      },
      "tokenByIndex(uint256)": {
        "details": "See {IERC721Enumerable-tokenByIndex}."
      },
      "tokenOfOwnerByIndex(address,uint256)": {
        "details": "See {IERC721Enumerable-tokenOfOwnerByIndex}."
      },
      "tokenURI(uint256)": {
        "details": "See `BatchMintMetadata` for handling of metadata in this contract.",
        "params": {
          "_tokenId": "The tokenId of an NFT."
        }
      },
      "totalSupply()": {
        "details": "Burned tokens are calculated here, use _totalMinted() if you want to count just minted tokens."
      },
      "transferFrom(address,address,uint256)": {
        "details": "See {IERC721-transferFrom}."
      },
      "verifyClaim(address,uint256,address,uint256,(bytes32[],uint256,uint256,address))": {
        "details": "Checks a request to claim NFTs against the active claim condition's criteria."
      }
    },
    "version": 1
  },
  "userdoc": {
    "errors": {
      "ApprovalCallerNotOwnerNorApproved()": [
        {
          "notice": "The caller must own the token or be an approved operator."
        }
      ],
      "ApprovalQueryForNonexistentToken()": [
        {
          "notice": "The token does not exist."
        }
      ],
      "ApprovalToCurrentOwner()": [
        {
          "notice": "The caller cannot approve to the current owner."
        }
      ],
      "ApproveToCaller()": [
        {
          "notice": "The caller cannot approve to their own address."
        }
      ],
      "BalanceQueryForZeroAddress()": [
        {
          "notice": "Cannot query the balance for the zero address."
        }
      ],
      "MintToZeroAddress()": [
        {
          "notice": "Cannot mint to the zero address."
        }
      ],
      "MintZeroQuantity()": [
        {
          "notice": "The quantity of tokens minted must be more than zero."
        }
      ],
      "OwnerQueryForNonexistentToken()": [
        {
          "notice": "The token does not exist."
        }
      ],
      "TransferCallerNotOwnerNorApproved()": [
        {
          "notice": "The caller must own the token or be an approved operator."
        }
      ],
      "TransferFromIncorrectOwner()": [
        {
          "notice": "The token must be owned by `from`."
        }
      ],
      "TransferToNonERC721ReceiverImplementer()": [
        {
          "notice": "Cannot safely transfer to a contract that does not implement the ERC721Receiver interface."
        }
      ],
      "TransferToZeroAddress()": [
        {
          "notice": "Cannot transfer to the zero address."
        }
      ],
      "URIQueryForNonexistentToken()": [
        {
          "notice": "The token does not exist."
        }
      ]
    },
    "events": {
      "ClaimConditionUpdated((uint256,uint256,uint256,uint256,bytes32,uint256,address,string),bool)": {
        "notice": "Emitted when the contract's claim conditions are updated."
      },
      "TokensClaimed(address,address,uint256,uint256)": {
        "notice": "Emitted when tokens are claimed via `claim`."
      }
    },
    "kind": "user",
    "methods": {
      "burn(uint256)": {
        "notice": "Lets an owner or approved operator burn the NFT of the given tokenId."
      },
      "contractURI()": {
        "notice": "Returns the contract metadata URI."
      },
      "encryptDecrypt(bytes,bytes)": {
        "notice": "Encrypt/decrypt data on chain."
      },
      "getBaseURICount()": {
        "notice": "Returns the count of batches of NFTs."
      },
      "getBatchIdAtIndex(uint256)": {
        "notice": "Returns the ID for the batch of tokens the given tokenId belongs to."
      },
      "getDefaultRoyaltyInfo()": {
        "notice": "Returns the defualt royalty recipient and BPS for this contract's NFTs."
      },
      "getRevealURI(uint256,bytes)": {
        "notice": "Returns revealed URI for a batch of NFTs."
      },
      "getRoyaltyInfoForToken(uint256)": {
        "notice": "View royalty info for a given token."
      },
      "isEncryptedBatch(uint256)": {
        "notice": "Returns whether the relvant batch of NFTs is subject to a delayed reveal."
      },
      "lazyMint(uint256,string,bytes)": {
        "notice": "Lets an authorized address lazy mint a given amount of NFTs."
      },
      "multicall(bytes[])": {
        "notice": "Receives and executes a batch of function calls on this contract."
      },
      "nextTokenIdToClaim()": {
        "notice": "The tokenId assigned to the next new NFT to be claimed."
      },
      "nextTokenIdToMint()": {
        "notice": "The tokenId assigned to the next new NFT to be lazy minted."
      },
      "owner()": {
        "notice": "Returns the owner of the contract."
      },
      "reveal(uint256,bytes)": {
        "notice": "Lets an authorized address reveal a batch of delayed reveal NFTs."
      },
      "royaltyInfo(uint256,uint256)": {
        "notice": "View royalty info for a given token and sale price."
      },
      "setContractURI(string)": {
        "notice": "Lets a contract admin set the URI for contract-level metadata."
      },
      "setDefaultRoyaltyInfo(address,uint256)": {
        "notice": "Updates default royalty recipient and bps."
      },
      "setOwner(address)": {
        "notice": "Lets an authorized wallet set a new owner for the contract."
      },
      "setPrimarySaleRecipient(address)": {
        "notice": "Updates primary sale recipient."
      },
      "setRoyaltyInfoForToken(uint256,address,uint256)": {
        "notice": "Updates default royalty recipient and bps for a particular token."
      },
      "tokenURI(uint256)": {
        "notice": "Returns the metadata URI for an NFT."
      }
    },
    "version": 1
  }
}