{
  "contractName": "LiquidCollections",
  "abi": [
    {
      "inputs": [
        {
          "internalType": "string",
          "name": "_name",
          "type": "string"
        },
        {
          "internalType": "string",
          "name": "_symbol",
          "type": "string"
        },
        {
          "internalType": "address",
          "name": "_royaltyRecipient",
          "type": "address"
        },
        {
          "internalType": "uint128",
          "name": "_royaltyBps",
          "type": "uint128"
        },
        {
          "internalType": "address",
          "name": "_primarySaleRecipient",
          "type": "address"
        }
      ],
      "stateMutability": "nonpayable",
      "type": "constructor"
    },
    {
      "inputs": [],
      "name": "ApprovalCallerNotOwnerNorApproved",
      "type": "error"
    },
    {
      "inputs": [],
      "name": "ApprovalQueryForNonexistentToken",
      "type": "error"
    },
    {
      "inputs": [],
      "name": "ApprovalToCurrentOwner",
      "type": "error"
    },
    {
      "inputs": [],
      "name": "ApproveToCaller",
      "type": "error"
    },
    {
      "inputs": [],
      "name": "BalanceQueryForZeroAddress",
      "type": "error"
    },
    {
      "inputs": [],
      "name": "MintToZeroAddress",
      "type": "error"
    },
    {
      "inputs": [],
      "name": "MintZeroQuantity",
      "type": "error"
    },
    {
      "inputs": [
        {
          "internalType": "address",
          "name": "operator",
          "type": "address"
        }
      ],
      "name": "OperatorNotAllowed",
      "type": "error"
    },
    {
      "inputs": [],
      "name": "OwnerQueryForNonexistentToken",
      "type": "error"
    },
    {
      "inputs": [],
      "name": "TransferCallerNotOwnerNorApproved",
      "type": "error"
    },
    {
      "inputs": [],
      "name": "TransferFromIncorrectOwner",
      "type": "error"
    },
    {
      "inputs": [],
      "name": "TransferToNonERC721ReceiverImplementer",
      "type": "error"
    },
    {
      "inputs": [],
      "name": "TransferToZeroAddress",
      "type": "error"
    },
    {
      "inputs": [],
      "name": "URIQueryForNonexistentToken",
      "type": "error"
    },
    {
      "anonymous": false,
      "inputs": [
        {
          "indexed": true,
          "internalType": "address",
          "name": "owner",
          "type": "address"
        },
        {
          "indexed": true,
          "internalType": "address",
          "name": "approved",
          "type": "address"
        },
        {
          "indexed": true,
          "internalType": "uint256",
          "name": "tokenId",
          "type": "uint256"
        }
      ],
      "name": "Approval",
      "type": "event"
    },
    {
      "anonymous": false,
      "inputs": [
        {
          "indexed": true,
          "internalType": "address",
          "name": "owner",
          "type": "address"
        },
        {
          "indexed": true,
          "internalType": "address",
          "name": "operator",
          "type": "address"
        },
        {
          "indexed": false,
          "internalType": "bool",
          "name": "approved",
          "type": "bool"
        }
      ],
      "name": "ApprovalForAll",
      "type": "event"
    },
    {
      "anonymous": false,
      "inputs": [
        {
          "components": [
            {
              "internalType": "uint256",
              "name": "startTimestamp",
              "type": "uint256"
            },
            {
              "internalType": "uint256",
              "name": "maxClaimableSupply",
              "type": "uint256"
            },
            {
              "internalType": "uint256",
              "name": "supplyClaimed",
              "type": "uint256"
            },
            {
              "internalType": "uint256",
              "name": "quantityLimitPerWallet",
              "type": "uint256"
            },
            {
              "internalType": "bytes32",
              "name": "merkleRoot",
              "type": "bytes32"
            },
            {
              "internalType": "uint256",
              "name": "pricePerToken",
              "type": "uint256"
            },
            {
              "internalType": "address",
              "name": "currency",
              "type": "address"
            },
            {
              "internalType": "string",
              "name": "metadata",
              "type": "string"
            }
          ],
          "indexed": false,
          "internalType": "struct IClaimCondition.ClaimCondition",
          "name": "condition",
          "type": "tuple"
        },
        {
          "indexed": false,
          "internalType": "bool",
          "name": "resetEligibility",
          "type": "bool"
        }
      ],
      "name": "ClaimConditionUpdated",
      "type": "event"
    },
    {
      "anonymous": false,
      "inputs": [
        {
          "indexed": false,
          "internalType": "string",
          "name": "prevURI",
          "type": "string"
        },
        {
          "indexed": false,
          "internalType": "string",
          "name": "newURI",
          "type": "string"
        }
      ],
      "name": "ContractURIUpdated",
      "type": "event"
    },
    {
      "anonymous": false,
      "inputs": [
        {
          "indexed": true,
          "internalType": "address",
          "name": "newRoyaltyRecipient",
          "type": "address"
        },
        {
          "indexed": false,
          "internalType": "uint256",
          "name": "newRoyaltyBps",
          "type": "uint256"
        }
      ],
      "name": "DefaultRoyalty",
      "type": "event"
    },
    {
      "anonymous": false,
      "inputs": [
        {
          "indexed": false,
          "internalType": "bool",
          "name": "restriction",
          "type": "bool"
        }
      ],
      "name": "OperatorRestriction",
      "type": "event"
    },
    {
      "anonymous": false,
      "inputs": [
        {
          "indexed": true,
          "internalType": "address",
          "name": "prevOwner",
          "type": "address"
        },
        {
          "indexed": true,
          "internalType": "address",
          "name": "newOwner",
          "type": "address"
        }
      ],
      "name": "OwnerUpdated",
      "type": "event"
    },
    {
      "anonymous": false,
      "inputs": [
        {
          "indexed": true,
          "internalType": "address",
          "name": "recipient",
          "type": "address"
        }
      ],
      "name": "PrimarySaleRecipientUpdated",
      "type": "event"
    },
    {
      "anonymous": false,
      "inputs": [
        {
          "indexed": true,
          "internalType": "address",
          "name": "from",
          "type": "address"
        },
        {
          "indexed": true,
          "internalType": "uint256",
          "name": "tokenId",
          "type": "uint256"
        }
      ],
      "name": "Redeem",
      "type": "event"
    },
    {
      "anonymous": false,
      "inputs": [
        {
          "indexed": true,
          "internalType": "uint256",
          "name": "tokenId",
          "type": "uint256"
        },
        {
          "indexed": true,
          "internalType": "address",
          "name": "royaltyRecipient",
          "type": "address"
        },
        {
          "indexed": false,
          "internalType": "uint256",
          "name": "royaltyBps",
          "type": "uint256"
        }
      ],
      "name": "RoyaltyForToken",
      "type": "event"
    },
    {
      "anonymous": false,
      "inputs": [
        {
          "indexed": true,
          "internalType": "uint256",
          "name": "index",
          "type": "uint256"
        },
        {
          "indexed": false,
          "internalType": "string",
          "name": "revealedURI",
          "type": "string"
        }
      ],
      "name": "TokenURIRevealed",
      "type": "event"
    },
    {
      "anonymous": false,
      "inputs": [
        {
          "indexed": true,
          "internalType": "address",
          "name": "claimer",
          "type": "address"
        },
        {
          "indexed": true,
          "internalType": "address",
          "name": "receiver",
          "type": "address"
        },
        {
          "indexed": true,
          "internalType": "uint256",
          "name": "startTokenId",
          "type": "uint256"
        },
        {
          "indexed": false,
          "internalType": "uint256",
          "name": "quantityClaimed",
          "type": "uint256"
        }
      ],
      "name": "TokensClaimed",
      "type": "event"
    },
    {
      "anonymous": false,
      "inputs": [
        {
          "indexed": true,
          "internalType": "uint256",
          "name": "startTokenId",
          "type": "uint256"
        },
        {
          "indexed": false,
          "internalType": "uint256",
          "name": "endTokenId",
          "type": "uint256"
        },
        {
          "indexed": false,
          "internalType": "string",
          "name": "baseURI",
          "type": "string"
        },
        {
          "indexed": false,
          "internalType": "bytes",
          "name": "encryptedBaseURI",
          "type": "bytes"
        }
      ],
      "name": "TokensLazyMinted",
      "type": "event"
    },
    {
      "anonymous": false,
      "inputs": [
        {
          "indexed": true,
          "internalType": "address",
          "name": "from",
          "type": "address"
        },
        {
          "indexed": true,
          "internalType": "address",
          "name": "to",
          "type": "address"
        },
        {
          "indexed": true,
          "internalType": "uint256",
          "name": "tokenId",
          "type": "uint256"
        }
      ],
      "name": "Transfer",
      "type": "event"
    },
    {
      "inputs": [],
      "name": "OPERATOR_FILTER_REGISTRY",
      "outputs": [
        {
          "internalType": "contract IOperatorFilterRegistry",
          "name": "",
          "type": "address"
        }
      ],
      "stateMutability": "view",
      "type": "function"
    },
    {
      "inputs": [
        {
          "internalType": "address",
          "name": "to",
          "type": "address"
        },
        {
          "internalType": "uint256",
          "name": "tokenId",
          "type": "uint256"
        }
      ],
      "name": "approve",
      "outputs": [],
      "stateMutability": "nonpayable",
      "type": "function"
    },
    {
      "inputs": [
        {
          "internalType": "address",
          "name": "owner",
          "type": "address"
        }
      ],
      "name": "balanceOf",
      "outputs": [
        {
          "internalType": "uint256",
          "name": "",
          "type": "uint256"
        }
      ],
      "stateMutability": "view",
      "type": "function"
    },
    {
      "inputs": [
        {
          "internalType": "uint256",
          "name": "_tokenId",
          "type": "uint256"
        }
      ],
      "name": "burn",
      "outputs": [],
      "stateMutability": "nonpayable",
      "type": "function"
    },
    {
      "inputs": [
        {
          "internalType": "address",
          "name": "_receiver",
          "type": "address"
        },
        {
          "internalType": "uint256",
          "name": "_quantity",
          "type": "uint256"
        },
        {
          "internalType": "address",
          "name": "_currency",
          "type": "address"
        },
        {
          "internalType": "uint256",
          "name": "_pricePerToken",
          "type": "uint256"
        },
        {
          "components": [
            {
              "internalType": "bytes32[]",
              "name": "proof",
              "type": "bytes32[]"
            },
            {
              "internalType": "uint256",
              "name": "quantityLimitPerWallet",
              "type": "uint256"
            },
            {
              "internalType": "uint256",
              "name": "pricePerToken",
              "type": "uint256"
            },
            {
              "internalType": "address",
              "name": "currency",
              "type": "address"
            }
          ],
          "internalType": "struct IDropSinglePhase.AllowlistProof",
          "name": "_allowlistProof",
          "type": "tuple"
        },
        {
          "internalType": "bytes",
          "name": "_data",
          "type": "bytes"
        }
      ],
      "name": "claim",
      "outputs": [],
      "stateMutability": "payable",
      "type": "function"
    },
    {
      "inputs": [],
      "name": "claimCondition",
      "outputs": [
        {
          "internalType": "uint256",
          "name": "startTimestamp",
          "type": "uint256"
        },
        {
          "internalType": "uint256",
          "name": "maxClaimableSupply",
          "type": "uint256"
        },
        {
          "internalType": "uint256",
          "name": "supplyClaimed",
          "type": "uint256"
        },
        {
          "internalType": "uint256",
          "name": "quantityLimitPerWallet",
          "type": "uint256"
        },
        {
          "internalType": "bytes32",
          "name": "merkleRoot",
          "type": "bytes32"
        },
        {
          "internalType": "uint256",
          "name": "pricePerToken",
          "type": "uint256"
        },
        {
          "internalType": "address",
          "name": "currency",
          "type": "address"
        },
        {
          "internalType": "string",
          "name": "metadata",
          "type": "string"
        }
      ],
      "stateMutability": "view",
      "type": "function"
    },
    {
      "inputs": [],
      "name": "contractURI",
      "outputs": [
        {
          "internalType": "string",
          "name": "",
          "type": "string"
        }
      ],
      "stateMutability": "view",
      "type": "function"
    },
    {
      "inputs": [
        {
          "internalType": "bytes",
          "name": "data",
          "type": "bytes"
        },
        {
          "internalType": "bytes",
          "name": "key",
          "type": "bytes"
        }
      ],
      "name": "encryptDecrypt",
      "outputs": [
        {
          "internalType": "bytes",
          "name": "result",
          "type": "bytes"
        }
      ],
      "stateMutability": "pure",
      "type": "function"
    },
    {
      "inputs": [
        {
          "internalType": "uint256",
          "name": "",
          "type": "uint256"
        }
      ],
      "name": "encryptedData",
      "outputs": [
        {
          "internalType": "bytes",
          "name": "",
          "type": "bytes"
        }
      ],
      "stateMutability": "view",
      "type": "function"
    },
    {
      "inputs": [
        {
          "internalType": "uint256",
          "name": "tokenId",
          "type": "uint256"
        }
      ],
      "name": "getApproved",
      "outputs": [
        {
          "internalType": "address",
          "name": "",
          "type": "address"
        }
      ],
      "stateMutability": "view",
      "type": "function"
    },
    {
      "inputs": [],
      "name": "getBaseURICount",
      "outputs": [
        {
          "internalType": "uint256",
          "name": "",
          "type": "uint256"
        }
      ],
      "stateMutability": "view",
      "type": "function"
    },
    {
      "inputs": [
        {
          "internalType": "uint256",
          "name": "_index",
          "type": "uint256"
        }
      ],
      "name": "getBatchIdAtIndex",
      "outputs": [
        {
          "internalType": "uint256",
          "name": "",
          "type": "uint256"
        }
      ],
      "stateMutability": "view",
      "type": "function"
    },
    {
      "inputs": [],
      "name": "getDefaultRoyaltyInfo",
      "outputs": [
        {
          "internalType": "address",
          "name": "",
          "type": "address"
        },
        {
          "internalType": "uint16",
          "name": "",
          "type": "uint16"
        }
      ],
      "stateMutability": "view",
      "type": "function"
    },
    {
      "inputs": [
        {
          "internalType": "uint256",
          "name": "_batchId",
          "type": "uint256"
        },
        {
          "internalType": "bytes",
          "name": "_key",
          "type": "bytes"
        }
      ],
      "name": "getRevealURI",
      "outputs": [
        {
          "internalType": "string",
          "name": "revealedURI",
          "type": "string"
        }
      ],
      "stateMutability": "view",
      "type": "function"
    },
    {
      "inputs": [
        {
          "internalType": "uint256",
          "name": "_tokenId",
          "type": "uint256"
        }
      ],
      "name": "getRoyaltyInfoForToken",
      "outputs": [
        {
          "internalType": "address",
          "name": "",
          "type": "address"
        },
        {
          "internalType": "uint16",
          "name": "",
          "type": "uint16"
        }
      ],
      "stateMutability": "view",
      "type": "function"
    },
    {
      "inputs": [
        {
          "internalType": "address",
          "name": "_claimer",
          "type": "address"
        }
      ],
      "name": "getSupplyClaimedByWallet",
      "outputs": [
        {
          "internalType": "uint256",
          "name": "",
          "type": "uint256"
        }
      ],
      "stateMutability": "view",
      "type": "function"
    },
    {
      "inputs": [
        {
          "internalType": "address",
          "name": "owner",
          "type": "address"
        },
        {
          "internalType": "address",
          "name": "operator",
          "type": "address"
        }
      ],
      "name": "isApprovedForAll",
      "outputs": [
        {
          "internalType": "bool",
          "name": "",
          "type": "bool"
        }
      ],
      "stateMutability": "view",
      "type": "function"
    },
    {
      "inputs": [
        {
          "internalType": "uint256",
          "name": "_batchId",
          "type": "uint256"
        }
      ],
      "name": "isEncryptedBatch",
      "outputs": [
        {
          "internalType": "bool",
          "name": "",
          "type": "bool"
        }
      ],
      "stateMutability": "view",
      "type": "function"
    },
    {
      "inputs": [
        {
          "internalType": "uint256",
          "name": "_amount",
          "type": "uint256"
        },
        {
          "internalType": "string",
          "name": "_baseURIForTokens",
          "type": "string"
        },
        {
          "internalType": "bytes",
          "name": "_data",
          "type": "bytes"
        }
      ],
      "name": "lazyMint",
      "outputs": [
        {
          "internalType": "uint256",
          "name": "batchId",
          "type": "uint256"
        }
      ],
      "stateMutability": "nonpayable",
      "type": "function"
    },
    {
      "inputs": [
        {
          "internalType": "bytes[]",
          "name": "data",
          "type": "bytes[]"
        }
      ],
      "name": "multicall",
      "outputs": [
        {
          "internalType": "bytes[]",
          "name": "results",
          "type": "bytes[]"
        }
      ],
      "stateMutability": "nonpayable",
      "type": "function"
    },
    {
      "inputs": [],
      "name": "name",
      "outputs": [
        {
          "internalType": "string",
          "name": "",
          "type": "string"
        }
      ],
      "stateMutability": "view",
      "type": "function"
    },
    {
      "inputs": [],
      "name": "nextTokenIdToClaim",
      "outputs": [
        {
          "internalType": "uint256",
          "name": "",
          "type": "uint256"
        }
      ],
      "stateMutability": "view",
      "type": "function"
    },
    {
      "inputs": [],
      "name": "nextTokenIdToMint",
      "outputs": [
        {
          "internalType": "uint256",
          "name": "",
          "type": "uint256"
        }
      ],
      "stateMutability": "view",
      "type": "function"
    },
    {
      "inputs": [],
      "name": "operatorRestriction",
      "outputs": [
        {
          "internalType": "bool",
          "name": "",
          "type": "bool"
        }
      ],
      "stateMutability": "view",
      "type": "function"
    },
    {
      "inputs": [],
      "name": "owner",
      "outputs": [
        {
          "internalType": "address",
          "name": "",
          "type": "address"
        }
      ],
      "stateMutability": "view",
      "type": "function"
    },
    {
      "inputs": [
        {
          "internalType": "uint256",
          "name": "tokenId",
          "type": "uint256"
        }
      ],
      "name": "ownerOf",
      "outputs": [
        {
          "internalType": "address",
          "name": "",
          "type": "address"
        }
      ],
      "stateMutability": "view",
      "type": "function"
    },
    {
      "inputs": [],
      "name": "primarySaleRecipient",
      "outputs": [
        {
          "internalType": "address",
          "name": "",
          "type": "address"
        }
      ],
      "stateMutability": "view",
      "type": "function"
    },
    {
      "inputs": [
        {
          "internalType": "uint256",
          "name": "_index",
          "type": "uint256"
        },
        {
          "internalType": "bytes",
          "name": "_key",
          "type": "bytes"
        }
      ],
      "name": "reveal",
      "outputs": [
        {
          "internalType": "string",
          "name": "revealedURI",
          "type": "string"
        }
      ],
      "stateMutability": "nonpayable",
      "type": "function"
    },
    {
      "inputs": [
        {
          "internalType": "uint256",
          "name": "tokenId",
          "type": "uint256"
        },
        {
          "internalType": "uint256",
          "name": "salePrice",
          "type": "uint256"
        }
      ],
      "name": "royaltyInfo",
      "outputs": [
        {
          "internalType": "address",
          "name": "receiver",
          "type": "address"
        },
        {
          "internalType": "uint256",
          "name": "royaltyAmount",
          "type": "uint256"
        }
      ],
      "stateMutability": "view",
      "type": "function"
    },
    {
      "inputs": [
        {
          "components": [
            {
              "internalType": "uint256",
              "name": "startTimestamp",
              "type": "uint256"
            },
            {
              "internalType": "uint256",
              "name": "maxClaimableSupply",
              "type": "uint256"
            },
            {
              "internalType": "uint256",
              "name": "supplyClaimed",
              "type": "uint256"
            },
            {
              "internalType": "uint256",
              "name": "quantityLimitPerWallet",
              "type": "uint256"
            },
            {
              "internalType": "bytes32",
              "name": "merkleRoot",
              "type": "bytes32"
            },
            {
              "internalType": "uint256",
              "name": "pricePerToken",
              "type": "uint256"
            },
            {
              "internalType": "address",
              "name": "currency",
              "type": "address"
            },
            {
              "internalType": "string",
              "name": "metadata",
              "type": "string"
            }
          ],
          "internalType": "struct IClaimCondition.ClaimCondition",
          "name": "_condition",
          "type": "tuple"
        },
        {
          "internalType": "bool",
          "name": "_resetClaimEligibility",
          "type": "bool"
        }
      ],
      "name": "setClaimConditions",
      "outputs": [],
      "stateMutability": "nonpayable",
      "type": "function"
    },
    {
      "inputs": [
        {
          "internalType": "string",
          "name": "_uri",
          "type": "string"
        }
      ],
      "name": "setContractURI",
      "outputs": [],
      "stateMutability": "nonpayable",
      "type": "function"
    },
    {
      "inputs": [
        {
          "internalType": "address",
          "name": "_royaltyRecipient",
          "type": "address"
        },
        {
          "internalType": "uint256",
          "name": "_royaltyBps",
          "type": "uint256"
        }
      ],
      "name": "setDefaultRoyaltyInfo",
      "outputs": [],
      "stateMutability": "nonpayable",
      "type": "function"
    },
    {
      "inputs": [
        {
          "internalType": "bool",
          "name": "_restriction",
          "type": "bool"
        }
      ],
      "name": "setOperatorRestriction",
      "outputs": [],
      "stateMutability": "nonpayable",
      "type": "function"
    },
    {
      "inputs": [
        {
          "internalType": "address",
          "name": "_newOwner",
          "type": "address"
        }
      ],
      "name": "setOwner",
      "outputs": [],
      "stateMutability": "nonpayable",
      "type": "function"
    },
    {
      "inputs": [
        {
          "internalType": "address",
          "name": "_saleRecipient",
          "type": "address"
        }
      ],
      "name": "setPrimarySaleRecipient",
      "outputs": [],
      "stateMutability": "nonpayable",
      "type": "function"
    },
    {
      "inputs": [
        {
          "internalType": "uint256",
          "name": "_tokenId",
          "type": "uint256"
        },
        {
          "internalType": "address",
          "name": "_recipient",
          "type": "address"
        },
        {
          "internalType": "uint256",
          "name": "_bps",
          "type": "uint256"
        }
      ],
      "name": "setRoyaltyInfoForToken",
      "outputs": [],
      "stateMutability": "nonpayable",
      "type": "function"
    },
    {
      "inputs": [
        {
          "internalType": "bytes4",
          "name": "interfaceId",
          "type": "bytes4"
        }
      ],
      "name": "supportsInterface",
      "outputs": [
        {
          "internalType": "bool",
          "name": "",
          "type": "bool"
        }
      ],
      "stateMutability": "view",
      "type": "function"
    },
    {
      "inputs": [],
      "name": "symbol",
      "outputs": [
        {
          "internalType": "string",
          "name": "",
          "type": "string"
        }
      ],
      "stateMutability": "view",
      "type": "function"
    },
    {
      "inputs": [
        {
          "internalType": "uint256",
          "name": "_tokenId",
          "type": "uint256"
        }
      ],
      "name": "tokenURI",
      "outputs": [
        {
          "internalType": "string",
          "name": "",
          "type": "string"
        }
      ],
      "stateMutability": "view",
      "type": "function"
    },
    {
      "inputs": [],
      "name": "totalSupply",
      "outputs": [
        {
          "internalType": "uint256",
          "name": "",
          "type": "uint256"
        }
      ],
      "stateMutability": "view",
      "type": "function"
    },
    {
      "inputs": [
        {
          "internalType": "address",
          "name": "_claimer",
          "type": "address"
        },
        {
          "internalType": "uint256",
          "name": "_quantity",
          "type": "uint256"
        },
        {
          "internalType": "address",
          "name": "_currency",
          "type": "address"
        },
        {
          "internalType": "uint256",
          "name": "_pricePerToken",
          "type": "uint256"
        },
        {
          "components": [
            {
              "internalType": "bytes32[]",
              "name": "proof",
              "type": "bytes32[]"
            },
            {
              "internalType": "uint256",
              "name": "quantityLimitPerWallet",
              "type": "uint256"
            },
            {
              "internalType": "uint256",
              "name": "pricePerToken",
              "type": "uint256"
            },
            {
              "internalType": "address",
              "name": "currency",
              "type": "address"
            }
          ],
          "internalType": "struct IDropSinglePhase.AllowlistProof",
          "name": "_allowlistProof",
          "type": "tuple"
        }
      ],
      "name": "verifyClaim",
      "outputs": [
        {
          "internalType": "bool",
          "name": "isOverride",
          "type": "bool"
        }
      ],
      "stateMutability": "view",
      "type": "function"
    },
    {
      "inputs": [
        {
          "internalType": "address",
          "name": "operator",
          "type": "address"
        },
        {
          "internalType": "bool",
          "name": "approved",
          "type": "bool"
        }
      ],
      "name": "setApprovalForAll",
      "outputs": [],
      "stateMutability": "nonpayable",
      "type": "function"
    },
    {
      "inputs": [
        {
          "internalType": "address",
          "name": "from",
          "type": "address"
        },
        {
          "internalType": "address",
          "name": "to",
          "type": "address"
        },
        {
          "internalType": "uint256",
          "name": "tokenId",
          "type": "uint256"
        }
      ],
      "name": "transferFrom",
      "outputs": [],
      "stateMutability": "nonpayable",
      "type": "function"
    },
    {
      "inputs": [
        {
          "internalType": "address",
          "name": "from",
          "type": "address"
        },
        {
          "internalType": "address",
          "name": "to",
          "type": "address"
        },
        {
          "internalType": "uint256",
          "name": "tokenId",
          "type": "uint256"
        }
      ],
      "name": "safeTransferFrom",
      "outputs": [],
      "stateMutability": "nonpayable",
      "type": "function"
    },
    {
      "inputs": [
        {
          "internalType": "address",
          "name": "from",
          "type": "address"
        },
        {
          "internalType": "address",
          "name": "to",
          "type": "address"
        },
        {
          "internalType": "uint256",
          "name": "tokenId",
          "type": "uint256"
        },
        {
          "internalType": "bytes",
          "name": "data",
          "type": "bytes"
        }
      ],
      "name": "safeTransferFrom",
      "outputs": [],
      "stateMutability": "nonpayable",
      "type": "function"
    },
    {
      "inputs": [
        {
          "internalType": "uint256",
          "name": "tokenId",
          "type": "uint256"
        }
      ],
      "name": "isRedeemable",
      "outputs": [
        {
          "internalType": "bool",
          "name": "",
          "type": "bool"
        }
      ],
      "stateMutability": "view",
      "type": "function"
    },
    {
      "inputs": [
        {
          "internalType": "uint256",
          "name": "tokenId",
          "type": "uint256"
        }
      ],
      "name": "redeem",
      "outputs": [],
      "stateMutability": "nonpayable",
      "type": "function"
    },
    {
      "inputs": [
        {
          "internalType": "address",
          "name": "_owner",
          "type": "address"
        }
      ],
      "name": "getMineWithMetadata",
      "outputs": [
        {
          "components": [
            {
              "internalType": "uint256",
              "name": "id",
              "type": "uint256"
            },
            {
              "internalType": "string",
              "name": "tokenURI",
              "type": "string"
            },
            {
              "internalType": "bool",
              "name": "redeemed",
              "type": "bool"
            }
          ],
          "internalType": "struct LiquidCollections.Redeemey[]",
          "name": "",
          "type": "tuple[]"
        }
      ],
      "stateMutability": "view",
      "type": "function"
    },
    {
      "inputs": [
        {
          "internalType": "address",
          "name": "owner",
          "type": "address"
        },
        {
          "internalType": "uint256",
          "name": "index",
          "type": "uint256"
        }
      ],
      "name": "tokenOfOwnerByIndex",
      "outputs": [
        {
          "internalType": "uint256",
          "name": "",
          "type": "uint256"
        }
      ],
      "stateMutability": "view",
      "type": "function"
    },
    {
      "inputs": [
        {
          "internalType": "uint256",
          "name": "index",
          "type": "uint256"
        }
      ],
      "name": "tokenByIndex",
      "outputs": [
        {
          "internalType": "uint256",
          "name": "",
          "type": "uint256"
        }
      ],
      "stateMutability": "view",
      "type": "function"
    }
  ],
  "bytecode": "0x60806040523480156200001157600080fd5b5060405162008fbf38038062008fbf833981810160405281019062000037919062000837565b733cc6cdda760b79bafa08df41ecfa224f810dceb660018686868686848481600290805190602001906200006d92919062000538565b5080600390805190602001906200008692919062000538565b5062000097620002ec60201b60201c565b6000819055505050620000b033620002f160201b60201c565b620000d483836fffffffffffffffffffffffffffffffff16620003b760201b60201c565b620000e581620004b160201b60201c565b505050505060006daaeb6d7670e522a718067333cd4e73ffffffffffffffffffffffffffffffffffffffff163b1115620002df578015620001a5576daaeb6d7670e522a718067333cd4e73ffffffffffffffffffffffffffffffffffffffff16637d3e3dbe30846040518363ffffffff1660e01b81526004016200016b9291906200090e565b600060405180830381600087803b1580156200018657600080fd5b505af11580156200019b573d6000803e3d6000fd5b50505050620002de565b600073ffffffffffffffffffffffffffffffffffffffff168273ffffffffffffffffffffffffffffffffffffffff16146200025f576daaeb6d7670e522a718067333cd4e73ffffffffffffffffffffffffffffffffffffffff1663a0af290330846040518363ffffffff1660e01b8152600401620002259291906200090e565b600060405180830381600087803b1580156200024057600080fd5b505af115801562000255573d6000803e3d6000fd5b50505050620002dd565b6daaeb6d7670e522a718067333cd4e73ffffffffffffffffffffffffffffffffffffffff16634420e486306040518263ffffffff1660e01b8152600401620002a891906200093b565b600060405180830381600087803b158015620002c357600080fd5b505af1158015620002d8573d6000803e3d6000fd5b505050505b5b5b5050505050505062000a77565b600090565b6000600960009054906101000a900473ffffffffffffffffffffffffffffffffffffffff16905081600960006101000a81548173ffffffffffffffffffffffffffffffffffffffff021916908373ffffffffffffffffffffffffffffffffffffffff1602179055508173ffffffffffffffffffffffffffffffffffffffff168173ffffffffffffffffffffffffffffffffffffffff167f8292fce18fa69edf4db7b94ea2e58241df0ae57f97e0a6c9b29067028bf92d7660405160405180910390a35050565b612710811115620003ff576040517f08c379a0000000000000000000000000000000000000000000000000000000008152600401620003f690620009b9565b60405180910390fd5b81600a60006101000a81548173ffffffffffffffffffffffffffffffffffffffff021916908373ffffffffffffffffffffffffffffffffffffffff16021790555080600a60146101000a81548161ffff021916908361ffff1602179055508173ffffffffffffffffffffffffffffffffffffffff167f90d7ec04bcb8978719414f82e52e4cb651db41d0e6f8cea6118c2191e6183adb82604051620004a59190620009f6565b60405180910390a25050565b80600e60006101000a81548173ffffffffffffffffffffffffffffffffffffffff021916908373ffffffffffffffffffffffffffffffffffffffff1602179055508073ffffffffffffffffffffffffffffffffffffffff167f299d17e95023f496e0ffc4909cff1a61f74bb5eb18de6f900f4155bfa1b3b33360405160405180910390a250565b828054620005469062000a42565b90600052602060002090601f0160209004810192826200056a5760008555620005b6565b82601f106200058557805160ff1916838001178555620005b6565b82800160010185558215620005b6579182015b82811115620005b557825182559160200191906001019062000598565b5b509050620005c59190620005c9565b5090565b5b80821115620005e4576000816000905550600101620005ca565b5090565b6000604051905090565b600080fd5b600080fd5b600080fd5b600080fd5b6000601f19601f8301169050919050565b7f4e487b7100000000000000000000000000000000000000000000000000000000600052604160045260246000fd5b620006518262000606565b810181811067ffffffffffffffff8211171562000673576200067262000617565b5b80604052505050565b600062000688620005e8565b905062000696828262000646565b919050565b600067ffffffffffffffff821115620006b957620006b862000617565b5b620006c48262000606565b9050602081019050919050565b60005b83811015620006f1578082015181840152602081019050620006d4565b8381111562000701576000848401525b50505050565b60006200071e62000718846200069b565b6200067c565b9050828152602081018484840111156200073d576200073c62000601565b5b6200074a848285620006d1565b509392505050565b600082601f8301126200076a5762000769620005fc565b5b81516200077c84826020860162000707565b91505092915050565b600073ffffffffffffffffffffffffffffffffffffffff82169050919050565b6000620007b28262000785565b9050919050565b620007c481620007a5565b8114620007d057600080fd5b50565b600081519050620007e481620007b9565b92915050565b60006fffffffffffffffffffffffffffffffff82169050919050565b6200081181620007ea565b81146200081d57600080fd5b50565b600081519050620008318162000806565b92915050565b600080600080600060a08688031215620008565762000855620005f2565b5b600086015167ffffffffffffffff811115620008775762000876620005f7565b5b620008858882890162000752565b955050602086015167ffffffffffffffff811115620008a957620008a8620005f7565b5b620008b78882890162000752565b9450506040620008ca88828901620007d3565b9350506060620008dd8882890162000820565b9250506080620008f088828901620007d3565b9150509295509295909350565b6200090881620007a5565b82525050565b6000604082019050620009256000830185620008fd565b620009346020830184620008fd565b9392505050565b6000602082019050620009526000830184620008fd565b92915050565b600082825260208201905092915050565b7f45786365656473206d6178206270730000000000000000000000000000000000600082015250565b6000620009a1600f8362000958565b9150620009ae8262000969565b602082019050919050565b60006020820190508181036000830152620009d48162000992565b9050919050565b6000819050919050565b620009f081620009db565b82525050565b600060208201905062000a0d6000830184620009e5565b92915050565b7f4e487b7100000000000000000000000000000000000000000000000000000000600052602260045260246000fd5b6000600282049050600182168062000a5b57607f821691505b60208210810362000a715762000a7062000a13565b5b50919050565b6185388062000a876000396000f3fe6080604052600436106102c95760003560e01c806363b45e2d11610175578063acd083f8116100dc578063d637ed5911610095578063e8a3d4851161006f578063e8a3d48514610bbd578063e985e9c514610be8578063eec8897c14610c25578063f48cc32614610c62576102c9565b8063d637ed5914610b25578063db006a7514610b57578063e715032214610b80576102c9565b8063acd083f8146109ee578063b24f2d3914610a19578063b88d4fde14610a45578063c87b56dd14610a6e578063ce80564214610aab578063d37c353b14610ae8576102c9565b806395d89b411161012e57806395d89b41146108ba5780639bcf7a15146108e55780639fc4d68f1461090e578063a05112fc1461094b578063a22cb46514610988578063ac9650d8146109b1576102c9565b806363b45e2d146107b95780636f4f2837146107e457806370a082311461080d57806384bb1e421461084a5780638da5cb5b14610866578063938e3d7b14610891576102c9565b806332f0cd641161023457806342966c68116101ed5780634f6ccce7116101c75780634f6ccce7146106eb578063504c6e0114610728578063600dd5ea146107535780636352211e1461077c576102c9565b806342966c6814610647578063492e224b146106705780634cc157df146106ad576102c9565b806332f0cd641461053957806335b65e1f146105625780633b1475a71461059f57806341f43434146105ca578063426cfaf3146105f557806342842e0e1461061e576102c9565b806313af40351161028657806313af40351461040457806318160ddd1461042d57806323b872dd146104585780632419f51b146104815780632a55205a146104be5780632f745c59146104fc576102c9565b806301ffc9a7146102ce57806306d7f47e1461030b57806306fdde0314610348578063079fe40e14610373578063081812fc1461039e578063095ea7b3146103db575b600080fd5b3480156102da57600080fd5b506102f560048036038101906102f09190615bdf565b610c9f565b6040516103029190615c27565b60405180910390f35b34801561031757600080fd5b50610332600480360381019061032d9190615ca0565b610d99565b60405161033f9190615ea0565b60405180910390f35b34801561035457600080fd5b5061035d610e9b565b60405161036a9190615f0c565b60405180910390f35b34801561037f57600080fd5b50610388610f2d565b6040516103959190615f3d565b60405180910390f35b3480156103aa57600080fd5b506103c560048036038101906103c09190615f84565b610f57565b6040516103d29190615f3d565b60405180910390f35b3480156103e757600080fd5b5061040260048036038101906103fd9190615fb1565b610fd3565b005b34801561041057600080fd5b5061042b60048036038101906104269190615ca0565b6110d7565b005b34801561043957600080fd5b5061044261112a565b60405161044f9190616000565b60405180910390f35b34801561046457600080fd5b5061047f600480360381019061047a919061601b565b611141565b005b34801561048d57600080fd5b506104a860048036038101906104a39190615f84565b611190565b6040516104b59190616000565b60405180910390f35b3480156104ca57600080fd5b506104e560048036038101906104e0919061606e565b611201565b6040516104f39291906160ae565b60405180910390f35b34801561050857600080fd5b50610523600480360381019061051e9190615fb1565b61123f565b6040516105309190616000565b60405180910390f35b34801561054557600080fd5b50610560600480360381019061055b9190616103565b6112e4565b005b34801561056e57600080fd5b5061058960048036038101906105849190615ca0565b611337565b6040516105969190616000565b60405180910390f35b3480156105ab57600080fd5b506105b4611393565b6040516105c19190616000565b60405180910390f35b3480156105d657600080fd5b506105df61139d565b6040516105ec919061618f565b60405180910390f35b34801561060157600080fd5b5061061c600480360381019061061791906161cf565b6113af565b005b34801561062a57600080fd5b506106456004803603810190610640919061601b565b61163e565b005b34801561065357600080fd5b5061066e60048036038101906106699190615f84565b61168d565b005b34801561067c57600080fd5b5061069760048036038101906106929190615f84565b61169b565b6040516106a49190615c27565b60405180910390f35b3480156106b957600080fd5b506106d460048036038101906106cf9190615f84565b6116c6565b6040516106e2929190616248565b60405180910390f35b3480156106f757600080fd5b50610712600480360381019061070d9190615f84565b6117d1565b60405161071f9190616000565b60405180910390f35b34801561073457600080fd5b5061073d611842565b60405161074a9190615c27565b60405180910390f35b34801561075f57600080fd5b5061077a60048036038101906107759190615fb1565b611855565b005b34801561078857600080fd5b506107a3600480360381019061079e9190615f84565b6118aa565b6040516107b09190615f3d565b60405180910390f35b3480156107c557600080fd5b506107ce6118c0565b6040516107db9190616000565b60405180910390f35b3480156107f057600080fd5b5061080b60048036038101906108069190615ca0565b6118cd565b005b34801561081957600080fd5b50610834600480360381019061082f9190615ca0565b611920565b6040516108419190616000565b60405180910390f35b610864600480360381019061085f91906163c5565b6119ef565b005b34801561087257600080fd5b5061087b611b43565b6040516108889190615f3d565b60405180910390f35b34801561089d57600080fd5b506108b860048036038101906108b3919061652b565b611b6d565b005b3480156108c657600080fd5b506108cf611bc0565b6040516108dc9190615f0c565b60405180910390f35b3480156108f157600080fd5b5061090c60048036038101906109079190616574565b611c52565b005b34801561091a57600080fd5b5061093560048036038101906109309190616627565b611ca9565b6040516109429190615f0c565b60405180910390f35b34801561095757600080fd5b50610972600480360381019061096d9190615f84565b611e2f565b60405161097f91906166dc565b60405180910390f35b34801561099457600080fd5b506109af60048036038101906109aa91906166fe565b611ecf565b005b3480156109bd57600080fd5b506109d860048036038101906109d39190616794565b611edd565b6040516109e591906168ed565b60405180910390f35b3480156109fa57600080fd5b50610a03611fe9565b604051610a109190616000565b60405180910390f35b348015610a2557600080fd5b50610a2e611ff2565b604051610a3c929190616248565b60405180910390f35b348015610a5157600080fd5b50610a6c6004803603810190610a67919061690f565b612031565b005b348015610a7a57600080fd5b50610a956004803603810190610a909190615f84565b612082565b604051610aa29190615f0c565b60405180910390f35b348015610ab757600080fd5b50610ad26004803603810190610acd9190616627565b61210a565b604051610adf9190615f0c565b60405180910390f35b348015610af457600080fd5b50610b0f6004803603810190610b0a91906169e8565b6121d0565b604051610b1c9190616000565b60405180910390f35b348015610b3157600080fd5b50610b3a612282565b604051610b4e989796959493929190616a96565b60405180910390f35b348015610b6357600080fd5b50610b7e6004803603810190610b799190615f84565b612360565b005b348015610b8c57600080fd5b50610ba76004803603810190610ba29190616b1b565b6124f8565b604051610bb491906166dc565b60405180910390f35b348015610bc957600080fd5b50610bd2612582565b604051610bdf9190615f0c565b60405180910390f35b348015610bf457600080fd5b50610c0f6004803603810190610c0a9190616b97565b612610565b604051610c1c9190615c27565b60405180910390f35b348015610c3157600080fd5b50610c4c6004803603810190610c479190616bd7565b6126a4565b604051610c599190615c27565b60405180910390f35b348015610c6e57600080fd5b50610c896004803603810190610c849190615f84565b612b71565b604051610c969190615c27565b60405180910390f35b60006301ffc9a760e01b827bffffffffffffffffffffffffffffffffffffffffffffffffffffffff19161480610cfa57506380ac58cd60e01b827bffffffffffffffffffffffffffffffffffffffffffffffffffffffff1916145b80610d2a5750635b5e139f60e01b827bffffffffffffffffffffffffffffffffffffffffffffffffffffffff1916145b80610d9257507f2a55205a000000000000000000000000000000000000000000000000000000007bffffffffffffffffffffffffffffffffffffffffffffffffffffffff1916827bffffffffffffffffffffffffffffffffffffffffffffffffffffffff1916145b9050919050565b60606000610da683611920565b905060008167ffffffffffffffff811115610dc457610dc361629a565b5b604051908082528060200260200182016040528015610dfd57816020015b610dea6159e4565b815260200190600190039081610de25790505b50905060005b82811015610e90576000610e17868361123f565b90506040518060600160405280828152602001610e3383612082565b8152602001601c600084815260200190815260200160002060009054906101000a900460ff161515815250838381518110610e7157610e70616c6e565b5b6020026020010181905250508080610e8890616ccc565b915050610e03565b819350505050919050565b606060028054610eaa90616d43565b80601f0160208091040260200160405190810160405280929190818152602001828054610ed690616d43565b8015610f235780601f10610ef857610100808354040283529160200191610f23565b820191906000526020600020905b815481529060010190602001808311610f0657829003601f168201915b5050505050905090565b6000600e60009054906101000a900473ffffffffffffffffffffffffffffffffffffffff16905090565b6000610f6282612be4565b610f98576040517fcf4700e400000000000000000000000000000000000000000000000000000000815260040160405180910390fd5b6006600083815260200190815260200160002060009054906101000a900473ffffffffffffffffffffffffffffffffffffffff169050919050565b6000610fde826118aa565b90508073ffffffffffffffffffffffffffffffffffffffff168373ffffffffffffffffffffffffffffffffffffffff1603611045576040517f943f7b8c00000000000000000000000000000000000000000000000000000000815260040160405180910390fd5b8073ffffffffffffffffffffffffffffffffffffffff16611064612c32565b73ffffffffffffffffffffffffffffffffffffffff16146110c7576110908161108b612c32565b612610565b6110c6576040517fcfb3b94200000000000000000000000000000000000000000000000000000000815260040160405180910390fd5b5b6110d2838383612c3a565b505050565b6110df612cec565b61111e576040517f08c379a000000000000000000000000000000000000000000000000000000000815260040161111590616dc0565b60405180910390fd5b61112781612d29565b50565b6000611134612def565b6001546000540303905090565b823373ffffffffffffffffffffffffffffffffffffffff168173ffffffffffffffffffffffffffffffffffffffff161461117f5761117e33612df4565b5b61118a848484612f07565b50505050565b600061119a6118c0565b82106111db576040517f08c379a00000000000000000000000000000000000000000000000000000000081526004016111d290616e2c565b60405180910390fd5b600c82815481106111ef576111ee616c6e565b5b90600052602060002001549050919050565b600080600080611210866116c6565b61ffff1691509150819350612710818661122a9190616e4c565b6112349190616ed5565b925050509250929050565b600061124a83611920565b821061128b576040517f08c379a000000000000000000000000000000000000000000000000000000000815260040161128290616f78565b60405180910390fd5b601d60008473ffffffffffffffffffffffffffffffffffffffff1673ffffffffffffffffffffffffffffffffffffffff168152602001908152602001600020600083815260200190815260200160002054905092915050565b6112ec612f17565b61132b576040517f08c379a00000000000000000000000000000000000000000000000000000000081526004016113229061700a565b60405180910390fd5b61133481612f20565b50565b6000601a6000601954815260200190815260200160002060008373ffffffffffffffffffffffffffffffffffffffff1673ffffffffffffffffffffffffffffffffffffffff168152602001908152602001600020549050919050565b6000600f54905090565b6daaeb6d7670e522a718067333cd4e81565b6113b7612f74565b6113f6576040517f08c379a00000000000000000000000000000000000000000000000000000000081526004016113ed90616dc0565b60405180910390fd5b600060195490506000601160020154905082156114445760009050611419612fb1565b4360405160200161142b929190617093565b6040516020818303038152906040528051906020012091505b836020013581111561148b576040517f08c379a00000000000000000000000000000000000000000000000000000000081526004016114829061710b565b60405180910390fd5b604051806101000160405280856000013581526020018560200135815260200182815260200185606001358152602001856080013581526020018560a0013581526020018560c00160208101906114e29190615ca0565b73ffffffffffffffffffffffffffffffffffffffff168152602001858060e0019061150d919061713a565b8080601f016020809104026020016040519081016040528093929190818152602001838380828437600081840152601f19601f820116905080830192505050505050508152506011600082015181600001556020820151816001015560408201518160020155606082015181600301556080820151816004015560a0820151816005015560c08201518160060160006101000a81548173ffffffffffffffffffffffffffffffffffffffff021916908373ffffffffffffffffffffffffffffffffffffffff16021790555060e08201518160070190805190602001906115f4929190615a07565b50905050816019819055507f6dab9d7d05d468100139089b2516cb8ff286c3972ff070d3b509e371f0d0d4b884846040516116309291906173bd565b60405180910390a150505050565b823373ffffffffffffffffffffffffffffffffffffffff168173ffffffffffffffffffffffffffffffffffffffff161461167c5761167b33612df4565b5b611687848484612fb9565b50505050565b611698816001612fd9565b50565b6000806010600084815260200190815260200160002080546116bc90616d43565b9050119050919050565b6000806000600b60008581526020019081526020016000206040518060400160405290816000820160009054906101000a900473ffffffffffffffffffffffffffffffffffffffff1673ffffffffffffffffffffffffffffffffffffffff1673ffffffffffffffffffffffffffffffffffffffff1681526020016001820154815250509050600073ffffffffffffffffffffffffffffffffffffffff16816000015173ffffffffffffffffffffffffffffffffffffffff161461179257806000015181602001516117c7565b600a60009054906101000a900473ffffffffffffffffffffffffffffffffffffffff16600a60149054906101000a900461ffff165b9250925050915091565b60006117db61112a565b821061181c576040517f08c379a00000000000000000000000000000000000000000000000000000000081526004016118139061745f565b60405180910390fd5b601f82815481106118305761182f616c6e565b5b90600052602060002001549050919050565b601b60009054906101000a900460ff1681565b61185d6133c8565b61189c576040517f08c379a000000000000000000000000000000000000000000000000000000000815260040161189390616dc0565b60405180910390fd5b6118a68282613405565b5050565b60006118b5826134fa565b600001519050919050565b6000600c80549050905090565b6118d5613785565b611914576040517f08c379a000000000000000000000000000000000000000000000000000000000815260040161190b90616dc0565b60405180910390fd5b61191d816137c2565b50565b60008073ffffffffffffffffffffffffffffffffffffffff168273ffffffffffffffffffffffffffffffffffffffff1603611987576040517f8f4eb60400000000000000000000000000000000000000000000000000000000815260040160405180910390fd5b600560008373ffffffffffffffffffffffffffffffffffffffff1673ffffffffffffffffffffffffffffffffffffffff16815260200190815260200160002060000160009054906101000a900467ffffffffffffffff1667ffffffffffffffff169050919050565b6119fd868686868686613849565b60006019549050611a18611a0f612fb1565b878787876126a4565b508560116002016000828254611a2e919061747f565b9250508190555085601a60008381526020019081526020016000206000611a53612fb1565b73ffffffffffffffffffffffffffffffffffffffff1673ffffffffffffffffffffffffffffffffffffffff1681526020019081526020016000206000828254611a9c919061747f565b92505081905550611ab060008787876138a3565b6000611abc88886139a1565b9050808873ffffffffffffffffffffffffffffffffffffffff16611ade612fb1565b73ffffffffffffffffffffffffffffffffffffffff167fff097c7d8b1957a4ff09ef1361b5fb54dcede3941ba836d0beb9d10bec725de68a604051611b239190616000565b60405180910390a4611b398888888888886139b7565b5050505050505050565b6000600960009054906101000a900473ffffffffffffffffffffffffffffffffffffffff16905090565b611b756139bf565b611bb4576040517f08c379a0000000000000000000000000000000000000000000000000000000008152600401611bab90616dc0565b60405180910390fd5b611bbd816139fc565b50565b606060038054611bcf90616d43565b80601f0160208091040260200160405190810160405280929190818152602001828054611bfb90616d43565b8015611c485780601f10611c1d57610100808354040283529160200191611c48565b820191906000526020600020905b815481529060010190602001808311611c2b57829003601f168201915b5050505050905090565b611c5a6133c8565b611c99576040517f08c379a0000000000000000000000000000000000000000000000000000000008152600401611c9090616dc0565b60405180910390fd5b611ca4838383613adf565b505050565b60606000601060008681526020019081526020016000208054611ccb90616d43565b80601f0160208091040260200160405190810160405280929190818152602001828054611cf790616d43565b8015611d445780601f10611d1957610100808354040283529160200191611d44565b820191906000526020600020905b815481529060010190602001808311611d2757829003601f168201915b505050505090506000815103611d8f576040517f08c379a0000000000000000000000000000000000000000000000000000000008152600401611d8690617521565b60405180910390fd5b60008082806020019051810190611da691906175c6565b91509150611db58287876124f8565b93508084878746604051602001611dcf949392919061768e565b6040516020818303038152906040528051906020012014611e25576040517f08c379a0000000000000000000000000000000000000000000000000000000008152600401611e1c90617711565b60405180910390fd5b5050509392505050565b60106020528060005260406000206000915090508054611e4e90616d43565b80601f0160208091040260200160405190810160405280929190818152602001828054611e7a90616d43565b8015611ec75780601f10611e9c57610100808354040283529160200191611ec7565b820191906000526020600020905b815481529060010190602001808311611eaa57829003601f168201915b505050505081565b611ed98282613c0a565b5050565b60608282905067ffffffffffffffff811115611efc57611efb61629a565b5b604051908082528060200260200182016040528015611f2f57816020015b6060815260200190600190039081611f1a5790505b50905060005b83839050811015611fe257611fb130858584818110611f5757611f56616c6e565b5b9050602002810190611f699190617731565b8080601f016020809104026020016040519081016040528093929190818152602001838380828437600081840152601f19601f82011690508083019250505050505050613d81565b828281518110611fc457611fc3616c6e565b5b60200260200101819052508080611fda90616ccc565b915050611f35565b5092915050565b60008054905090565b600080600a60009054906101000a900473ffffffffffffffffffffffffffffffffffffffff16600a60149054906101000a900461ffff16915091509091565b833373ffffffffffffffffffffffffffffffffffffffff168173ffffffffffffffffffffffffffffffffffffffff161461206f5761206e33612df4565b5b61207b85858585613dae565b5050505050565b6060600061208f83613e26565b509050600061209d84613f34565b90506120a88261169b565b156120d657806040516020016120be91906177e0565b60405160208183030381529060405292505050612105565b806120e0856140d9565b6040516020016120f1929190617802565b604051602081830303815290604052925050505b919050565b6060612114614239565b612153576040517f08c379a000000000000000000000000000000000000000000000000000000000815260040161214a90616dc0565b60405180910390fd5b600061215e85611190565b905061216b818585611ca9565b91506121868160405180602001604052806000815250614276565b61219081836142a2565b847f6df1d8db2a036436ffe0b2d1833f2c5f1e624818dfce2578c0faa4b83ef9998d836040516121c09190615f0c565b60405180910390a2509392505050565b60008083839050111561226a5760008084848101906121ef9190617826565b915091506000825114158015612206575060008114155b156122675761226688600f5461221c919061747f565b86868080601f016020809104026020016040519081016040528093929190818152602001838380828437600081840152601f19601f82011690508083019250505050505050614276565b5b50505b61227786868686866142ce565b905095945050505050565b60118060000154908060010154908060020154908060030154908060040154908060050154908060060160009054906101000a900473ffffffffffffffffffffffffffffffffffffffff16908060070180546122dd90616d43565b80601f016020809104026020016040519081016040528092919081815260200182805461230990616d43565b80156123565780601f1061232b57610100808354040283529160200191612356565b820191906000526020600020905b81548152906001019060200180831161233957829003601f168201915b5050505050905088565b61236981612be4565b6123a8576040517f08c379a000000000000000000000000000000000000000000000000000000000815260040161239f906178f4565b60405180910390fd5b3373ffffffffffffffffffffffffffffffffffffffff166123c8826118aa565b73ffffffffffffffffffffffffffffffffffffffff161461241e576040517f08c379a000000000000000000000000000000000000000000000000000000000815260040161241590617986565b60405180910390fd5b60001515601c600083815260200190815260200160002060009054906101000a900460ff16151514612485576040517f08c379a000000000000000000000000000000000000000000000000000000000815260040161247c90617a18565b60405180910390fd5b6001601c600083815260200190815260200160002060006101000a81548160ff021916908315150217905550803373ffffffffffffffffffffffffffffffffffffffff167f222838db2794d11532d940e8dec38ae307ed0b63cd97c233322e221f998767a660405160405180910390a350565b6060600084519050604051915060208183010160405280825260005b8181101561257957600085858360405160200161253393929190617a38565b6040516020818303038152906040528051906020012090506000602083018801519050818118905080602084018601525050602081612572919061747f565b9050612514565b50509392505050565b6008805461258f90616d43565b80601f01602080910402602001604051908101604052809291908181526020018280546125bb90616d43565b80156126085780601f106125dd57610100808354040283529160200191612608565b820191906000526020600020905b8154815290600101906020018083116125eb57829003601f168201915b505050505081565b6000600760008473ffffffffffffffffffffffffffffffffffffffff1673ffffffffffffffffffffffffffffffffffffffff16815260200190815260200160002060008373ffffffffffffffffffffffffffffffffffffffff1673ffffffffffffffffffffffffffffffffffffffff16815260200190815260200160002060009054906101000a900460ff16905092915050565b6000806011604051806101000160405290816000820154815260200160018201548152602001600282015481526020016003820154815260200160048201548152602001600582015481526020016006820160009054906101000a900473ffffffffffffffffffffffffffffffffffffffff1673ffffffffffffffffffffffffffffffffffffffff1673ffffffffffffffffffffffffffffffffffffffff16815260200160078201805461275790616d43565b80601f016020809104026020016040519081016040528092919081815260200182805461278390616d43565b80156127d05780601f106127a5576101008083540402835291602001916127d0565b820191906000526020600020905b8154815290600101906020018083116127b357829003601f168201915b505050505081525050905060008160600151905060008260a00151905060008360c0015190506000801b8460800151146128ae576128a88680600001906128179190617a62565b80806020026020016040519081016040528093929190818152602001838360200280828437600081840152601f19601f8201169050808301925050505050505085608001518c89602001358a604001358b606001602081019061287a9190615ca0565b60405160200161288d9493929190617ac5565b6040516020818303038152906040528051906020012061441f565b50809550505b841561299b5760008660200135036128c657826128cc565b85602001355b92507fffffffffffffffffffffffffffffffffffffffffffffffffffffffffffffffff8660400135036128ff5781612905565b85604001355b91507fffffffffffffffffffffffffffffffffffffffffffffffffffffffffffffffff86604001351415801561297a5750600073ffffffffffffffffffffffffffffffffffffffff168660600160208101906129619190615ca0565b73ffffffffffffffffffffffffffffffffffffffff1614155b6129845780612998565b8560600160208101906129979190615ca0565b5b90505b6000601a6000601954815260200190815260200160002060008c73ffffffffffffffffffffffffffffffffffffffff1673ffffffffffffffffffffffffffffffffffffffff1681526020019081526020016000205490508173ffffffffffffffffffffffffffffffffffffffff168973ffffffffffffffffffffffffffffffffffffffff16141580612a2d5750828814155b15612a6d576040517f08c379a0000000000000000000000000000000000000000000000000000000008152600401612a6490617b5f565b60405180910390fd5b60008a1480612a86575083818b612a84919061747f565b115b15612ac6576040517f08c379a0000000000000000000000000000000000000000000000000000000008152600401612abd90617bcb565b60405180910390fd5b84602001518a8660400151612adb919061747f565b1115612b1c576040517f08c379a0000000000000000000000000000000000000000000000000000000008152600401612b1390617c37565b60405180910390fd5b4285600001511115612b63576040517f08c379a0000000000000000000000000000000000000000000000000000000008152600401612b5a90617ca3565b60405180910390fd5b505050505095945050505050565b6000612b7c82612be4565b612bbb576040517f08c379a0000000000000000000000000000000000000000000000000000000008152600401612bb2906178f4565b60405180910390fd5b601c600083815260200190815260200160002060009054906101000a900460ff16159050919050565b600081612bef612def565b11158015612bfe575060005482105b8015612c2b575060046000838152602001908152602001600020600001601c9054906101000a900460ff16155b9050919050565b600033905090565b826006600084815260200190815260200160002060006101000a81548173ffffffffffffffffffffffffffffffffffffffff021916908373ffffffffffffffffffffffffffffffffffffffff160217905550818373ffffffffffffffffffffffffffffffffffffffff168273ffffffffffffffffffffffffffffffffffffffff167f8c5be1e5ebec7d5bd14f71427d1e84f3dd0314c0f7b2291e5b200ac8c7c3b92560405160405180910390a4505050565b6000612cf6611b43565b73ffffffffffffffffffffffffffffffffffffffff163373ffffffffffffffffffffffffffffffffffffffff1614905090565b6000600960009054906101000a900473ffffffffffffffffffffffffffffffffffffffff16905081600960006101000a81548173ffffffffffffffffffffffffffffffffffffffff021916908373ffffffffffffffffffffffffffffffffffffffff1602179055508173ffffffffffffffffffffffffffffffffffffffff168173ffffffffffffffffffffffffffffffffffffffff167f8292fce18fa69edf4db7b94ea2e58241df0ae57f97e0a6c9b29067028bf92d7660405160405180910390a35050565b600090565b601b60009054906101000a900460ff1615612f045760006daaeb6d7670e522a718067333cd4e73ffffffffffffffffffffffffffffffffffffffff163b1115612f03576daaeb6d7670e522a718067333cd4e73ffffffffffffffffffffffffffffffffffffffff1663c617113430836040518363ffffffff1660e01b8152600401612e80929190617cc3565b602060405180830381865afa158015612e9d573d6000803e3d6000fd5b505050506040513d601f19601f82011682018060405250810190612ec19190617d01565b612f0257806040517fede71dcc000000000000000000000000000000000000000000000000000000008152600401612ef99190615f3d565b60405180910390fd5b5b5b50565b612f128383836144fb565b505050565b60006001905090565b80601b60006101000a81548160ff0219169083151502179055507f38475885990d8dfe9ca01f0ef160a1b5514426eab9ddbc953a3353410ba7809681604051612f699190615c27565b60405180910390a150565b6000612f7e611b43565b73ffffffffffffffffffffffffffffffffffffffff163373ffffffffffffffffffffffffffffffffffffffff1614905090565b600033905090565b612fd483838360405180602001604052806000815250612031565b505050565b6000612fe4836134fa565b905060008160000151905082156130c55760008173ffffffffffffffffffffffffffffffffffffffff16613016612c32565b73ffffffffffffffffffffffffffffffffffffffff16148061304557506130448261303f612c32565b612610565b5b8061308a5750613053612c32565b73ffffffffffffffffffffffffffffffffffffffff1661307286610f57565b73ffffffffffffffffffffffffffffffffffffffff16145b9050806130c3576040517f59c896be00000000000000000000000000000000000000000000000000000000815260040160405180910390fd5b505b6130d38160008660016149af565b6130df60008583612c3a565b6000600560008373ffffffffffffffffffffffffffffffffffffffff1673ffffffffffffffffffffffffffffffffffffffff168152602001908152602001600020905060018160000160008282829054906101000a900467ffffffffffffffff160392506101000a81548167ffffffffffffffff021916908367ffffffffffffffff16021790555060018160000160108282829054906101000a900467ffffffffffffffff160192506101000a81548167ffffffffffffffff021916908367ffffffffffffffff1602179055506000600460008781526020019081526020016000209050828160000160006101000a81548173ffffffffffffffffffffffffffffffffffffffff021916908373ffffffffffffffffffffffffffffffffffffffff160217905550428160000160146101000a81548167ffffffffffffffff021916908367ffffffffffffffff160217905550600181600001601c6101000a81548160ff02191690831515021790555060006001870190506000600460008381526020019081526020016000209050600073ffffffffffffffffffffffffffffffffffffffff168160000160009054906101000a900473ffffffffffffffffffffffffffffffffffffffff1673ffffffffffffffffffffffffffffffffffffffff160361334257600054821461334157848160000160006101000a81548173ffffffffffffffffffffffffffffffffffffffff021916908373ffffffffffffffffffffffffffffffffffffffff16021790555085602001518160000160146101000a81548167ffffffffffffffff021916908367ffffffffffffffff1602179055505b5b5050505083600073ffffffffffffffffffffffffffffffffffffffff168273ffffffffffffffffffffffffffffffffffffffff167fddf252ad1be2c89b69c2b068fc378daa952ba7f163c4a11628f55a4df523b3ef60405160405180910390a46133b0816000866001614ab7565b60016000815480929190600101919050555050505050565b60006133d2611b43565b73ffffffffffffffffffffffffffffffffffffffff163373ffffffffffffffffffffffffffffffffffffffff1614905090565b61271081111561344a576040517f08c379a000000000000000000000000000000000000000000000000000000000815260040161344190617d7a565b60405180910390fd5b81600a60006101000a81548173ffffffffffffffffffffffffffffffffffffffff021916908373ffffffffffffffffffffffffffffffffffffffff16021790555080600a60146101000a81548161ffff021916908361ffff1602179055508173ffffffffffffffffffffffffffffffffffffffff167f90d7ec04bcb8978719414f82e52e4cb651db41d0e6f8cea6118c2191e6183adb826040516134ee9190616000565b60405180910390a25050565b613502615a8d565b600082905080613510612def565b1161374e5760005481101561374d576000600460008381526020019081526020016000206040518060600160405290816000820160009054906101000a900473ffffffffffffffffffffffffffffffffffffffff1673ffffffffffffffffffffffffffffffffffffffff1673ffffffffffffffffffffffffffffffffffffffff1681526020016000820160149054906101000a900467ffffffffffffffff1667ffffffffffffffff1667ffffffffffffffff16815260200160008201601c9054906101000a900460ff1615151515815250509050806040015161374b57600073ffffffffffffffffffffffffffffffffffffffff16816000015173ffffffffffffffffffffffffffffffffffffffff161461362f578092505050613780565b5b60011561374a57818060019003925050600460008381526020019081526020016000206040518060600160405290816000820160009054906101000a900473ffffffffffffffffffffffffffffffffffffffff1673ffffffffffffffffffffffffffffffffffffffff1673ffffffffffffffffffffffffffffffffffffffff1681526020016000820160149054906101000a900467ffffffffffffffff1667ffffffffffffffff1667ffffffffffffffff16815260200160008201601c9054906101000a900460ff1615151515815250509050600073ffffffffffffffffffffffffffffffffffffffff16816000015173ffffffffffffffffffffffffffffffffffffffff1614613745578092505050613780565b613630565b5b505b5b6040517fdf2d9b4200000000000000000000000000000000000000000000000000000000815260040160405180910390fd5b919050565b600061378f611b43565b73ffffffffffffffffffffffffffffffffffffffff163373ffffffffffffffffffffffffffffffffffffffff1614905090565b80600e60006101000a81548173ffffffffffffffffffffffffffffffffffffffff021916908373ffffffffffffffffffffffffffffffffffffffff1602179055508073ffffffffffffffffffffffffffffffffffffffff167f299d17e95023f496e0ffc4909cff1a61f74bb5eb18de6f900f4155bfa1b3b33360405160405180910390a250565b600f548560005461385a919061747f565b111561389b576040517f08c379a000000000000000000000000000000000000000000000000000000000815260040161389290617de6565b60405180910390fd5b505050505050565b600081031561399b57600081846138ba9190616e4c565b905073eeeeeeeeeeeeeeeeeeeeeeeeeeeeeeeeeeeeeeee73ffffffffffffffffffffffffffffffffffffffff168373ffffffffffffffffffffffffffffffffffffffff160361394657803414613945576040517f08c379a000000000000000000000000000000000000000000000000000000000815260040161393c90617e52565b60405180910390fd5b5b60008073ffffffffffffffffffffffffffffffffffffffff168673ffffffffffffffffffffffffffffffffffffffff1614613981578561398a565b613989610f2d565b5b905061399884338385614abd565b50505b50505050565b6000805490506139b18383614b30565b92915050565b505050505050565b60006139c9611b43565b73ffffffffffffffffffffffffffffffffffffffff163373ffffffffffffffffffffffffffffffffffffffff1614905090565b600060088054613a0b90616d43565b80601f0160208091040260200160405190810160405280929190818152602001828054613a3790616d43565b8015613a845780601f10613a5957610100808354040283529160200191613a84565b820191906000526020600020905b815481529060010190602001808311613a6757829003601f168201915b505050505090508160089080519060200190613aa1929190615a07565b507fc9c7c3fe08b88b4df9d4d47ef47d2c43d55c025a0ba88ca442580ed9e7348a168183604051613ad3929190617e72565b60405180910390a15050565b612710811115613b24576040517f08c379a0000000000000000000000000000000000000000000000000000000008152600401613b1b90617d7a565b60405180910390fd5b60405180604001604052808373ffffffffffffffffffffffffffffffffffffffff16815260200182815250600b600085815260200190815260200160002060008201518160000160006101000a81548173ffffffffffffffffffffffffffffffffffffffff021916908373ffffffffffffffffffffffffffffffffffffffff160217905550602082015181600101559050508173ffffffffffffffffffffffffffffffffffffffff16837f7365cf4122f072a3365c20d54eff9b38d73c096c28e1892ec8f5b0e403a0f12d83604051613bfd9190616000565b60405180910390a3505050565b613c12612c32565b73ffffffffffffffffffffffffffffffffffffffff168273ffffffffffffffffffffffffffffffffffffffff1603613c76576040517fb06307db00000000000000000000000000000000000000000000000000000000815260040160405180910390fd5b8060076000613c83612c32565b73ffffffffffffffffffffffffffffffffffffffff1673ffffffffffffffffffffffffffffffffffffffff16815260200190815260200160002060008473ffffffffffffffffffffffffffffffffffffffff1673ffffffffffffffffffffffffffffffffffffffff16815260200190815260200160002060006101000a81548160ff0219169083151502179055508173ffffffffffffffffffffffffffffffffffffffff16613d30612c32565b73ffffffffffffffffffffffffffffffffffffffff167f17307eab39ab6107e8899845ad3d59bd9653f200f220920489ca2b5937696c3183604051613d759190615c27565b60405180910390a35050565b6060613da683836040518060600160405280602781526020016184dc60279139614b4e565b905092915050565b613db98484846144fb565b613dd88373ffffffffffffffffffffffffffffffffffffffff16614c1b565b15613e2057613de984848484614c3e565b613e1f576040517fd1a57ed600000000000000000000000000000000000000000000000000000000815260040160405180910390fd5b5b50505050565b6000806000613e336118c0565b90506000600c805480602002602001604051908101604052809291908181526020018280548015613e8357602002820191906000526020600020905b815481526020019060010190808311613e6f575b5050505050905060005b82811015613ef357818181518110613ea857613ea7616c6e565b5b6020026020010151861015613edf57809350818181518110613ecd57613ecc616c6e565b5b60200260200101519450505050613f2f565b600181613eec919061747f565b9050613e8d565b506040517f08c379a0000000000000000000000000000000000000000000000000000000008152600401613f2690617ef5565b60405180910390fd5b915091565b60606000613f406118c0565b90506000600c805480602002602001604051908101604052809291908181526020018280548015613f9057602002820191906000526020600020905b815481526020019060010190808311613f7c575b5050505050905060005b8281101561409857818181518110613fb557613fb4616c6e565b5b602002602001015185101561408457600d6000838381518110613fdb57613fda616c6e565b5b602002602001015181526020019081526020016000208054613ffc90616d43565b80601f016020809104026020016040519081016040528092919081815260200182805461402890616d43565b80156140755780601f1061404a57610100808354040283529160200191614075565b820191906000526020600020905b81548152906001019060200180831161405857829003601f168201915b505050505093505050506140d4565b600181614091919061747f565b9050613f9a565b506040517f08c379a00000000000000000000000000000000000000000000000000000000081526004016140cb90617ef5565b60405180910390fd5b919050565b606060008203614120576040518060400160405280600181526020017f30000000000000000000000000000000000000000000000000000000000000008152509050614234565b600082905060005b6000821461415257808061413b90616ccc565b915050600a8261414b9190616ed5565b9150614128565b60008167ffffffffffffffff81111561416e5761416d61629a565b5b6040519080825280601f01601f1916602001820160405280156141a05781602001600182028036833780820191505090505b5090505b6000851461422d576001826141b99190617f15565b9150600a856141c89190617f49565b60306141d4919061747f565b60f81b8183815181106141ea576141e9616c6e565b5b60200101907effffffffffffffffffffffffffffffffffffffffffffffffffffffffffffff1916908160001a905350600a856142269190616ed5565b94506141a4565b8093505050505b919050565b6000614243611b43565b73ffffffffffffffffffffffffffffffffffffffff163373ffffffffffffffffffffffffffffffffffffffff1614905090565b8060106000848152602001908152602001600020908051906020019061429d929190615ad0565b505050565b80600d600084815260200190815260200160002090805190602001906142c9929190615a07565b505050565b60006142d8614d8e565b614317576040517f08c379a000000000000000000000000000000000000000000000000000000000815260040161430e90616dc0565b60405180910390fd5b6000860361435a576040517f08c379a000000000000000000000000000000000000000000000000000000000815260040161435190617fc6565b60405180910390fd5b6000600f5490506143b0818888888080601f016020809104026020016040519081016040528093929190818152602001838380828437600081840152601f19601f82011690508083019250505050505050614dcb565b600f600082955083919050555050807f2a0365091ef1a40953c670dce28177e37520648a6fdc91506bffac0ab045570d600189846143ee919061747f565b6143f89190617f15565b8888888860405161440d959493929190618040565b60405180910390a25095945050505050565b60008060008390506000805b87518110156144e8576002826144419190616e4c565b9150600088828151811061445857614457616c6e565b5b6020026020010151905080841161449957838160405160200161447c9291906180aa565b6040516020818303038152906040528051906020012093506144d4565b80846040516020016144ac9291906180aa565b6040516020818303038152906040528051906020012093506001836144d1919061747f565b92505b5080806144e090616ccc565b91505061442b565b5085821481935093505050935093915050565b6000614506826134fa565b90508373ffffffffffffffffffffffffffffffffffffffff16816000015173ffffffffffffffffffffffffffffffffffffffff1614614571576040517fa114810000000000000000000000000000000000000000000000000000000000815260040160405180910390fd5b60008473ffffffffffffffffffffffffffffffffffffffff16614592612c32565b73ffffffffffffffffffffffffffffffffffffffff1614806145c157506145c0856145bb612c32565b612610565b5b8061460657506145cf612c32565b73ffffffffffffffffffffffffffffffffffffffff166145ee84610f57565b73ffffffffffffffffffffffffffffffffffffffff16145b90508061463f576040517f59c896be00000000000000000000000000000000000000000000000000000000815260040160405180910390fd5b600073ffffffffffffffffffffffffffffffffffffffff168473ffffffffffffffffffffffffffffffffffffffff16036146a5576040517fea553b3400000000000000000000000000000000000000000000000000000000815260040160405180910390fd5b6146b285858560016149af565b6146be60008487612c3a565b6001600560008773ffffffffffffffffffffffffffffffffffffffff1673ffffffffffffffffffffffffffffffffffffffff16815260200190815260200160002060000160008282829054906101000a900467ffffffffffffffff160392506101000a81548167ffffffffffffffff021916908367ffffffffffffffff1602179055506001600560008673ffffffffffffffffffffffffffffffffffffffff1673ffffffffffffffffffffffffffffffffffffffff16815260200190815260200160002060000160008282829054906101000a900467ffffffffffffffff160192506101000a81548167ffffffffffffffff021916908367ffffffffffffffff1602179055506000600460008581526020019081526020016000209050848160000160006101000a81548173ffffffffffffffffffffffffffffffffffffffff021916908373ffffffffffffffffffffffffffffffffffffffff160217905550428160000160146101000a81548167ffffffffffffffff021916908367ffffffffffffffff16021790555060006001850190506000600460008381526020019081526020016000209050600073ffffffffffffffffffffffffffffffffffffffff168160000160009054906101000a900473ffffffffffffffffffffffffffffffffffffffff1673ffffffffffffffffffffffffffffffffffffffff160361493d57600054821461493c57878160000160006101000a81548173ffffffffffffffffffffffffffffffffffffffff021916908373ffffffffffffffffffffffffffffffffffffffff16021790555084602001518160000160146101000a81548167ffffffffffffffff021916908367ffffffffffffffff1602179055505b5b505050828473ffffffffffffffffffffffffffffffffffffffff168673ffffffffffffffffffffffffffffffffffffffff167fddf252ad1be2c89b69c2b068fc378daa952ba7f163c4a11628f55a4df523b3ef60405160405180910390a46149a88585856001614ab7565b5050505050565b600073ffffffffffffffffffffffffffffffffffffffff168473ffffffffffffffffffffffffffffffffffffffff16036149f1576149ec82614e38565b614a30565b8273ffffffffffffffffffffffffffffffffffffffff168473ffffffffffffffffffffffffffffffffffffffff1614614a2f57614a2e8483614e81565b5b5b600073ffffffffffffffffffffffffffffffffffffffff168373ffffffffffffffffffffffffffffffffffffffff1603614a7257614a6d82614fee565b614ab1565b8373ffffffffffffffffffffffffffffffffffffffff168373ffffffffffffffffffffffffffffffffffffffff1614614ab057614aaf83836150bf565b5b5b50505050565b50505050565b6000810315614b2a5773eeeeeeeeeeeeeeeeeeeeeeeeeeeeeeeeeeeeeeee73ffffffffffffffffffffffffffffffffffffffff168473ffffffffffffffffffffffffffffffffffffffff1603614b1c57614b17828261513e565b614b29565b614b28848484846151ef565b5b5b50505050565b614b4a8282604051806020016040528060008152506152bb565b5050565b6060614b5984614c1b565b614b98576040517f08c379a0000000000000000000000000000000000000000000000000000000008152600401614b8f90618148565b60405180910390fd5b6000808573ffffffffffffffffffffffffffffffffffffffff1685604051614bc09190618199565b600060405180830381855af49150503d8060008114614bfb576040519150601f19603f3d011682016040523d82523d6000602084013e614c00565b606091505b5091509150614c1082828661567b565b925050509392505050565b6000808273ffffffffffffffffffffffffffffffffffffffff163b119050919050565b60008373ffffffffffffffffffffffffffffffffffffffff1663150b7a02614c64612c32565b8786866040518563ffffffff1660e01b8152600401614c8694939291906181b0565b6020604051808303816000875af1925050508015614cc257506040513d601f19601f82011682018060405250810190614cbf9190618211565b60015b614d3b573d8060008114614cf2576040519150601f19603f3d011682016040523d82523d6000602084013e614cf7565b606091505b506000815103614d33576040517fd1a57ed600000000000000000000000000000000000000000000000000000000815260040160405180910390fd5b805181602001fd5b63150b7a0260e01b7bffffffffffffffffffffffffffffffffffffffffffffffffffffffff1916817bffffffffffffffffffffffffffffffffffffffffffffffffffffffff191614915050949350505050565b6000614d98611b43565b73ffffffffffffffffffffffffffffffffffffffff163373ffffffffffffffffffffffffffffffffffffffff1614905090565b6000808385614dda919061747f565b9050809150600c81908060018154018082558091505060019003906000526020600020016000909190919091505582600d60008381526020019081526020016000209080519060200190614e2f929190615a07565b50935093915050565b601f805490506020600083815260200190815260200160002081905550601f81908060018154018082558091505060019003906000526020600020016000909190919091505550565b60006001614e8e84611920565b614e989190617f15565b90506000601e6000848152602001908152602001600020549050818114614f7d576000601d60008673ffffffffffffffffffffffffffffffffffffffff1673ffffffffffffffffffffffffffffffffffffffff168152602001908152602001600020600084815260200190815260200160002054905080601d60008773ffffffffffffffffffffffffffffffffffffffff1673ffffffffffffffffffffffffffffffffffffffff16815260200190815260200160002060008481526020019081526020016000208190555081601e600083815260200190815260200160002081905550505b601e600084815260200190815260200160002060009055601d60008573ffffffffffffffffffffffffffffffffffffffff1673ffffffffffffffffffffffffffffffffffffffff16815260200190815260200160002060008381526020019081526020016000206000905550505050565b60006001601f805490506150029190617f15565b90506000602060008481526020019081526020016000205490506000601f838154811061503257615031616c6e565b5b9060005260206000200154905080601f838154811061505457615053616c6e565b5b90600052602060002001819055508160206000838152602001908152602001600020819055506020600085815260200190815260200160002060009055601f8054806150a3576150a261823e565b5b6001900381819060005260206000200160009055905550505050565b60006150ca83611920565b905081601d60008573ffffffffffffffffffffffffffffffffffffffff1673ffffffffffffffffffffffffffffffffffffffff16815260200190815260200160002060008381526020019081526020016000208190555080601e600084815260200190815260200160002081905550505050565b60008273ffffffffffffffffffffffffffffffffffffffff168260405161516490618293565b60006040518083038185875af1925050503d80600081146151a1576040519150601f19603f3d011682016040523d82523d6000602084013e6151a6565b606091505b50509050806151ea576040517f08c379a00000000000000000000000000000000000000000000000000000000081526004016151e1906182f4565b60405180910390fd5b505050565b8173ffffffffffffffffffffffffffffffffffffffff168373ffffffffffffffffffffffffffffffffffffffff1603156152b5573073ffffffffffffffffffffffffffffffffffffffff168373ffffffffffffffffffffffffffffffffffffffff16036152865761528182828673ffffffffffffffffffffffffffffffffffffffff166156e29092919063ffffffff16565b6152b4565b6152b38383838773ffffffffffffffffffffffffffffffffffffffff16615768909392919063ffffffff16565b5b5b50505050565b600080549050600073ffffffffffffffffffffffffffffffffffffffff168473ffffffffffffffffffffffffffffffffffffffff1603615327576040517f2e07630000000000000000000000000000000000000000000000000000000000815260040160405180910390fd5b60008303615361576040517fb562e8dd00000000000000000000000000000000000000000000000000000000815260040160405180910390fd5b61536e60008583866149af565b82600560008673ffffffffffffffffffffffffffffffffffffffff1673ffffffffffffffffffffffffffffffffffffffff16815260200190815260200160002060000160008282829054906101000a900467ffffffffffffffff160192506101000a81548167ffffffffffffffff021916908367ffffffffffffffff16021790555082600560008673ffffffffffffffffffffffffffffffffffffffff1673ffffffffffffffffffffffffffffffffffffffff16815260200190815260200160002060000160088282829054906101000a900467ffffffffffffffff160192506101000a81548167ffffffffffffffff021916908367ffffffffffffffff160217905550836004600083815260200190815260200160002060000160006101000a81548173ffffffffffffffffffffffffffffffffffffffff021916908373ffffffffffffffffffffffffffffffffffffffff160217905550426004600083815260200190815260200160002060000160146101000a81548167ffffffffffffffff021916908367ffffffffffffffff16021790555060008190506000848201905061552f8673ffffffffffffffffffffffffffffffffffffffff16614c1b565b156155f4575b818673ffffffffffffffffffffffffffffffffffffffff16600073ffffffffffffffffffffffffffffffffffffffff167fddf252ad1be2c89b69c2b068fc378daa952ba7f163c4a11628f55a4df523b3ef60405160405180910390a46155a46000878480600101955087614c3e565b6155da576040517fd1a57ed600000000000000000000000000000000000000000000000000000000815260040160405180910390fd5b8082106155355782600054146155ef57600080fd5b61565f565b5b818060010192508673ffffffffffffffffffffffffffffffffffffffff16600073ffffffffffffffffffffffffffffffffffffffff167fddf252ad1be2c89b69c2b068fc378daa952ba7f163c4a11628f55a4df523b3ef60405160405180910390a48082106155f5575b8160008190555050506156756000858386614ab7565b50505050565b6060831561568b578290506156db565b60008351111561569e5782518084602001fd5b816040517f08c379a00000000000000000000000000000000000000000000000000000000081526004016156d29190615f0c565b60405180910390fd5b9392505050565b6157638363a9059cbb60e01b84846040516024016157019291906160ae565b604051602081830303815290604052907bffffffffffffffffffffffffffffffffffffffffffffffffffffffff19166020820180517bffffffffffffffffffffffffffffffffffffffffffffffffffffffff83818316178352505050506157f1565b505050565b6157eb846323b872dd60e01b85858560405160240161578993929190618314565b604051602081830303815290604052907bffffffffffffffffffffffffffffffffffffffffffffffffffffffff19166020820180517bffffffffffffffffffffffffffffffffffffffffffffffffffffffff83818316178352505050506157f1565b50505050565b6000615853826040518060400160405280602081526020017f5361666545524332303a206c6f772d6c6576656c2063616c6c206661696c65648152508573ffffffffffffffffffffffffffffffffffffffff166158b89092919063ffffffff16565b90506000815111156158b357808060200190518101906158739190617d01565b6158b2576040517f08c379a00000000000000000000000000000000000000000000000000000000081526004016158a9906183bd565b60405180910390fd5b5b505050565b60606158c784846000856158d0565b90509392505050565b606082471015615915576040517f08c379a000000000000000000000000000000000000000000000000000000000815260040161590c9061844f565b60405180910390fd5b61591e85614c1b565b61595d576040517f08c379a0000000000000000000000000000000000000000000000000000000008152600401615954906184bb565b60405180910390fd5b6000808673ffffffffffffffffffffffffffffffffffffffff1685876040516159869190618199565b60006040518083038185875af1925050503d80600081146159c3576040519150601f19603f3d011682016040523d82523d6000602084013e6159c8565b606091505b50915091506159d882828661567b565b92505050949350505050565b604051806060016040528060008152602001606081526020016000151581525090565b828054615a1390616d43565b90600052602060002090601f016020900481019282615a355760008555615a7c565b82601f10615a4e57805160ff1916838001178555615a7c565b82800160010185558215615a7c579182015b82811115615a7b578251825591602001919060010190615a60565b5b509050615a899190615b56565b5090565b6040518060600160405280600073ffffffffffffffffffffffffffffffffffffffff168152602001600067ffffffffffffffff1681526020016000151581525090565b828054615adc90616d43565b90600052602060002090601f016020900481019282615afe5760008555615b45565b82601f10615b1757805160ff1916838001178555615b45565b82800160010185558215615b45579182015b82811115615b44578251825591602001919060010190615b29565b5b509050615b529190615b56565b5090565b5b80821115615b6f576000816000905550600101615b57565b5090565b6000604051905090565b600080fd5b600080fd5b60007fffffffff0000000000000000000000000000000000000000000000000000000082169050919050565b615bbc81615b87565b8114615bc757600080fd5b50565b600081359050615bd981615bb3565b92915050565b600060208284031215615bf557615bf4615b7d565b5b6000615c0384828501615bca565b91505092915050565b60008115159050919050565b615c2181615c0c565b82525050565b6000602082019050615c3c6000830184615c18565b92915050565b600073ffffffffffffffffffffffffffffffffffffffff82169050919050565b6000615c6d82615c42565b9050919050565b615c7d81615c62565b8114615c8857600080fd5b50565b600081359050615c9a81615c74565b92915050565b600060208284031215615cb657615cb5615b7d565b5b6000615cc484828501615c8b565b91505092915050565b600081519050919050565b600082825260208201905092915050565b6000819050602082019050919050565b6000819050919050565b615d0c81615cf9565b82525050565b600081519050919050565b600082825260208201905092915050565b60005b83811015615d4c578082015181840152602081019050615d31565b83811115615d5b576000848401525b50505050565b6000601f19601f8301169050919050565b6000615d7d82615d12565b615d878185615d1d565b9350615d97818560208601615d2e565b615da081615d61565b840191505092915050565b615db481615c0c565b82525050565b6000606083016000830151615dd26000860182615d03565b5060208301518482036020860152615dea8282615d72565b9150506040830151615dff6040860182615dab565b508091505092915050565b6000615e168383615dba565b905092915050565b6000602082019050919050565b6000615e3682615ccd565b615e408185615cd8565b935083602082028501615e5285615ce9565b8060005b85811015615e8e5784840389528151615e6f8582615e0a565b9450615e7a83615e1e565b925060208a01995050600181019050615e56565b50829750879550505050505092915050565b60006020820190508181036000830152615eba8184615e2b565b905092915050565b600082825260208201905092915050565b6000615ede82615d12565b615ee88185615ec2565b9350615ef8818560208601615d2e565b615f0181615d61565b840191505092915050565b60006020820190508181036000830152615f268184615ed3565b905092915050565b615f3781615c62565b82525050565b6000602082019050615f526000830184615f2e565b92915050565b615f6181615cf9565b8114615f6c57600080fd5b50565b600081359050615f7e81615f58565b92915050565b600060208284031215615f9a57615f99615b7d565b5b6000615fa884828501615f6f565b91505092915050565b60008060408385031215615fc857615fc7615b7d565b5b6000615fd685828601615c8b565b9250506020615fe785828601615f6f565b9150509250929050565b615ffa81615cf9565b82525050565b60006020820190506160156000830184615ff1565b92915050565b60008060006060848603121561603457616033615b7d565b5b600061604286828701615c8b565b935050602061605386828701615c8b565b925050604061606486828701615f6f565b9150509250925092565b6000806040838503121561608557616084615b7d565b5b600061609385828601615f6f565b92505060206160a485828601615f6f565b9150509250929050565b60006040820190506160c36000830185615f2e565b6160d06020830184615ff1565b9392505050565b6160e081615c0c565b81146160eb57600080fd5b50565b6000813590506160fd816160d7565b92915050565b60006020828403121561611957616118615b7d565b5b6000616127848285016160ee565b91505092915050565b6000819050919050565b600061615561615061614b84615c42565b616130565b615c42565b9050919050565b60006161678261613a565b9050919050565b60006161798261615c565b9050919050565b6161898161616e565b82525050565b60006020820190506161a46000830184616180565b92915050565b600080fd5b600061010082840312156161c6576161c56161aa565b5b81905092915050565b600080604083850312156161e6576161e5615b7d565b5b600083013567ffffffffffffffff81111561620457616203615b82565b5b616210858286016161af565b9250506020616221858286016160ee565b9150509250929050565b600061ffff82169050919050565b6162428161622b565b82525050565b600060408201905061625d6000830185615f2e565b61626a6020830184616239565b9392505050565b600060808284031215616287576162866161aa565b5b81905092915050565b600080fd5b600080fd5b7f4e487b7100000000000000000000000000000000000000000000000000000000600052604160045260246000fd5b6162d282615d61565b810181811067ffffffffffffffff821117156162f1576162f061629a565b5b80604052505050565b6000616304615b73565b905061631082826162c9565b919050565b600067ffffffffffffffff8211156163305761632f61629a565b5b61633982615d61565b9050602081019050919050565b82818337600083830152505050565b600061636861636384616315565b6162fa565b90508281526020810184848401111561638457616383616295565b5b61638f848285616346565b509392505050565b600082601f8301126163ac576163ab616290565b5b81356163bc848260208601616355565b91505092915050565b60008060008060008060c087890312156163e2576163e1615b7d565b5b60006163f089828a01615c8b565b965050602061640189828a01615f6f565b955050604061641289828a01615c8b565b945050606061642389828a01615f6f565b935050608087013567ffffffffffffffff81111561644457616443615b82565b5b61645089828a01616271565b92505060a087013567ffffffffffffffff81111561647157616470615b82565b5b61647d89828a01616397565b9150509295509295509295565b600067ffffffffffffffff8211156164a5576164a461629a565b5b6164ae82615d61565b9050602081019050919050565b60006164ce6164c98461648a565b6162fa565b9050828152602081018484840111156164ea576164e9616295565b5b6164f5848285616346565b509392505050565b600082601f83011261651257616511616290565b5b81356165228482602086016164bb565b91505092915050565b60006020828403121561654157616540615b7d565b5b600082013567ffffffffffffffff81111561655f5761655e615b82565b5b61656b848285016164fd565b91505092915050565b60008060006060848603121561658d5761658c615b7d565b5b600061659b86828701615f6f565b93505060206165ac86828701615c8b565b92505060406165bd86828701615f6f565b9150509250925092565b600080fd5b600080fd5b60008083601f8401126165e7576165e6616290565b5b8235905067ffffffffffffffff811115616604576166036165c7565b5b6020830191508360018202830111156166205761661f6165cc565b5b9250929050565b6000806000604084860312156166405761663f615b7d565b5b600061664e86828701615f6f565b935050602084013567ffffffffffffffff81111561666f5761666e615b82565b5b61667b868287016165d1565b92509250509250925092565b600081519050919050565b600082825260208201905092915050565b60006166ae82616687565b6166b88185616692565b93506166c8818560208601615d2e565b6166d181615d61565b840191505092915050565b600060208201905081810360008301526166f681846166a3565b905092915050565b6000806040838503121561671557616714615b7d565b5b600061672385828601615c8b565b9250506020616734858286016160ee565b9150509250929050565b60008083601f84011261675457616753616290565b5b8235905067ffffffffffffffff811115616771576167706165c7565b5b60208301915083602082028301111561678d5761678c6165cc565b5b9250929050565b600080602083850312156167ab576167aa615b7d565b5b600083013567ffffffffffffffff8111156167c9576167c8615b82565b5b6167d58582860161673e565b92509250509250929050565b600081519050919050565b600082825260208201905092915050565b6000819050602082019050919050565b600082825260208201905092915050565b600061682982616687565b616833818561680d565b9350616843818560208601615d2e565b61684c81615d61565b840191505092915050565b6000616863838361681e565b905092915050565b6000602082019050919050565b6000616883826167e1565b61688d81856167ec565b93508360208202850161689f856167fd565b8060005b858110156168db57848403895281516168bc8582616857565b94506168c78361686b565b925060208a019950506001810190506168a3565b50829750879550505050505092915050565b600060208201905081810360008301526169078184616878565b905092915050565b6000806000806080858703121561692957616928615b7d565b5b600061693787828801615c8b565b945050602061694887828801615c8b565b935050604061695987828801615f6f565b925050606085013567ffffffffffffffff81111561697a57616979615b82565b5b61698687828801616397565b91505092959194509250565b60008083601f8401126169a8576169a7616290565b5b8235905067ffffffffffffffff8111156169c5576169c46165c7565b5b6020830191508360018202830111156169e1576169e06165cc565b5b9250929050565b600080600080600060608688031215616a0457616a03615b7d565b5b6000616a1288828901615f6f565b955050602086013567ffffffffffffffff811115616a3357616a32615b82565b5b616a3f88828901616992565b9450945050604086013567ffffffffffffffff811115616a6257616a61615b82565b5b616a6e888289016165d1565b92509250509295509295909350565b6000819050919050565b616a9081616a7d565b82525050565b600061010082019050616aac600083018b615ff1565b616ab9602083018a615ff1565b616ac66040830189615ff1565b616ad36060830188615ff1565b616ae06080830187616a87565b616aed60a0830186615ff1565b616afa60c0830185615f2e565b81810360e0830152616b0c8184615ed3565b90509998505050505050505050565b600080600060408486031215616b3457616b33615b7d565b5b600084013567ffffffffffffffff811115616b5257616b51615b82565b5b616b5e86828701616397565b935050602084013567ffffffffffffffff811115616b7f57616b7e615b82565b5b616b8b868287016165d1565b92509250509250925092565b60008060408385031215616bae57616bad615b7d565b5b6000616bbc85828601615c8b565b9250506020616bcd85828601615c8b565b9150509250929050565b600080600080600060a08688031215616bf357616bf2615b7d565b5b6000616c0188828901615c8b565b9550506020616c1288828901615f6f565b9450506040616c2388828901615c8b565b9350506060616c3488828901615f6f565b925050608086013567ffffffffffffffff811115616c5557616c54615b82565b5b616c6188828901616271565b9150509295509295909350565b7f4e487b7100000000000000000000000000000000000000000000000000000000600052603260045260246000fd5b7f4e487b7100000000000000000000000000000000000000000000000000000000600052601160045260246000fd5b6000616cd782615cf9565b91507fffffffffffffffffffffffffffffffffffffffffffffffffffffffffffffffff8203616d0957616d08616c9d565b5b600182019050919050565b7f4e487b7100000000000000000000000000000000000000000000000000000000600052602260045260246000fd5b60006002820490506001821680616d5b57607f821691505b602082108103616d6e57616d6d616d14565b5b50919050565b7f4e6f7420617574686f72697a6564000000000000000000000000000000000000600082015250565b6000616daa600e83615ec2565b9150616db582616d74565b602082019050919050565b60006020820190508181036000830152616dd981616d9d565b9050919050565b7f496e76616c696420696e64657800000000000000000000000000000000000000600082015250565b6000616e16600d83615ec2565b9150616e2182616de0565b602082019050919050565b60006020820190508181036000830152616e4581616e09565b9050919050565b6000616e5782615cf9565b9150616e6283615cf9565b9250817fffffffffffffffffffffffffffffffffffffffffffffffffffffffffffffffff0483118215151615616e9b57616e9a616c9d565b5b828202905092915050565b7f4e487b7100000000000000000000000000000000000000000000000000000000600052601260045260246000fd5b6000616ee082615cf9565b9150616eeb83615cf9565b925082616efb57616efa616ea6565b5b828204905092915050565b7f455243373231456e756d657261626c653a206f776e657220696e646578206f7560008201527f74206f6620626f756e6473000000000000000000000000000000000000000000602082015250565b6000616f62602b83615ec2565b9150616f6d82616f06565b604082019050919050565b60006020820190508181036000830152616f9181616f55565b9050919050565b7f4e6f7420617574686f72697a656420746f20736574206f70657261746f72207260008201527f65737472696374696f6e2e000000000000000000000000000000000000000000602082015250565b6000616ff4602b83615ec2565b9150616fff82616f98565b604082019050919050565b6000602082019050818103600083015261702381616fe7565b9050919050565b60008160601b9050919050565b60006170428261702a565b9050919050565b600061705482617037565b9050919050565b61706c61706782615c62565b617049565b82525050565b6000819050919050565b61708d61708882615cf9565b617072565b82525050565b600061709f828561705b565b6014820191506170af828461707c565b6020820191508190509392505050565b7f6d617820737570706c7920636c61696d65640000000000000000000000000000600082015250565b60006170f5601283615ec2565b9150617100826170bf565b602082019050919050565b60006020820190508181036000830152617124816170e8565b9050919050565b600080fd5b600080fd5b600080fd5b600080833560016020038436030381126171575761715661712b565b5b80840192508235915067ffffffffffffffff82111561717957617178617130565b5b60208301925060018202360383131561719557617194617135565b5b509250929050565b60006171ac6020840184615f6f565b905092915050565b6171bd81616a7d565b81146171c857600080fd5b50565b6000813590506171da816171b4565b92915050565b60006171ef60208401846171cb565b905092915050565b61720081616a7d565b82525050565b60006172156020840184615c8b565b905092915050565b61722681615c62565b82525050565b600080fd5b600080fd5b600080fd5b6000808335600160200384360303811261725857617257617236565b5b83810192508235915060208301925067ffffffffffffffff8211156172805761727f61722c565b5b60018202360383131561729657617295617231565b5b509250929050565b60006172aa8385615d1d565b93506172b7838584616346565b6172c083615d61565b840190509392505050565b600061010083016172df600084018461719d565b6172ec6000860182615d03565b506172fa602084018461719d565b6173076020860182615d03565b50617315604084018461719d565b6173226040860182615d03565b50617330606084018461719d565b61733d6060860182615d03565b5061734b60808401846171e0565b61735860808601826171f7565b5061736660a084018461719d565b61737360a0860182615d03565b5061738160c0840184617206565b61738e60c086018261721d565b5061739c60e084018461723b565b85830360e08701526173af83828461729e565b925050508091505092915050565b600060408201905081810360008301526173d781856172cb565b90506173e66020830184615c18565b9392505050565b7f455243373231456e756d657261626c653a20676c6f62616c20696e646578206f60008201527f7574206f6620626f756e64730000000000000000000000000000000000000000602082015250565b6000617449602c83615ec2565b9150617454826173ed565b604082019050919050565b600060208201905081810360008301526174788161743c565b9050919050565b600061748a82615cf9565b915061749583615cf9565b9250827fffffffffffffffffffffffffffffffffffffffffffffffffffffffffffffffff038211156174ca576174c9616c9d565b5b828201905092915050565b7f4e6f7468696e6720746f2072657665616c000000000000000000000000000000600082015250565b600061750b601183615ec2565b9150617516826174d5565b602082019050919050565b6000602082019050818103600083015261753a816174fe565b9050919050565b600061755461754f84616315565b6162fa565b9050828152602081018484840111156175705761756f616295565b5b61757b848285615d2e565b509392505050565b600082601f83011261759857617597616290565b5b81516175a8848260208601617541565b91505092915050565b6000815190506175c0816171b4565b92915050565b600080604083850312156175dd576175dc615b7d565b5b600083015167ffffffffffffffff8111156175fb576175fa615b82565b5b61760785828601617583565b9250506020617618858286016175b1565b9150509250929050565b600081905092915050565b600061763882615d12565b6176428185617622565b9350617652818560208601615d2e565b80840191505092915050565b600081905092915050565b6000617675838561765e565b9350617682838584616346565b82840190509392505050565b600061769a828761762d565b91506176a7828587617669565b91506176b3828461707c565b60208201915081905095945050505050565b7f496e636f7272656374206b657900000000000000000000000000000000000000600082015250565b60006176fb600d83615ec2565b9150617706826176c5565b602082019050919050565b6000602082019050818103600083015261772a816176ee565b9050919050565b6000808335600160200384360303811261774e5761774d61712b565b5b80840192508235915067ffffffffffffffff8211156177705761776f617130565b5b60208301925060018202360383131561778c5761778b617135565b5b509250929050565b7f3000000000000000000000000000000000000000000000000000000000000000600082015250565b60006177ca600183617622565b91506177d582617794565b600182019050919050565b60006177ec828461762d565b91506177f7826177bd565b915081905092915050565b600061780e828561762d565b915061781a828461762d565b91508190509392505050565b6000806040838503121561783d5761783c615b7d565b5b600083013567ffffffffffffffff81111561785b5761785a615b82565b5b61786785828601616397565b9250506020617878858286016171cb565b9150509250929050565b7f4c6971756964436f6c6c656374696f6e733a20546f6b656e20646f6573206e6f60008201527f7420657869737400000000000000000000000000000000000000000000000000602082015250565b60006178de602783615ec2565b91506178e982617882565b604082019050919050565b6000602082019050818103600083015261790d816178d1565b9050919050565b7f4c6971756964436f6c6c656374696f6e733a20596f7520617265206e6f74207460008201527f6865206f776e6572206f66207468697320746f6b656e00000000000000000000602082015250565b6000617970603683615ec2565b915061797b82617914565b604082019050919050565b6000602082019050818103600083015261799f81617963565b9050919050565b7f4c6971756964436f6c6c656374696f6e733a204e465420697320616c6561647960008201527f2072656465656d65640000000000000000000000000000000000000000000000602082015250565b6000617a02602983615ec2565b9150617a0d826179a6565b604082019050919050565b60006020820190508181036000830152617a31816179f5565b9050919050565b6000617a45828587617669565b9150617a51828461707c565b602082019150819050949350505050565b60008083356001602003843603038112617a7f57617a7e61712b565b5b80840192508235915067ffffffffffffffff821115617aa157617aa0617130565b5b602083019250602082023603831315617abd57617abc617135565b5b509250929050565b6000617ad1828761705b565b601482019150617ae1828661707c565b602082019150617af1828561707c565b602082019150617b01828461705b565b60148201915081905095945050505050565b7f2150726963654f7243757272656e637900000000000000000000000000000000600082015250565b6000617b49601083615ec2565b9150617b5482617b13565b602082019050919050565b60006020820190508181036000830152617b7881617b3c565b9050919050565b7f2151747900000000000000000000000000000000000000000000000000000000600082015250565b6000617bb5600483615ec2565b9150617bc082617b7f565b602082019050919050565b60006020820190508181036000830152617be481617ba8565b9050919050565b7f214d6178537570706c7900000000000000000000000000000000000000000000600082015250565b6000617c21600a83615ec2565b9150617c2c82617beb565b602082019050919050565b60006020820190508181036000830152617c5081617c14565b9050919050565b7f63616e7420636c61696d20796574000000000000000000000000000000000000600082015250565b6000617c8d600e83615ec2565b9150617c9882617c57565b602082019050919050565b60006020820190508181036000830152617cbc81617c80565b9050919050565b6000604082019050617cd86000830185615f2e565b617ce56020830184615f2e565b9392505050565b600081519050617cfb816160d7565b92915050565b600060208284031215617d1757617d16615b7d565b5b6000617d2584828501617cec565b91505092915050565b7f45786365656473206d6178206270730000000000000000000000000000000000600082015250565b6000617d64600f83615ec2565b9150617d6f82617d2e565b602082019050919050565b60006020820190508181036000830152617d9381617d57565b9050919050565b7f4e6f7420656e6f756768206d696e74656420746f6b656e730000000000000000600082015250565b6000617dd0601883615ec2565b9150617ddb82617d9a565b602082019050919050565b60006020820190508181036000830152617dff81617dc3565b9050919050565b7f4d7573742073656e6420746f74616c2070726963650000000000000000000000600082015250565b6000617e3c601583615ec2565b9150617e4782617e06565b602082019050919050565b60006020820190508181036000830152617e6b81617e2f565b9050919050565b60006040820190508181036000830152617e8c8185615ed3565b90508181036020830152617ea08184615ed3565b90509392505050565b7f496e76616c696420746f6b656e49640000000000000000000000000000000000600082015250565b6000617edf600f83615ec2565b9150617eea82617ea9565b602082019050919050565b60006020820190508181036000830152617f0e81617ed2565b9050919050565b6000617f2082615cf9565b9150617f2b83615cf9565b925082821015617f3e57617f3d616c9d565b5b828203905092915050565b6000617f5482615cf9565b9150617f5f83615cf9565b925082617f6f57617f6e616ea6565b5b828206905092915050565b7f3020616d74000000000000000000000000000000000000000000000000000000600082015250565b6000617fb0600583615ec2565b9150617fbb82617f7a565b602082019050919050565b60006020820190508181036000830152617fdf81617fa3565b9050919050565b6000617ff28385615ec2565b9350617fff838584616346565b61800883615d61565b840190509392505050565b600061801f8385616692565b935061802c838584616346565b61803583615d61565b840190509392505050565b60006060820190506180556000830188615ff1565b8181036020830152618068818688617fe6565b9050818103604083015261807d818486618013565b90509695505050505050565b6000819050919050565b6180a461809f82616a7d565b618089565b82525050565b60006180b68285618093565b6020820191506180c68284618093565b6020820191508190509392505050565b7f416464726573733a2064656c65676174652063616c6c20746f206e6f6e2d636f60008201527f6e74726163740000000000000000000000000000000000000000000000000000602082015250565b6000618132602683615ec2565b915061813d826180d6565b604082019050919050565b6000602082019050818103600083015261816181618125565b9050919050565b600061817382616687565b61817d818561765e565b935061818d818560208601615d2e565b80840191505092915050565b60006181a58284618168565b915081905092915050565b60006080820190506181c56000830187615f2e565b6181d26020830186615f2e565b6181df6040830185615ff1565b81810360608301526181f181846166a3565b905095945050505050565b60008151905061820b81615bb3565b92915050565b60006020828403121561822757618226615b7d565b5b6000618235848285016181fc565b91505092915050565b7f4e487b7100000000000000000000000000000000000000000000000000000000600052603160045260246000fd5b50565b600061827d60008361765e565b91506182888261826d565b600082019050919050565b600061829e82618270565b9150819050919050565b7f6e617469766520746f6b656e207472616e73666572206661696c656400000000600082015250565b60006182de601c83615ec2565b91506182e9826182a8565b602082019050919050565b6000602082019050818103600083015261830d816182d1565b9050919050565b60006060820190506183296000830186615f2e565b6183366020830185615f2e565b6183436040830184615ff1565b949350505050565b7f5361666545524332303a204552433230206f7065726174696f6e20646964206e60008201527f6f74207375636365656400000000000000000000000000000000000000000000602082015250565b60006183a7602a83615ec2565b91506183b28261834b565b604082019050919050565b600060208201905081810360008301526183d68161839a565b9050919050565b7f416464726573733a20696e73756666696369656e742062616c616e636520666f60008201527f722063616c6c0000000000000000000000000000000000000000000000000000602082015250565b6000618439602683615ec2565b9150618444826183dd565b604082019050919050565b600060208201905081810360008301526184688161842c565b9050919050565b7f416464726573733a2063616c6c20746f206e6f6e2d636f6e7472616374000000600082015250565b60006184a5601d83615ec2565b91506184b08261846f565b602082019050919050565b600060208201905081810360008301526184d481618498565b905091905056fe416464726573733a206c6f772d6c6576656c2064656c65676174652063616c6c206661696c6564a2646970667358221220d99a5fbde6e3befa036c2c4e7fa087303e109454b0fc1088d06022c475066f1764736f6c634300080e0033",
  "immutableReferences": {},
  "source": "// SPDX-License-Identifier: MIT\npragma solidity ^0.8.13;\n\nimport \"@thirdweb-dev/contracts/base/ERC721Drop.sol\";\nimport \"@thirdweb-dev/contracts/eip/interface/IERC721Enumerable.sol\";\nimport \"@thirdweb-dev/contracts/extension/Drop.sol\";\nimport \"@thirdweb-dev/contracts/extension/DefaultOperatorFilterer.sol\";\n\ncontract LiquidCollections is\n  IERC721Enumerable,\n  ERC721Drop,\n  DefaultOperatorFilterer\n{\n  constructor(\n    string memory _name,\n    string memory _symbol,\n    address _royaltyRecipient,\n    uint128 _royaltyBps,\n    address _primarySaleRecipient\n  )\n    ERC721Drop(\n      _name,\n      _symbol,\n      _royaltyRecipient,\n      _royaltyBps,\n      _primarySaleRecipient\n    )\n  {}\n\n  /// @dev Returns whether operator restriction can be set in the given execution context.\n  function _canSetOperatorRestriction()\n    internal\n    virtual\n    override\n    returns (bool)\n  {\n    // return hasRole(DEFAULT_ADMIN_ROLE, _msgSender());\n    return true;\n  }\n\n  // // copy-pasted from DropSinglePhase.sol\n  // function canClaim(\n  //     address _receiver,\n  //     uint256 _quantity,\n  //     address _currency,\n  //     uint256 _pricePerToken,\n  //     AllowlistProof calldata _allowlistProof,\n  //     bytes memory _data\n  // ) public view {\n  //     _beforeClaim(\n  //         _receiver,\n  //         _quantity,\n  //         _currency,\n  //         _pricePerToken,\n  //         _allowlistProof,\n  //         _data\n  //     );\n\n  //     // bytes32 activeConditionId = conditionId;\n\n  //     /**\n  //      *  We make allowlist checks (i.e. verifyClaimMerkleProof) before verifying the claim's general\n  //      *  validity (i.e. verifyClaim) because we give precedence to the check of allow list quantity\n  //      *  restriction over the check of the general claim condition's quantityLimitPerTransaction\n  //      *  restriction.\n  //      */\n\n  //     // Verify inclusion in allowlist.\n  //     (\n  //         bool validMerkleProof,\n  //         uint256 merkleProofIndex\n  //     ) = verifyClaimMerkleProof(\n  //             _dropMsgSender(),\n  //             _quantity,\n  //             _allowlistProof\n  //         );\n\n  //     // Verify claim validity. If not valid, revert.\n  //     // when there's allowlist present --> verifyClaimMerkleProof will verify the maxQuantityInAllowlist value with hashed leaf in the allowlist\n  //     // when there's no allowlist, this check is true --> verifyClaim will check for _quantity being equal/less than the limit\n  //     bool toVerifyMaxQuantityPerTransaction = _allowlistProof\n  //         .maxQuantityInAllowlist ==\n  //         0 ||\n  //         claimCondition.merkleRoot == bytes32(0);\n\n  //     verifyClaim(\n  //         _dropMsgSender(),\n  //         _quantity,\n  //         _currency,\n  //         _pricePerToken,\n  //         toVerifyMaxQuantityPerTransaction\n  //     );\n  // }\n\n  function setApprovalForAll(address operator, bool approved) public override {\n    super.setApprovalForAll(operator, approved);\n  }\n\n  // function approve(address operator, uint256 tokenId) public override {\n  //     super.approve(operator, tokenId);\n  // }\n\n  function transferFrom(\n    address from,\n    address to,\n    uint256 tokenId\n  ) public override onlyAllowedOperator(from) {\n    super.transferFrom(from, to, tokenId);\n  }\n\n  function safeTransferFrom(\n    address from,\n    address to,\n    uint256 tokenId\n  ) public override onlyAllowedOperator(from) {\n    super.safeTransferFrom(from, to, tokenId);\n  }\n\n  function safeTransferFrom(\n    address from,\n    address to,\n    uint256 tokenId,\n    bytes memory data\n  ) public override onlyAllowedOperator(from) {\n    super.safeTransferFrom(from, to, tokenId, data);\n  }\n\n  /////////////////////\n  // redemption\n  /////////////////////\n  mapping(uint256 => bool) private redeemed;\n\n  event Redeem(address indexed from, uint256 indexed tokenId);\n\n  function isRedeemable(uint256 tokenId) public view virtual returns (bool) {\n    require(_exists(tokenId), \"LiquidCollections: Token does not exist\");\n    return !redeemed[tokenId];\n  }\n\n  function redeem(uint256 tokenId) public virtual {\n    require(_exists(tokenId), \"LiquidCollections: Token does not exist\");\n    require(\n      ownerOf(tokenId) == msg.sender,\n      \"LiquidCollections: You are not the owner of this token\"\n    );\n    require(\n      redeemed[tokenId] == false,\n      \"LiquidCollections: NFT is aleady redeemed\"\n    );\n\n    redeemed[tokenId] = true;\n\n    emit Redeem(msg.sender, tokenId);\n  }\n\n  struct Redeemey {\n    uint256 id;\n    string tokenURI;\n    bool redeemed;\n  }\n\n  function getMineWithMetadata(address _owner)\n    public\n    view\n    returns (Redeemey[] memory)\n  {\n    // address _owner = msg.sender;\n    uint256 lngth = ERC721A.balanceOf(_owner);\n    Redeemey[] memory _metadatasOfOwners = new Redeemey[](lngth);\n\n    uint256 i;\n    for (i = 0; i < lngth; i++) {\n      uint256 tUid = tokenOfOwnerByIndex(_owner, i);\n\n      _metadatasOfOwners[i] = Redeemey({\n        id: tUid,\n        redeemed: redeemed[tUid],\n        tokenURI: tokenURI(tUid)\n      });\n    }\n\n    return (_metadatasOfOwners);\n  }\n\n  /////////////////////\n  // enumerability\n  /////////////////////\n  // Mapping from owner to list of owned token IDs\n  mapping(address => mapping(uint256 => uint256)) private _ownedTokens;\n\n  // Mapping from token ID to index of the owner tokens list\n  mapping(uint256 => uint256) private _ownedTokensIndex;\n\n  // Array with all token ids, used for enumeration\n  uint256[] private _allTokens;\n\n  // Mapping from token id to position in the allTokens array\n  mapping(uint256 => uint256) private _allTokensIndex;\n\n  /**\n   * @dev See {IERC721Enumerable-tokenOfOwnerByIndex}.\n   */\n  function tokenOfOwnerByIndex(address owner, uint256 index)\n    public\n    view\n    virtual\n    override\n    returns (uint256)\n  {\n    require(\n      index < ERC721A.balanceOf(owner),\n      \"ERC721Enumerable: owner index out of bounds\"\n    );\n    return _ownedTokens[owner][index];\n  }\n\n  // /**\n  //  * @dev See {IERC721Enumerable-totalSupply}.\n  //  */\n  // function totalSupply() public view virtual override returns (uint256) {\n  //     return _allTokens.length;\n  // }\n\n  /**\n   * @dev See {IERC721Enumerable-tokenByIndex}.\n   */\n  function tokenByIndex(uint256 index)\n    public\n    view\n    virtual\n    override\n    returns (uint256)\n  {\n    require(\n      index < ERC721A.totalSupply(),\n      \"ERC721Enumerable: global index out of bounds\"\n    );\n    return _allTokens[index];\n  }\n\n  /**\n   * @dev Hook that is called before any token transfer. This includes minting\n   * and burning.\n   *\n   * Calling conditions:\n   *\n   * - When `from` and `to` are both non-zero, ``from``'s `tokenId` will be\n   * transferred to `to`.\n   * - When `from` is zero, `tokenId` will be minted for `to`.\n   * - When `to` is zero, ``from``'s `tokenId` will be burned.\n   * - `from` and 'to' cannot be the zero address at the same time.\n   *\n   * To learn more about hooks, head to xref:ROOT:extending-contracts.adoc#using-hooks[Using Hooks].\n   */\n  function _beforeTokenTransfers(\n    address from,\n    address to,\n    uint256 tokenId,\n    uint256 quantity\n  ) internal virtual override {\n    // super._beforeTokenTransfer(from, to, tokenId);\n\n    if (from == address(0)) {\n      _addTokenToAllTokensEnumeration(tokenId);\n    } else if (from != to) {\n      _removeTokenFromOwnerEnumeration(from, tokenId);\n    }\n    if (to == address(0)) {\n      _removeTokenFromAllTokensEnumeration(tokenId);\n    } else if (to != from) {\n      _addTokenToOwnerEnumeration(to, tokenId);\n    }\n  }\n\n  // /**\n  //  * @dev Hook that is called before any batch token transfer. For now this is limited\n  //  * to batch minting by the {ERC721Consecutive} extension.\n  //  *\n  //  * Calling conditions:\n  //  *\n  //  * - When `from` and `to` are both non-zero, ``from``'s `tokenId` will be\n  //  * transferred to `to`.\n  //  * - When `from` is zero, `tokenId` will be minted for `to`.\n  //  * - When `to` is zero, ``from``'s `tokenId` will be burned.\n  //  * - `from` cannot be the zero address.\n  //  * - `to` cannot be the zero address.\n  //  *\n  //  * To learn more about hooks, head to xref:ROOT:extending-contracts.adoc#using-hooks[Using Hooks].\n  //  */\n  // function _beforeConsecutiveTokenTransfer(\n  //     address,\n  //     address,\n  //     uint256,\n  //     uint96\n  // ) internal virtual override {\n  //     revert(\"ERC721Enumerable: consecutive transfers not supported\");\n  // }\n\n  /**\n   * @dev Private function to add a token to this extension's ownership-tracking data structures.\n   * @param to address representing the new owner of the given token ID\n   * @param tokenId uint256 ID of the token to be added to the tokens list of the given address\n   */\n  function _addTokenToOwnerEnumeration(address to, uint256 tokenId) private {\n    uint256 length = ERC721A.balanceOf(to);\n    _ownedTokens[to][length] = tokenId;\n    _ownedTokensIndex[tokenId] = length;\n  }\n\n  /**\n   * @dev Private function to add a token to this extension's token tracking data structures.\n   * @param tokenId uint256 ID of the token to be added to the tokens list\n   */\n  function _addTokenToAllTokensEnumeration(uint256 tokenId) private {\n    _allTokensIndex[tokenId] = _allTokens.length;\n    _allTokens.push(tokenId);\n  }\n\n  /**\n   * @dev Private function to remove a token from this extension's ownership-tracking data structures. Note that\n   * while the token is not assigned a new owner, the `_ownedTokensIndex` mapping is _not_ updated: this allows for\n   * gas optimizations e.g. when performing a transfer operation (avoiding double writes).\n   * This has O(1) time complexity, but alters the order of the _ownedTokens array.\n   * @param from address representing the previous owner of the given token ID\n   * @param tokenId uint256 ID of the token to be removed from the tokens list of the given address\n   */\n  function _removeTokenFromOwnerEnumeration(address from, uint256 tokenId)\n    private\n  {\n    // To prevent a gap in from's tokens array, we store the last token in the index of the token to delete, and\n    // then delete the last slot (swap and pop).\n\n    uint256 lastTokenIndex = ERC721A.balanceOf(from) - 1;\n    uint256 tokenIndex = _ownedTokensIndex[tokenId];\n\n    // When the token to delete is the last token, the swap operation is unnecessary\n    if (tokenIndex != lastTokenIndex) {\n      uint256 lastTokenId = _ownedTokens[from][lastTokenIndex];\n\n      _ownedTokens[from][tokenIndex] = lastTokenId; // Move the last token to the slot of the to-delete token\n      _ownedTokensIndex[lastTokenId] = tokenIndex; // Update the moved token's index\n    }\n\n    // This also deletes the contents at the last position of the array\n    delete _ownedTokensIndex[tokenId];\n    delete _ownedTokens[from][lastTokenIndex];\n  }\n\n  /**\n   * @dev Private function to remove a token from this extension's token tracking data structures.\n   * This has O(1) time complexity, but alters the order of the _allTokens array.\n   * @param tokenId uint256 ID of the token to be removed from the tokens list\n   */\n  function _removeTokenFromAllTokensEnumeration(uint256 tokenId) private {\n    // To prevent a gap in the tokens array, we store the last token in the index of the token to delete, and\n    // then delete the last slot (swap and pop).\n\n    uint256 lastTokenIndex = _allTokens.length - 1;\n    uint256 tokenIndex = _allTokensIndex[tokenId];\n\n    // When the token to delete is the last token, the swap operation is unnecessary. However, since this occurs so\n    // rarely (when the last minted token is burnt) that we still do the swap here to avoid the gas cost of adding\n    // an 'if' statement (like in _removeTokenFromOwnerEnumeration)\n    uint256 lastTokenId = _allTokens[lastTokenIndex];\n\n    _allTokens[tokenIndex] = lastTokenId; // Move the last token to the slot of the to-delete token\n    _allTokensIndex[lastTokenId] = tokenIndex; // Update the moved token's index\n\n    // This also deletes the contents at the last position of the array\n    delete _allTokensIndex[tokenId];\n    _allTokens.pop();\n  }\n}\n",
  "sourcePath": "/Users/adam/Code/kokomoBay/contracts/LiquidCollections.sol",
  "compiler": {
    "name": "solc",
    "version": "0.8.14+commit.80d49f37.Emscripten.clang"
  },
  "schemaVersion": "3.4.7",
  "updatedAt": "2023-01-12T19:00:18.904Z",
  "devdoc": {
    "kind": "dev",
    "methods": {
      "approve(address,uint256)": {
        "details": "See {IERC721-approve}."
      },
      "balanceOf(address)": {
        "details": "See {IERC721-balanceOf}."
      },
      "burn(uint256)": {
        "details": "ERC721A's `_burn(uint256,bool)` internally checks for token approvals.",
        "params": {
          "_tokenId": "The tokenId of the NFT to burn."
        }
      },
      "claim(address,uint256,address,uint256,(bytes32[],uint256,uint256,address),bytes)": {
        "details": "Lets an account claim tokens."
      },
      "encryptDecrypt(bytes,bytes)": {
        "details": "Encrypt/decrypt given `data` with `key`. Uses inline assembly.                  See: https://ethereum.stackexchange.com/questions/69825/decrypt-message-on-chain",
        "params": {
          "data": "Bytes of data to encrypt/decrypt.",
          "key": "Secure key used by caller for encryption/decryption."
        },
        "returns": {
          "result": " Output after encryption/decryption of given data."
        }
      },
      "getApproved(uint256)": {
        "details": "See {IERC721-getApproved}."
      },
      "getBaseURICount()": {
        "details": "Each batch of tokens has an in ID and an associated `baseURI`.                  See {batchIds}."
      },
      "getBatchIdAtIndex(uint256)": {
        "details": "See {getBaseURICount}.",
        "params": {
          "_index": "ID of a token."
        }
      },
      "getRevealURI(uint256,bytes)": {
        "details": "Reveal encrypted base URI for `_batchId` with caller/admin's `_key` used for encryption.                      Reverts if there's no encrypted URI for `_batchId`.                      See {encryptDecrypt}.",
        "params": {
          "_batchId": "ID of the batch for which URI is being revealed.",
          "_key": "Secure key used by caller/admin for encryption of baseURI."
        },
        "returns": {
          "revealedURI": "Decrypted base URI."
        }
      },
      "getRoyaltyInfoForToken(uint256)": {
        "details": "Returns royalty recipient and bps for `_tokenId`.",
        "params": {
          "_tokenId": "The tokenID of the NFT for which to query royalty info."
        }
      },
      "getSupplyClaimedByWallet(address)": {
        "details": "Returns the supply claimed by claimer for active conditionId."
      },
      "isApprovedForAll(address,address)": {
        "details": "See {IERC721-isApprovedForAll}."
      },
      "isEncryptedBatch(uint256)": {
        "details": "Returns `true` if `_batchId`'s base URI is encrypted.",
        "params": {
          "_batchId": "ID of a batch of NFTs."
        }
      },
      "lazyMint(uint256,string,bytes)": {
        "params": {
          "_amount": "The number of NFTs to lazy mint.",
          "_baseURIForTokens": "The placeholder base URI for the 'n' number of NFTs being lazy minted, where the                           metadata for each of those NFTs is `${baseURIForTokens}/${tokenId}`.",
          "_data": "The encrypted base URI + provenance hash for the batch of NFTs being lazy minted."
        },
        "returns": {
          "batchId": "         A unique integer identifier for the batch of NFTs lazy minted together."
        }
      },
      "multicall(bytes[])": {
        "details": "Receives and executes a batch of function calls on this contract.",
        "params": {
          "data": "The bytes data that makes up the batch of function calls to execute."
        },
        "returns": {
          "results": "The bytes data that makes up the result of the batch of function calls executed."
        }
      },
      "name()": {
        "details": "See {IERC721Metadata-name}."
      },
      "ownerOf(uint256)": {
        "details": "See {IERC721-ownerOf}."
      },
      "primarySaleRecipient()": {
        "details": "Returns primary sale recipient address."
      },
      "reveal(uint256,bytes)": {
        "params": {
          "_index": "The ID for the batch of delayed-reveal NFTs to reveal.",
          "_key": "The key with which the base URI for the relevant batch of NFTs was encrypted."
        }
      },
      "royaltyInfo(uint256,uint256)": {
        "details": "Returns royalty amount and recipient for `tokenId` and `salePrice`.",
        "params": {
          "salePrice": "Sale price of the token.",
          "tokenId": "The tokenID of the NFT for which to query royalty info."
        },
        "returns": {
          "receiver": "       Address of royalty recipient account.",
          "royaltyAmount": "  Royalty amount calculated at current royaltyBps value."
        }
      },
      "safeTransferFrom(address,address,uint256)": {
        "details": "See {IERC721-safeTransferFrom}."
      },
      "setApprovalForAll(address,bool)": {
        "details": "See {IERC721-setApprovalForAll}."
      },
      "setClaimConditions((uint256,uint256,uint256,uint256,bytes32,uint256,address,string),bool)": {
        "details": "Lets a contract admin set claim conditions."
      },
      "setContractURI(string)": {
        "details": "Caller should be authorized to setup contractURI, e.g. contract admin.                  See {_canSetContractURI}.                  Emits {ContractURIUpdated Event}.",
        "params": {
          "_uri": "keccak256 hash of the role. e.g. keccak256(\"TRANSFER_ROLE\")"
        }
      },
      "setDefaultRoyaltyInfo(address,uint256)": {
        "details": "Caller should be authorized to set royalty info.                  See {_canSetRoyaltyInfo}.                  Emits {DefaultRoyalty Event}; See {_setupDefaultRoyaltyInfo}.",
        "params": {
          "_royaltyBps": "Updated royalty bps.",
          "_royaltyRecipient": "Address to be set as default royalty recipient."
        }
      },
      "setOwner(address)": {
        "params": {
          "_newOwner": "The address to set as the new owner of the contract."
        }
      },
      "setPrimarySaleRecipient(address)": {
        "details": "Caller should be authorized to set primary sales info.                  See {_canSetPrimarySaleRecipient}.                  Emits {PrimarySaleRecipientUpdated Event}; See {_setupPrimarySaleRecipient}.",
        "params": {
          "_saleRecipient": "Address to be set as new recipient of primary sales."
        }
      },
      "setRoyaltyInfoForToken(uint256,address,uint256)": {
        "details": "Sets royalty info for `_tokenId`. Caller should be authorized to set royalty info.                  See {_canSetRoyaltyInfo}.                  Emits {RoyaltyForToken Event}; See {_setupRoyaltyInfoForToken}.",
        "params": {
          "_bps": "Updated royalty bps for the token Id.",
          "_recipient": "Address to be set as royalty recipient for given token Id."
        }
      },
      "supportsInterface(bytes4)": {
        "details": "See ERC165: https://eips.ethereum.org/EIPS/eip-165"
      },
      "symbol()": {
        "details": "See {IERC721Metadata-symbol}."
      },
      "tokenByIndex(uint256)": {
        "details": "See {IERC721Enumerable-tokenByIndex}."
      },
      "tokenOfOwnerByIndex(address,uint256)": {
        "details": "See {IERC721Enumerable-tokenOfOwnerByIndex}."
      },
      "tokenURI(uint256)": {
        "details": "See `BatchMintMetadata` for handling of metadata in this contract.",
        "params": {
          "_tokenId": "The tokenId of an NFT."
        }
      },
      "totalSupply()": {
        "details": "Burned tokens are calculated here, use _totalMinted() if you want to count just minted tokens."
      },
      "transferFrom(address,address,uint256)": {
        "details": "See {IERC721-transferFrom}."
      },
      "verifyClaim(address,uint256,address,uint256,(bytes32[],uint256,uint256,address))": {
        "details": "Checks a request to claim NFTs against the active claim condition's criteria."
      }
    },
    "version": 1
  },
  "userdoc": {
    "errors": {
      "ApprovalCallerNotOwnerNorApproved()": [
        {
          "notice": "The caller must own the token or be an approved operator."
        }
      ],
      "ApprovalQueryForNonexistentToken()": [
        {
          "notice": "The token does not exist."
        }
      ],
      "ApprovalToCurrentOwner()": [
        {
          "notice": "The caller cannot approve to the current owner."
        }
      ],
      "ApproveToCaller()": [
        {
          "notice": "The caller cannot approve to their own address."
        }
      ],
      "BalanceQueryForZeroAddress()": [
        {
          "notice": "Cannot query the balance for the zero address."
        }
      ],
      "MintToZeroAddress()": [
        {
          "notice": "Cannot mint to the zero address."
        }
      ],
      "MintZeroQuantity()": [
        {
          "notice": "The quantity of tokens minted must be more than zero."
        }
      ],
      "OwnerQueryForNonexistentToken()": [
        {
          "notice": "The token does not exist."
        }
      ],
      "TransferCallerNotOwnerNorApproved()": [
        {
          "notice": "The caller must own the token or be an approved operator."
        }
      ],
      "TransferFromIncorrectOwner()": [
        {
          "notice": "The token must be owned by `from`."
        }
      ],
      "TransferToNonERC721ReceiverImplementer()": [
        {
          "notice": "Cannot safely transfer to a contract that does not implement the ERC721Receiver interface."
        }
      ],
      "TransferToZeroAddress()": [
        {
          "notice": "Cannot transfer to the zero address."
        }
      ],
      "URIQueryForNonexistentToken()": [
        {
          "notice": "The token does not exist."
        }
      ]
    },
    "events": {
      "ClaimConditionUpdated((uint256,uint256,uint256,uint256,bytes32,uint256,address,string),bool)": {
        "notice": "Emitted when the contract's claim conditions are updated."
      },
      "TokensClaimed(address,address,uint256,uint256)": {
        "notice": "Emitted when tokens are claimed via `claim`."
      }
    },
    "kind": "user",
    "methods": {
      "burn(uint256)": {
        "notice": "Lets an owner or approved operator burn the NFT of the given tokenId."
      },
      "contractURI()": {
        "notice": "Returns the contract metadata URI."
      },
      "encryptDecrypt(bytes,bytes)": {
        "notice": "Encrypt/decrypt data on chain."
      },
      "getBaseURICount()": {
        "notice": "Returns the count of batches of NFTs."
      },
      "getBatchIdAtIndex(uint256)": {
        "notice": "Returns the ID for the batch of tokens the given tokenId belongs to."
      },
      "getDefaultRoyaltyInfo()": {
        "notice": "Returns the defualt royalty recipient and BPS for this contract's NFTs."
      },
      "getRevealURI(uint256,bytes)": {
        "notice": "Returns revealed URI for a batch of NFTs."
      },
      "getRoyaltyInfoForToken(uint256)": {
        "notice": "View royalty info for a given token."
      },
      "isEncryptedBatch(uint256)": {
        "notice": "Returns whether the relvant batch of NFTs is subject to a delayed reveal."
      },
      "lazyMint(uint256,string,bytes)": {
        "notice": "Lets an authorized address lazy mint a given amount of NFTs."
      },
      "multicall(bytes[])": {
        "notice": "Receives and executes a batch of function calls on this contract."
      },
      "nextTokenIdToClaim()": {
        "notice": "The tokenId assigned to the next new NFT to be claimed."
      },
      "nextTokenIdToMint()": {
        "notice": "The tokenId assigned to the next new NFT to be lazy minted."
      },
      "owner()": {
        "notice": "Returns the owner of the contract."
      },
      "reveal(uint256,bytes)": {
        "notice": "Lets an authorized address reveal a batch of delayed reveal NFTs."
      },
      "royaltyInfo(uint256,uint256)": {
        "notice": "View royalty info for a given token and sale price."
      },
      "setContractURI(string)": {
        "notice": "Lets a contract admin set the URI for contract-level metadata."
      },
      "setDefaultRoyaltyInfo(address,uint256)": {
        "notice": "Updates default royalty recipient and bps."
      },
      "setOwner(address)": {
        "notice": "Lets an authorized wallet set a new owner for the contract."
      },
      "setPrimarySaleRecipient(address)": {
        "notice": "Updates primary sale recipient."
      },
      "setRoyaltyInfoForToken(uint256,address,uint256)": {
        "notice": "Updates default royalty recipient and bps for a particular token."
      },
      "tokenURI(uint256)": {
        "notice": "Returns the metadata URI for an NFT."
      }
    },
    "version": 1
  }
}